:020000040000fa
:080000000002040000000000f2
:020000040000fa
:100008009402000094020000940200009402000090
:100018009402000094020000940200009402000080
:100028009402000094020000940200009402000070
:10003800940200009402000094020000e6140000fc
:100048009402000094020000940200009402000050
:100058009402000094020000940200009402000040
:100068009402000094020000940200009402000030
:100078009402000094020000940200009402000020
:100088009402000094020000940200009402000010
:100098009402000094020000261a00009402000056
:1000a80094020000940200009402000094020000f0
:1000b80094020000940200009402000094020000e0
:1000c80094020000940200009402000094020000d0
:1000d80094020000940200009402000094020000c0
:1000e80094020000940200009402000094020000b0
:1000f80094020000940200009402000094020000a0
:10010800940200009402000094020000940200008f
:10011800940200009402000094020000940200007f
:10012800940200009402000094020000940200006f
:10013800940200009402000094020000940200005f
:10014800940200009402000094020000940200004f
:10015800940200009402000094020000940200003f
:10016800940200009402000094020000940200002f
:10017800940200009402000094020000940200001f
:10018800940200009402000094020000940200000f
:1001980094020000940200009402000094020000ff
:1001a80094020000940200009402000094020000ef
:1001b80094020000940200009402000094020000df
:1001c80094020000940200009402000094020000cf
:1001d80094020000940200009402000094020000bf
:1001e80094020000940200009402000094020000af
:0801f8009402000094020000d3
:020000040000fa
:10020800940200009402000094020000940200008e
:10021800940200009402000094020000940200007e
:10022800940200009402000094020000940200006e
:10023800940200009402000094020000e6140000fa
:10024800940200009402000094020000940200004e
:10025800940200009402000094020000940200003e
:10026800940200009402000094020000940200002e
:10027800940200009402000094020000940200001e
:10028800940200009402000094020000940200000e
:100298009402000094020000261a00009402000054
:1002a80094020000940200009402000094020000ee
:1002b80094020000940200009402000094020000de
:1002c80094020000940200009402000094020000ce
:1002d80094020000940200009402000094020000be
:1002e80094020000940200009402000094020000ae
:1002f800940200009402000094020000940200009e
:10030800940200009402000094020000940200008d
:10031800940200009402000094020000940200007d
:10032800940200009402000094020000940200006d
:10033800940200009402000094020000940200005d
:10034800940200009402000094020000940200004d
:10035800940200009402000094020000940200003d
:10036800940200009402000094020000940200002d
:10037800940200009402000094020000940200001d
:10038800940200009402000094020000940200000d
:1003980094020000940200009402000094020000fd
:1003a80094020000940200009402000094020000ed
:1003b80094020000940200009402000094020000dd
:1003c80094020000940200009402000094020000cd
:1003d80094020000940200009402000094020000bd
:1003e80094020000940200009402000094020000ad
:0803f8009402000094020000d1
:020000040000fa
:100400008f9c20000eff20000e01880000000000dd
:1004100000012000200288000c000700a0be21007f
:100420000100200011000700000020000000e00093
:100430000200320000000200000000002a18020042
:10044000000000000040da000000fe004440a90067
:10045000601c20000000e0000300320000002000cb
:10046000a00188004440a800000006009101880017
:10047000800078000000eb0015003700e2804000ab
:1004800032a0b4009101ba00e280400032a0b40072
:100490009102ba00e280400032a0b4000002eb00fa
:1004a000472bde00f507b200602ce10004003a00a3
:1004b0000059eb008301e900fdff3e000400370016
:1004c0006128e100010032000082eb000400070017
:1004d0001101ba000200e000e8ff3a000000060047
:1004e0003159ba008301e9000c0032002159ba00e9
:1004f0008301e900080032000400e00003003a0034
:10050000e280400032a0b400f5ff370011d9ba00f4
:100510008301e900faff3a008100e800e180400031
:1005200032a0b400000006000040da000000fe0027
:100530000002780002003700315a78000201e90019
:10054000e00f5100fcff3a000000060000027800b6
:100550008042eb00b4cf1200fdff3a000080ea00b9
:1005600000004200000006000c00fa00889fbe0058
:1005700000047800f4ff2700d4bf9f008004eb0044
:1005800099bf9f0088bf9f00a8bf9f00240c200038
:10059000b4bf9f0078815700cfb09700708057009c
:1005a000070007000fba9700094a78000fba9700b2
:1005b000080052004f04be000080fa000000060050
:1005c0002f03b000889fbe008a9fbe008c9fbe0094
:1005d0008e1f7800e0af9f00c1af9f00b2b79f00b1
:1005e0008006eb006e023700cfa897008100e8007c
:1005f000c1af9f0054c2b300844f500006003a00c0
:10060000010278000006eb0001c3b30000c2b30092
:10061000b7c2b300070037000000fb00efa8970047
:100620006b020700e10f40005d0232008d06e8001a
:100630005b0237008402780034437800d2c2b300f2
:10064000824f53000900320005003c00804f5300e8
:1006500008003200874f53000c003a0007003700b3
:10066000814f530009003a00060037000c30a0000b
:10067000f0ff37000c00a000eeff37000c10a000c8
:10068000ecff37000c20a000eaff37006202660092
:10069000010032000c00a100680266000100320077
:1006a0000c20a1000602fb000403b100e90f520078
:1006b0000c003e00050378000002eb006a22b9003e
:1006c000b603fb000703b1000482430086027800f2
:1006d0009603fb000703b100e98f5300f7ff3600d4
:1006e000080037000002eb00a7c2b300874f530099
:1006f00004003a00bfb1970043027800b3b79f00ef
:100700008502e8000007eb00e6c2b300954f130036
:100710000a003a000ce0a00064435300d54f1300d8
:100720000200320005037800080037003fb397004d
:1007300046077800b6b79f008502e80005037800f9
:10074000080037006a70b90000874300860278000d
:10075000b603fb000703b100e98f5300f9ff360031
:10076000f6ff3700b6427800c6af9f00c0c6b300a0
:1007700080cf5200250032000f003c0036c6b30087
:1007800086cf52006e00320004003c00e0cf5200e1
:10079000080232006b4353000f00370046c6b30017
:1007a00086cf5200170032006543430086cf5200c7
:1007b00083003a001300370036c7b30086cf5200db
:1007c0001f00320007003c006443530086cf5200f4
:1007d000140032000643e80086cf520078003a0049
:1007e0001300370056c7b30086cf5200790032009d
:1007f0006343430086cf520071003a00a5c79f00b3
:100800000d003700a5c79f0074003700f003660095
:1008100005012000010032000500280005067600d1
:10082000d0ff3700a5c79f000c60a0006b00370009
:10083000a5c79f000c50a0000c70a00067003700f7
:10084000a5c79f00bfb09700c1027800b1b79f0055
:1008500005047800e08f520001003a00289920003a
:10086000080378008002eb00010037008502e800f1
:10087000e6c37a00e0cf5300fcff3a00850478001d
:10088000e00f570003003200890f570001003100cc
:100890008e0478000007eb00890f5200010036003b
:1008a000090752006806660014003a000700370086
:1008b000efa8970000022000c5010700e10f4000eb
:1008c000010032008d06e8000e07e900e00f570036
:1008d000f7ff3a000087eb000800370008027800b5
:1008e0003400fb0004047800efa89700b80107006b
:1008f000e10f4000010032008d06e8000902780097
:100900008404e900e00f5200f4ff3a00e00f5600c3
:10091000a301320007003700efa897000002200073
:10092000ab010700e10f4000010032008d06e80036
:100930000e07e900e00f5700f7ff3a009801370073
:100940003fb19700c2027800b2b79f00050078005f
:10095000cf80de000101780082017800f0af9f00b7
:1009600081b79f0092b79f00a3b79f004800de00a9
:10097000c80add0000807200a0c79f0070036600f7
:1009800009003200e04f500007003200e14f400004
:1009900005003200b0c79f006fdb9700c6c79f00fd
:1009a0002900200003003700efdb9700b7c79f0046
:1009b0001900200038fc2f000f044400b0ff37005e
:1009c000a5c79f0028fc2f000f0444001900200039
:1009d000abff3700a5c79f000c0cb3008c0278005a
:1009e000050cb2002b003a00e00f560005003d0058
:1009f0003fb097004005be004004be00b0b79f0066
:100a000017003700f00266000f003200bfb29700f7
:100a10004501be00b5b79f00c2a79f00d3a79f00a6
:100a20000503780096029000cfaade00e5a79f009c
:100a3000f5a79f004fa49700dfa497006fa597002c
:100a4000ffa59700060037003fb0970040047800ec
:100a5000b0b79f00cfc4de00090578008a05780092
:100a6000e00f5400e08f5c00e00f5d00e08f5d0060
:100a700025003d003c00b3006000b8006011b800e4
:100a800008045000898458000a0559008b855900d4
:100a90001d003700e00f560005003d00bfb0970075
:100aa0004105be004104be00b1b79f0016003700eb
:100ab000f00266000e003200bfb297004501be0092
:100ac000b5b79f0082af9f0093af9f000003eb007c
:100ad000a6af9f008003eb00b7af9f000fac97005d
:100ae0009fac97002fad9700bfad97000600370071
:100af0003fb0970040047800b0b79f000900200085
:100b00000a0020000b002000e00f570007003a0009
:100b10001e002000e00f5400e08f5c00e00f5d003d
:100b2000e08f5d00010032000007eb008c007800d0
:100b3000010cb200f1af9f0005042000858f50002a
:100b40002c00320003003c00e08f5000080032000f
:100b50003c003700050820007fa99700850f510051
:100b600010003200050c2000850f510035003a00be
:100b7000868d200015c0b3003600be003601be00d1
:100b80000040e10001c8e10002d0e10003d8e1002b
:100b90002b0039008542e800f4cf5200f6ff3a00fe
:100ba0002700370015c0b30000012000010020001d
:100bb0006011b8000040e10001c8e10002d0e1008e
:100bc00003d8e1001e003900460020000000d000dc
:100bd0008180d2000281d2008381d2000603e90025
:100be000faff3a008542e800f0cf5200f1ff3a00e8
:100bf0001300370015c0b300800020000100200062
:100c00006011b8000040e10001c8e10002d0e1003d
:100c100003d8e1000a003900370020000000d000ae
:100c20008180d2000281d2008381d2008703e90053
:100c3000faff3a008542e800f5cf5200f1ff3a0092
:100c4000a5c79f002fc097008002fb008e8f520027
:100c500002003d00aec79f0003003700850f57001c
:100c600001003d0005077800e00f5200030032004c
:100c7000e3026600010032000402e90005002400de
:100c800085026600050032008e0f5200020034001b
:100c90000e025200010037000002eb002fc1970046
:100ca0008202fb008001eb00d3af9f00850f520052
:100cb0000200340085025200d5af9f006402660036
:100cc0002c003200e202660061026600e08f5200f2
:100cd00006003200b0022000e00f52000100320096
:100ce0000080e800efa8970004003700e00f5200f2
:100cf00006003200efa8970000022000b4000700b1
:100d0000e10f4000010032008d06e8005faa970065
:100d1000e00f52008d0032000802be000a03be0040
:100d2000dfac9700efa8970000032000c4b79f0036
:100d3000d5b79f00e6b79f00f7b79f00a400070054
:100d40004fb29700dfb297006fb39700ffb39700e1
:100d5000e10f4000010032008d06e8008904e9003f
:100d6000f0ff3a00d9af9f000605be000404be00a4
:100d700076003700dfaa9700e08f5200180032009b
:100d80006802660016003a000802be000a03be00b0
:100d9000dfac9700efa8970000022000c4b79f00c7
:100da000d5b79f00e6b79f00f7b79f008800070000
:100db0004fb29700dfb297006fb39700ffb3970071
:100dc000e10f4000010032008d06e8008904e900cf
:100dd000f0ff3a00d9af9f000605be000404be0034
:100de000e202660061026600e08f520006003200f7
:100df000b0022000e00f5200010032000080e80045
:100e0000efa8970004003700e00f52004f003200b7
:100e1000efa89700000220006d000700e10f4000de
:100e20004a0032008d06e800480037000e07e9004e
:100e30007fab970007042000870f53002d0032007e
:100e400003003c00e00f5300080032003700370079
:100e5000040820007fae9700840f56001200320075
:100e6000040c2000840f560030003a004372dd006d
:100e7000008d2000000242005403be004402be0068
:100e80000800be000a01be00b4010700a400200053
:100e9000050020006033b800b701070004c3b300a9
:100ea000044240002000370014982000bfa29700a1
:100eb000e08f52000100320004972000c272dd0072
:100ec0000800be000a01be008502e90005003300eb
:100ed0008301d1000281d3008180d3000080d30040
:100ee000f9ff37006f00600064407800a0c79f00e2
:100ef0000e0037006372b9000800be000a01be0090
:100f0000040678000c06e900050033008301d100d7
:100f10000281d3008180d3000080d300f9ff370025
:100f2000674260000443b000a4c79f00afc09700b1
:100f30000100fb00efa8970025000700e10f40002b
:100f4000060032008d06e800040037000c0178002e
:100f50000202b200b2a79f008cbf9f00e00f5700b3
:100f6000b2ff3a000fbe9700680666000c00320020
:100f7000dfa99700e08f51000900340003067800d4
:100f8000efa897000002200011000700e10f4000c9
:100f9000010032008d06e8000c06e900f8ff3a0077
:100fa0004faa970014407800a0c79f00e04f500060
:100fb0008dfd3a000d0078004f0778004f06be0007
:100fc0004f05be004f04be002f03b1000000060015
:100fd000889fbe000104780038029000e20262009f
:100fe0008084eb003b003200040378000620b2004e
:100ff0009802900002003a00e08f520035003a005b
:101000000490a0003404980080047800f90fb20026
:10101000e08f520002003a00a8029000050c780010
:10102000ea8f540005003a000408b20003003a00b9
:1010300088007800d0002000e5ff0700180290002b
:10104000d8029000850f52000b0032000402e80025
:101050001404980018027800094a7800040ce8008b
:1010600015c0b300049c2000054a7800ea8f5400a4
:1010700018003a0005003700880078000940780021
:101080001700070080047800120037003802900033
:101090000410b2000f00320018019000a800900068
:1010a000480090005200070018029000840f500082
:1010b00004003200380290000403b30034049800a6
:1010c0008084eb000002eb001404980028029000da
:1010d000040c7800090078004f04be0000000600f0
:1010e0000200fa00889fbe00a0ff9f000104780064
:1010f00038029000840278000504b2000200320039
:101100000000fb0035003700e202620005003a00f3
:101110000403b30034049800150498000080eb0029
:101120002e003700d8049000e08f540006003a00eb
:1011300012002000e6805700480090002c000700b5
:101140001904980023003700a8029000e08f520095
:1011500008003a00359c200025049800050c780012
:101160002500200055049800150498000430a000c4
:101170003404980018019000a800900048009000e6
:101180001b000700280290008082eb0015049800e5
:10119000affa9700054a7800040ce8002ffa970090
:1011a000ea4f52000b003a00380290000410b200df
:1011b0000800320018019000a8009000480090003c
:1011c0000b0007000002eb0014049800a802900036
:1011d000050c78002ffa97000400fb004f04be00b6
:1011e0000080fa000000060000c0da0000000600df
:1011f0000a00fa00e20f500022003e00344e800048
:10120000e10f520006003200872320004623200011
:101210002423200005232000e08f530004003a001f
:1012200087222000462220002422200005222000c0
:10123000000028001500600003003a00800b7800d1
:1012400007002800958a7300054020009482620000
:1012500001003a0014a0a0008202780006003700c6
:10126000940378000710b200fdff3200b103fb00c9
:10127000070b78008502e900e08f5200f8ff3a0082
:101280000800370034002000b4bf9f00c0bf9f009b
:10129000d1bf9f00e2bf9f006a805700d2ff0700c6
:1012a0006fb99700020078000080fa000000060085
:1012b000889fbe008a9fbe003004be002005be008d
:1012c0000404440085844c0006054d0087854d00cc
:1012d0000898be000a90be000440e10005c8e10085
:1012e00006d0e10007d8e1000200310068004000ac
:1012f0001008e8004f05be004f04be0000000600c5
:101300001000fa00889fbe008a9fbe000605be003e
:101310000404be003002be002003be00c4b79f001c
:10132000d5b79f00e6b79f00f7b79f0008025200ad
:1013300089825a000a035b008b835b0084bf9f0095
:1013400095bf9f00a6bf9f00b7bf9f000498be0037
:101350000698be00110020004fb29700dfb2970040
:101360006fb39700ffb397000820e10009a8e100e0
:101370000ab0e1000bb8e100010039008000eb0089
:10138000108810004f05be004f04be000080fa0018
:10139000000006001400fa00889fbe008a9fbe006d
:1013a0008c9fbe003f0007000605be000404be007f
:1013b0000006eb00ccb79f00bcb79f00acb79f0006
:1013c0009cb79f008cb79f000d0420004fb397007f
:1013d000bfb29700860343002fb29700e00f53007f
:1013e00004003d003d0007000f004000b0ff070073
:1013f00003003700390007000f004000c0ff07005e
:10140000cfb2970095bf9f00e08f520009003500d2
:101410002b00070014002000050020006033b800f6
:1014200000007200818072000201730083817300ea
:101430001c0007000c06e8008d0f5600e3ff3a0081
:101440001fba9700e00f520005003d000802be00e1
:101450000a03be0000fe2f000f00400094ff0700ab
:101460004faa9700e00f520008003a000fb497000f
:101470009fb497002fb59700bfb59700d8b79f00ce
:10148000e9b79f00fab79f008bbf9f000c000700d1
:101490004f06be004f05be004f04be000080fa009c
:1014a00000000600010007000000060090b79f0042
:1014b000a1b79f00b2b79f00c3b79f00000006000e
:1014c00001000700000006001fb09700afb09700b2
:1014d0003fb19700cfb19700000006004f2bde0010
:1014e00087037300a7b79f004f23de008582420069
:1014f0008502730095b79f00ffaa97004f2bde006f
:10150000040242000402730084b79f006faa970090
:101510004f23de008582420085027300f5af9f00f5
:10152000e9ff07004f18de000402420000027200cb
:10153000e4af9f00e4ff0700000040008180480006
:101540000201490083814900d8ff07000802be005c
:101550000a03be0000fe2f0000000600881f78006e
:1015600018002000881f78008aff07008f87e90095
:101570004f04780000000600801feb0085ff070085
:101580008f87e90000000600889fbe008a9fbe008a
:10159000e00f5000e08f5800e00f5900e08f590035
:1015a0000c003d006044b8006055b80000005400d5
:1015b00081805c0002015d0083815d0018002000d5
:1015c0001500070008003d00180007000004eb00ac
:1015d000050037000004eb000f00070002003d008b
:1015e0001200070018002000dcff0700e00f540085
:1015f000060032006022b8006033b80000005200dc
:1016000081805a0002015b0083815b004f05be00b0
:101610004f04be0000000600e00f5200e08f5a00a9
:10162000e00f5b00e08f5b00000006006044b80044
:101630006055b8000402540085825c0006035d001a
:1016400087835d0000000600889fbe008a9fbe0061
:101650008c1f7800e00f5000e08f5800e00f590019
:10166000e08f59000d003d006044b8006055b8009f
:101670000000540081805c0002015d0083815d00f8
:101680001c0020000820e10009a8e1000ab0e100e8
:101690000bb8e1000d003d00080037000006eb002c
:1016a000e00f5200e08f5a00e00f5b00e08f5b001c
:1016b00006003d006044b8006055b80004025400c4
:1016c00085825c0006035d0087835d00aaff07003a
:1016d000e00f5600060032006022b8006033b80008
:1016e0000000520081805a0002015b0083815b0090
:1016f0004f0678004f05be004f04be0000000600f4
:020000040000fa
:10170000460000002d2d00002d2d00002d20000092
:10171000524100004e470000494e000047200000a3
:101720004f460000462000002d2d00002d2d00000a
:101730002d0d00000a0000002d2d00002d2d0000b1
:101740002d200000524100004e470000494e00008d
:10175000472000004f4e0000202d00002d2d0000de
:101760002d2d00000d0a0000002d0000204d00006e
:101770004153000054450000522000004d4f00002e
:1017800044450000202d00000d0a0000002d00003f
:10179000205300004c41000056450000204d000041
:1017a0004f440000452000002d0d00000a000000fd
:1017b0002d20000043480000415300004520000058
:1017c0004d4f000044450000202d00000d0a000090
:1017d000002d000020430000484100005345000058
:1017e000204d00004f440000452000004f460000ff
:1017f000462d00000d0a0000002d000020540000be
:1018000072610000636b0000696e000067200000d9
:101810004c650000766500006c200000350d00006e
:101820000a0000002d2000005472000061630000d7
:101830006b6900006e670000204c000065760000b8
:10184000656c0000203400000d0a0000002d00002f
:101850002054000072610000636b0000696e00009c
:10186000672000004c650000766500006c200000d9
:10187000330d00000a0000002d200000547200000b
:10188000616300006b6900006e670000204c00007f
:1018900065760000656c0000203200000d0a000033
:1018a000002d00002054000072610000636b0000f6
:1018b000696e0000672000004c650000766500003e
:1018c0006c200000310d00000a0000000d720000c5
:1018d000720a00002042000041540000544c0000f5
:1018e00045200000434100005253000020520000f8
:1018f00045560000203000002e310000302c000042
:1019000020320000322000004175000067200000f6
:101910003230000031340000200d00000a000000c9
:10192000203e00003e3e0000204d000041530000dc
:1019300054450000523a0000205200007864000034
:101940002048000049540000206f00006e20000075
:101950005369000064650000203d00002025000060
:101960006420000020200000436e0000743d000051
:10197000256400002020000049520000203d0000a6
:10198000202500003364000020250000336400009f
:10199000202500003364000020250000336400008f
:1019a0000d0a0000002000003e3e00003e20000026
:1019b000534c000041560000453a00002052000000
:1019c000786400002048000049540000206f0000a7
:1019d0006e2000005369000064650000203d000097
:1019e000202500006420000020200000436e00003d
:1019f000743d0000256400002020000049520000d2
:101a0000203d000020250000336400002025000058
:101a1000336400002025000033640000202500000e
:101a2000336400000d0a0000004300006e740000e3
:101a30003a200000256400002c200000204900000e
:101a4000523a0000253300006420000025330000d6
:101a500064200000253300006420000025330000ce
:101a6000642000002048000065610000643d000023
:101a70002564000020520000616e000067650000d0
:0c1a80003d250000640d00000a0000007d
:020000040000fa
:101a8c000000fa0044002800040a88000002eb0061
:101a9c00140a8800140a80000480a1000490a1009c
:101aac0004a0a10004b0a100140a88000002eb00fd
:101abc00240a88000002eb00340a88004781a80041
:101acc000002eb00440a88000002eb00540a880074
:101adc000002eb00840a8800541a2000a40a880033
:101aec00240d2000c40a880084e0a900040820000a
:101afc00a4048800350580000400240004827200d0
:101b0c00340588000080fa00000006000000fa008e
:101b1c000002eb00040488000002eb0014048800af
:101b2c000002eb00140288000080fa00000006009e
:101b3c000000fa000002eb00042788000002eb0012
:101b4c00142788000002eb00241688000002eb002a
:101b5c00641688000082eb00041688000082eb00fb
:101b6c0044168800c802a900c8e2a900c8a2a900ae
:101b7c00c8c2a900c922a900c842a900c862a9000c
:101b8c00c962a800c982a800c9a2a800c9c2a8003d
:101b9c00c882a9000080fa00000006000000fa00cc
:101bac000002eb00a413880075e2a8007562a9007e
:101bbc0074e2a800a41380000400a0000410a1008b
:101bcc00a41388000080fa00000006000400fa004c
:101bdc0004802000040078008a06070000027800c8
:101bec00040f78001e027800e00f52002001340030
:101bfc000580200095427800e4c3b30084cf5200e6
:101c0c001d013a0014802000144278000402fb00ed
:101c1c00140798001e0290006123b900f4fc2f00f9
:101c2c00f5ff2f000602420087824a00360420008e
:101c3c0007002000860f5200878f5a000f013e00cc
:101c4c0004600100f9003700e8003700d7003700c6
:101c5c00c6003700b5003700080137000701370010
:101c6c000601370005013700040137000301370076
:101c7c00020137000101370000013700ff00370077
:101c8c00fe003700fd003700fc003700fb0037007a
:101c9c0033003700f9003700f8003700f700370041
:101cac00f6003700f5003700f4003700f30037007a
:101cbc00f20037005d003700f0003700ef0037000e
:101ccc00ee003700ed0037004800370067003700a2
:101cdc0076003700e9003700e8003700e7003700ee
:101cec00e6003700e5003700e4003700e30037007a
:101cfc00e2003700e1003700e0003700df0037007a
:101d0c00de003700dd003700dc003700db00370079
:101d1c0010003700d900370014003700d700370007
:101d2c00d6003700d5003700d4003700d300370079
:101d3c00d2003700d1003700d0003700cf00370079
:101d4c00ce003700cd00370018003700cb0037002d
:101d5c00660037000002eb0034458800c7003700ee
:101d6c001400200034458800c4003700344580003e
:101d7c00e00f52000a0032002200200001b82800b7
:101d8c0000802000e7f9070000802000ecf9070034
:101d9c0000027800840078000080200066060700ae
:101dac0014002000e4448800b4003700344580005f
:101dbc00e00f52000a003200a201200021b82800d6
:101dcc0000802000d7f9070000802000dcf9070014
:101ddc00000278008400780000802000560607007e
:101dec000002eb0014458800a40037003445800045
:101dfc00e00f52000a00320092012000c1b9280005
:101e0c0000802000c7f9070000802000ccf90700f3
:101e1c00000278008400780000802000460607004d
:101e2c0014002000144588009400370034458000cd
:101e3c00e00f52000a0032002201200051bb2800a2
:101e4c0000802000b7f9070000802000bcf90700d3
:101e5c00000278008400780000802000360607001d
:101e6c00140020002445880084003700344580008d
:101e7c00e00f52000a0032001201200071bc280051
:101e8c0000802000a7f9070000802000acf90700b3
:101e9c0000027800840078000080200026060700ed
:101eac000002eb00244588007400370034458000a4
:101ebc00e00f52000a0032001201200081bd280000
:101ecc000080200097f90700008020009cf9070093
:101edc0000027800840078000080200016060700bd
:101eec00140020004445880064003700344580000d
:101efc00e00f52000a0032004201200091be28007f
:101f0c000080200087f90700008020008cf9070072
:101f1c00000278008400780000802000060607008c
:101f2c000002eb0044458800540037003445800023
:101f3c00e00f52000a00320052012000d1bf2800ed
:101f4c000080200077f90700008020007cf9070052
:101f5c00000278008400780000802000f60507005d
:101f6c00540020005445880044003700344580005c
:101f7c00e00f52000a0032005201200021c128005b
:101f8c000080200067f90700008020006cf9070032
:101f9c00000278008400780000802000e60507002d
:101fac00440020005445880034003700344580003c
:101fbc00e00f52000a0032005201200071c22800ca
:101fcc000080200057f90700008020005cf9070012
:101fdc00000278008400780000802000d6050700fd
:101fec00340020005445880024003700344580001c
:101ffc00e00f52000a00320052012000c1c3280039
:10200c000080200047f90700008020004cf90700f1
:10201c00000278008400780000802000c6050700cc
:10202c0024002000544588001400370034458000fb
:10203c00e00f52000a0032005201200011c52800a6
:10204c000080200037f90700008020003cf90700d1
:10205c00000278008400780000802000b60507009c
:10206c0014002000544588000000000003003700d5
:10207c000000000001003700000000000080fa00a2
:10208c00000006000600fa000002eb00040f7800c6
:10209c000489200014027800240798001400200002
:1020ac001407980013003700058920001e029000c9
:1020bc000402420004824200940278002e02900036
:1020cc00848f5200080036001e029000040f780026
:1020dc00058920001e029000040242000482420086
:1020ec0014027800240798001e0290000402e800f5
:1020fc00140798001e029000e30f5200eaff340010
:10210c001e027800040078000080fa00000006002f
:10211c001a00fa00300f9800410f98000002eb00f3
:10212c0024079800048920001402780044079800c2
:10213c000489200014027800540798001400200031
:10214c003407980021003700058920003e029000da
:10215c000402420004824200940278004e02900075
:10216c00848f5200080036003e0090002007980033
:10217c00058920003e0290000402420004824200c5
:10218c001402780044079800058920003e02900054
:10219c000402420004824200940278005e02900025
:1021ac00848f520006003100058920003e02900009
:1021bc000402420004824200140278005407980082
:1021cc003e0290000402e800340798003e029000a2
:1021dc00e30f5200dcff34000002eb0034079800e0
:1021ec0010003700058920003e02900004024200d6
:1021fc0004824200940278005e0290000482520035
:10220c00840278003e02900004024200040247005f
:10221c006e024200050a78003e0290000402e800bb
:10222c00340798003e029000e30f5200edff34009b
:10223c002e029000cfa2de00360020000700200006
:10224c00860f5200878f5a009c003e0004600100ec
:10225c000300370027003700480037006c003700b8
:10226c00ae0a90000e0a9000848242007e0290001a
:10227c00048f420004892000b402900004892000dd
:10228c0014029000048242008402d10004892000d0
:10229c001402780004824200440798001e02780061
:1022ac00e00f520002003a0014002000040f7800e6
:1022bc008e0a90002e0a9000048252006407980047
:1022cc00ee029000a405200004aab9008402780054
:1022dc001e027800110009008402d8000002780068
:1022ec00140798001e029000a405b1001407980072
:1022fc00720037009e0a90007e0290008482420099
:10230c000e0a9000048f420004892000a402900061
:10231c000489200014027800048242008402d10057
:10232c0004892000140290000482420044079800a3
:10233c001e027800e00f520002003a001400200048
:10234c00040f78009e0a90007e02900004825200d6
:10235c0064079800ee029000a405200004aab900be
:10236c00840278001e027800110009008402d80053
:10237c00000278001407980050003700ae0a900055
:10238c000e0a9000848242001e0a9000048f4200c4
:10239c0004892000b40290000489200014029000eb
:1023ac00048242008402d10004892000240290009f
:1023bc0004824200440798001e027800e00f52008d
:1023cc0002003a0014002000040f7800ae0a9000be
:1023dc000e0a90000482520064079800ee029000ee
:1023ec00a405200004aab900840278001e0278001b
:1023fc00110009008402d80000027800140798002c
:10240c001e029000a405b000140798002b003700a2
:10241c009e0a90007e029000848242002e0a900058
:10242c00048f420004892000a4029000048920003b
:10243c0014027800048242008402d1000489200036
:10244c003402900004824200440798001e02780077
:10245c00e00f520002003a0014002000040f780034
:10246c00fe0290001e0a900004825200640798003d
:10247c00ee029000a405200004aab90084027800a2
:10248c001e027800110009008402d80000027800b6
:10249c00140798001e029000440bb000140798001b
:1024ac009e029000440b2000848f520003003400e5
:1024bc001e0290008416b100140798004e0a90007a
:1024cc009e029000050a78003e0a90004e00900093
:1024dc00000a780014002000040078000080fa0044
:1024ec00000006000600fa0084c7b30024479800d9
:1024fc00744480000442780034479800644480009f
:10250c0004427800444798000002eb00040f780066
:10251c000c00370000000000951180000420200002
:10252c0004826200e00f5200fbff3a000e82e800ca
:10253c001e024200144278000482fb00a4118800a1
:10254c001e0fe8001e027800e20f5200f1ff34006b
:10255c000080fa00000006000e00fa0050079800f8
:10256c00610798006e0290004623dd0075458000df
:10257c0014fc2f0004aab9000402780004024300e2
:10258c0024079800654580002e02900004824200ca
:10259c006445880065458000047c2000848f5200cf
:1025ac0002003400047c20006445880065458000ee
:1025bc0004842f00848f520002003d0004842f00fd
:1025cc00644588006e029000744588006445800064
:1025dc0046a2de00340798003e029000e00f520045
:1025ec0005003d00050620003e02900004825200ca
:1025fc0064448800030037003e0290000404b000dd
:10260c00644488006e02900004f0a7000402ea0003
:10261c0044079800ce029000b4042000848f52002e
:10262c00030034000002eb007444880022003700e1
:10263c00051920005e0290000482520014079800d5
:10264c001e029000e00f520002003d000002eb0061
:10265c00140798001e0290000482d1001407980001
:10266c00a50520004e029000848252001e029000ac
:10267c0004aab90004027800040f78001e02780046
:10268c0047a2de00040f78001e027800e00f520013
:10269c0002003d000002eb00040f78001e027800df
:1026ac00ff0f520002003400f4012000040f7800e8
:1026bc001e027800744488000080fa0000000600b6
:1026cc000e00fa0050079800610798006e02900007
:1026dc004623dd007545800014fc2f0004aab900c8
:1026ec00040278000402430034079800654580001a
:1026fc003e029000048242006445880065458000db
:10270c00047c2000848f520002003400047c2000e2
:10271c00644588006545800004842f00848f520036
:10272c0002003d0004842f00644588006e02900076
:10273c00744588006e02900004f0a7000402ea00c1
:10274c0044079800051920005e0290000482520094
:10275c00240798002e029000e00f520002003d006a
:10276c000002eb00240798002e0290000482d10096
:10277c0024079800544580006123b8000082eb00c8
:10278c008082eb000602420087824a00460020004d
:10279c0007002000860f5200878f5a0047003e002a
:1027ac000460010037003700210037001a003700a1
:1027bc000d003700000037000002eb0014079800f2
:1027cc004e029000fd0f520003003c000002eb0093
:1027dc00040f7800390037006445800046a2de0003
:1027ec00040f7800350037000002eb001407980046
:1027fc004e029000ee0f520003003c000002eb0072
:10280c00040f78002d0037006445800046a2de00de
:10281c00040f7800290037000002eb001407980021
:10282c006445800046a2de00040f780023003700c8
:10283c00ae02900014032000848f520003003c0071
:10284c000002eb00140798000a003700a5052000d1
:10285c004e029000848252002e02900004aab9000d
:10286c0004027800140798001e02900047a2de00b4
:10287c00140798006445800046a2de00040f78001f
:10288c000e003700a50520004e02900084825200f5
:10289c002e02900004aab9000402780014079800d4
:1028ac001e02900047a2de001407980064458000c9
:1028bc0046a2de00040f7800000000001e02780023
:1028cc00e00f520004003d00040620001e025200de
:1028dc006444880003003700050420001e82420077
:1028ec00644488001e027800e00f520002003a0097
:1028fc000002eb00644488001e029000e00f5200be
:10290c0002003d000002eb00140798001e0290002c
:10291c00ff0f520002003400f4012000140798004d
:10292c00ce029000b4042000848f520002003400c8
:10293c000002eb00140798001e02900074448800fb
:10294c000080fa00000006000800fa00300798002a
:10295c0064c6b300244798003e02900004427800fd
:10296c000443b0003447980024c7b3004447980090
:10297c000002eb00040f78000c0037000000000090
:10298c00951180000420200004826200e00f5200a8
:10299c00fbff3a000e82e8001e024200144278004f
:1029ac000482fb00a41188001e0fe8001e027800b0
:1029bc00e20f5200f1ff34000080fa000000060024
:1029cc00849fbe00869fbe003400f80004002000e7
:1029dc00a40188000000fa00244680000402e800ec
:1029ec002446880025468000843e2000848f5200b7
:1029fc0002003600843e20002446880024458000d6
:102a0c00e00f5200ca00320004458000050020008f
:102a1c003600200007002000860f5200878f5a00d6
:102a2c007a013e00046001000300370019003700f2
:102a3c008b003700a9003700d44480000402e80062
:102a4c00d4448800ccc2a800cd22a800cc42a80057
:102a5c00cc62a800d5448000040f2000848f520063
:102a6c0009003a000002eb00d44488000002eb009d
:102a7c00b413880014002000044588000002eb0009
:102a8c00244688006a013700d4448000b4138800bf
:102a9c0067013700ccc2a900cd22a900cc42a90005
:102aac00cc62a9000002eb00b4138800d44480006f
:102abc000402e800d4448800d5448000340b200084
:102acc00848f5200060036000002eb00d4448800cc
:102adc0024002000044588000002eb0024468800f6
:102aec00541680004b22de00614262000482fb001f
:102afc0061021200c4458800541680004c22de008e
:102b0c00614262000482fb0061021200d44588001d
:102b1c00541680004d22de00614262000482fb00ec
:102b2c0061021200e4458800541680004e22de003b
:102b3c00614262000482fb0061021200f4458800cd
:102b4c00c5458000d445800084827200e445800035
:102b5c0084827200f445800004827200044688006e
:102b6c0014468000e10f520022003a000446800017
:102b7c00e00f52001f003a002446800034468800c3
:102b8c000002eb0024468800854580000489200063
:102b9c00050a7800954580000489200015029800ec
:102bac00a54580000489200025029800b5458000c9
:102bbc0004892000350298000002eb00844588004f
:102bcc000002eb00944588000002eb00a44588004d
:102bdc000002eb00b4458800354680001404200048
:102bec00848f52001b00360014002000c44488005f
:102bfc0018003700c4458000e00f5200030032007b
:102c0c00844580000402e80084458800d445800097
:102c1c00e00f520003003200944580000402e800eb
:102c2c0094458800e4458000e00f52000300320018
:102c3c00a44580000402e800a4458800f445800007
:102c4c00e00f520003003200b44580000402e8009b
:102c5c00b44588000446800014468800f400370010
:102c6c00d44480000402e800d4448800d544800099
:102c7c00b4032000848f5200060036000002eb00e3
:102c8c00d444880034002000044588000002eb0086
:102c9c0024468800e4448000e00f52000800320013
:102cac00ccc2a900cd22a800cc42a900cc62a900bc
:102cbc00d444800004024200b4138800dc003700c6
:102ccc00ccc2a900cd22a900cc42a900cc62a9009b
:102cdc000002eb00b4138800d5003700d444800008
:102cec000402e800d4448800ccc2a900cd22a9007b
:102cfc00cc42a900cc62a9000002eb00b4138800fe
:102d0c00d4448000f30f5200c20036000002eb00e6
:102d1c00d44488000002eb00044588000002eb005c
:102d2c00244688000002eb00e4448800c000370011
:102d3c00f44480000500200036002000070020002d
:102d4c00860f5200878f5a00b9003e0004600100c4
:102d5c0003003700760037008800370098003700f2
:102d6c00ccc2a900cd22a900cc42a900cc62a900fa
:102d7c000002eb00b4138800541680004b22de00d6
:102d8c00614262000482fb0061021200c4458800ab
:102d9c00541680004c22de00614262000482fb006b
:102dac0061021200d4458800541680004d22de00ca
:102dbc00614262000482fb0061021200e44588005b
:102dcc00541680004e22de00614262000482fb0039
:102ddc0061021200f4458800c5458000d44580008e
:102dec0084827200e445800084827200f445800085
:102dfc00048272000446880014468000e10f5200e1
:102e0c0025003a0004468000e00f520022003a00f0
:102e1c0024468000344688000002eb0024468800db
:102e2c008545800004892000050a780095458000be
:102e3c000489200015029800a54580000489200013
:102e4c0025029800b54580000489200035029800c1
:102e5c000002eb00844588000002eb0094458800da
:102e6c000002eb00a44588000002eb00b44588008a
:102e7c0014002000c4448800e4448000e00f520099
:102e8c001d0032000002eb00e44488001400200016
:102e9c00f444880018003700c4458000e00f52004d
:102eac0003003200844580000402e8008445880059
:102ebc00d4458000e00f520003003200944580009e
:102ecc000402e80094458800e4458000e00f5200bd
:102edc0003003200a44580000402e800a4458800e9
:102eec00f4458000e00f520003003200b44580002e
:102efc000402e800b445880025468000843e20008a
:102f0c00848f520007003a00e4448000e10f520025
:102f1c0004003a000002eb00e44488001400200096
:102f2c00f4448800044680001446880040003700b2
:102f3c00ccc2a900cd22a800cc42a900cc62a90029
:102f4c00d44480000402e800d4448800d4448000b7
:102f5c0004024200b4138800d5448000b40320005e
:102f6c00848f52002d0036000002eb00d444880000
:102f7c0024002000f44488002d003700ccc2a900a6
:102f8c00cd22a900cc42a900cc62a9000002eb0022
:102f9c00b4138800d44480000402e800d4448800b0
:102fac00d4448000e90f52001e0036000002eb00f2
:102fbc00d444880034002000f44488001c003700fe
:102fcc00ccc2a900cd22a800cc42a900cc62a90099
:102fdc00d44480000402e800d4448800d444800027
:102fec0004024200b4138800d5448000b4032000ce
:102ffc00848f52000d0036000002eb00d444880090
:10300c000002eb00f44488000900370000000000c7
:10301c00070037000000000005003700000000002a
:10302c000300370000000000010037000000000022
:10303c0084e0a9000080fa003400f9004f03be00c0
:10304c004f02be00004006000600fa000002eb0032
:10305c00143a8800143a800004c0a00004d0a100e7
:10306c0004e0a100143a88000002eb00243a880026
:10307c0000000000153a8000040220000482620067
:10308c00e00f5200fbff3200a9fa07009ffa07007d
:10309c007bfa07002c010700c0fa0700ca82a800bf
:1030ac00a202200061c62800008020001df5070048
:1030bc000080200022f507000002780084007800d0
:1030cc00008020009c010700090037000000000070
:1030dc00070037000000000005003700000000006a
:1030ec000300370000000000010037000000000062
:1030fc00b6fa070024458000e00f52003000320081
:10310c00c4448000e10f5200f0ff3a000002eb00d3
:10311c00c44488003546800014042000848f52007b
:10312c00ecff360035468000f4042000848f5200fa
:10313c00eaff3e00d3fb070000027800040f780082
:10314c001e00780000fe070034458000e00f52009e
:10315c00e4ff320004892000340090000489200030
:10316c00a40390000489200014039000048920001b
:10317c009402780034468000801f7800871f780006
:10318c00861f7800851f7800841f78009e1f7800aa
:10319c0004c92800841f780000802000eff4070089
:1031ac00ee87570000802000e5f40700000278004d
:1031bc0084007800008020005f010700ccff3700fe
:1031cc00c4448000e10f5200c8ff3a000002eb003b
:1031dc00c444880035468000640e2000848f520061
:1031ec002600360035468000940f2000848f520054
:1031fc0022003e00a3fb070000027800040f7800b9
:10320c001e007800d0fd070034458000e00f52000e
:10321c001a00320004892000340090000489200038
:10322c00a40390000489200014039000048920005a
:10323c009402780034468000801f7800871f780045
:10324c00861f7800851f7800841f78009e1f7800e9
:10325c0034cd2800841f780000802000bff40700c4
:10326c00ee87570000802000b5f4070000027800bc
:10327c0084007800008020002f0107003546800074
:10328c00a41e2000848f5200410036003546800079
:10329c00d41f2000848f52003d003e00e402470002
:1032ac000e82e800850078000400780098fb070087
:1032bc00ae0290001e029000850078000400780099
:1032cc00fffc070034458000e00f520004003a0078
:1032dc0044458000e00f52000100320081fc0700e1
:1032ec00444680000402e8004446880045468000bd
:1032fc0024032000848f5200250036000002eb00ce
:10330c004446880034458000e00f52002000320013
:10331c0014458000e00f52001d0032001e01900089
:10332c00ae00900004892000340090000489200035
:10333c00a403900004892000140390000489200049
:10334c009402780034468000821f7800811f780038
:10335c00801f7800871f7800861f7800851f7800f3
:10336c00841f780054d12800841f7800008020002e
:10337c007af40700f08757000080200070f40700f3
:10338c00000278008400780000802000ea0007002a
:10339c00048920008002eb00050a780004892000d3
:1033ac008002eb0015029800048920008002eb00db
:1033bc0025029800048920008002eb003502980059
:1033cc004bff37000000fa00941180000442780093
:1033dc0061426200044078000080fa0000000600a0
:1033ec000000fa00b5118000f40f20000482620086
:1033fc00040078000080fa00000006000000fa00cb
:10340c0087c0a90087e0a900940580000480a00073
:10341c000490a10004a0a0009405880094058000ed
:10342c0004c0a10004d0a10004e0a1009405880010
:10343c0097c0a80097e0a9000080fa0000000600e1
:10344c003600f800809fbe00829fbe00849fbe00a5
:10345c00869fbe000600fa00daff070000427800e3
:10346c000402fb00040f78001e027800e00f5200eb
:10347c0022003200daff070000027800244798008f
:10348c002e429000ea4f520003003a005443800051
:10349c000402e8005443880054438000ea0f5200b1
:1034ac0002003600a40020005443880034438000fe
:1034bc000402e8007f026200240798002543800084
:1034cc002e029000848f5200080032003543800099
:1034dc00c486200004824200ae429000054a780067
:1034ec002e02900034438800dbff370044438000f9
:1034fc000402e80044438800d7ff370087c0a900c6
:10350c000080fa004f03be004f02be004f01be0008
:10351c004f00be003600f900004006000000fa0023
:10352c000002eb00244388000002eb0034438800c7
:10353c000002eb00444388000002eb005443880077
:10354c000080fa00000006000000fa000002eb0008
:10355c00841188000002eb00941188000002eb003b
:10356c00c41188003342a800f4192000c41188004b
:10357c003062a80031e2a8003342a8000500070021
:10358c00e6ff070087c0a90087e0a9000080fa00c9
:10359c00000006000000fa0098ff070097c0a80082
:1035ac0087c0a9000080fa00000006000200fa00a3
:1035bc000082eb00040f7800254380003443800028
:1035cc00848f52000b00320024438000e80242003a
:1035dc004486200004824200144278000482fb00de
:1035ec00040f7800244380000402e8007f0262008c
:1035fc00244388001e027800040078000080fa0042
:10360c00000006000600fa00200798000002eb00fc
:10361c00040f78000002eb0014079800544380005c
:10362c00e00f520003003a000082eb001b00370051
:10363c0000000000ddff070000027800140798006e
:10364c001e029000e00f52000f0035001e02900089
:10365c0004427800ae029000844a78002e0290005a
:10366c000402e800240798001e0fe8001e029000d8
:10367c00ea0f5200eeff3a00544380000402e900c6
:10368c00544388000100370000000000ae02900097
:10369c000042eb00844a78001e0278000400780097
:1036ac000080fa00000006000a00fa0020079800cb
:1036bc0031079800420798000002eb00040f7800d5
:1036cc000002eb0014079800080037001e0290005f
:1036dc0004427800ae029000844a78001e0fe80085
:1036ec002e0290000402e800240798003e0290008d
:1036fc009e027800848f520006003100abff070059
:10370c0000027800140798001e029000e00f52008f
:10371c00eeff3d00454380004e029000050a780004
:10372c000002eb00444388001e027800040078007d
:10373c000080fa00000006000800fa00200798003c
:10374c00310798000002eb00040f780016003700d8
:10375c00000000009511800004202000048262000b
:10376c00e00f5200fbff3a002e0290001e024200b6
:10377c00144278000402fb00a41188001e0fe8001c
:10378c000002eb0014079800030037001e029000a3
:10379c000402e800140798009e029000743e20007a
:1037ac00848f5200f9ff34003e0290009e02780094
:1037bc00848f5200e6ff39001e0278000400780066
:0837cc000080fa000000060075
:020000040000fa
:1037d40000080000980000000000000098080000a5
:1037e400380000000200000000000000000000009b
:1037f40000000000000000000100000000000000c4
:1038040005000000000000000000000000000000af
:1038140000000000000000000000000000000000a4
:103824000000000000000000000000000000000094
:1038340000000000700900002a00000002000000df
:1038440030313200333435003637380039414200e4
:1038540043444500460030003132330034353600ed
:1038640037383900616263006465660000286e00c1
:10387400756c6c0029000000d0080000a000000056
:1038840002000000010000000000000000000a0027
:1038940000000000000000000064000000000000c0
:1038a40000000000e8030000000000000000100019
:1038b400270000000000000000a0860001000000b6
:1038c4000000000040420f000000000000008000e3
:1038d40096980000000000000000e100f5050000db
:1038e4000000000000ca9a003b0000000000000035
:1038f400e40b5400020000000000e80076481700c2
:10390400000000000010a500d4e800000000000042
:10391400a0724e0018090000000040007a10f30065
:103924005a0000000080c600a47e8d000300000041
:1039340000c16f00f2862300000000008a5d780059
:103944004563010000006400a7b3b600e00d000069
:1039540000e889000423c7008a000000c0090000b1
:1039640006000000000000009a0900002600000084
:1039740002000000c109000000c1090009000000a4
:1039840000020000c309000000c309000e02010088
:103994000000000000000000000000000602020019
:1039a400000000009a090000c6090000020000009f
:0c39b40002000000010000000000000004
:020000040000fa
:0200000401f009
:04000000ffff0000fe
:020000040000fa
:0200000401f009
:04000800ffff0000f6
:020000040000fa
:0200000401f009
:04000c0059ff000098
:020000040000fa
:0200000401f009
:040010009bff000052
:020000040000fa
:0200000401f009
:040014005fff00008a
:020000040000fa
:0200000401f009
:04001800f4ff0000f1
:020000040000fa
:0200000401f009
:04001c00ffff0000e2
:00000001FF
