:020000040000FA
:100000000807000031060000D100000011060000C2
:1000100000000000000000000000000000000000E0
:10002000000000000000000000000000B106000019
:100030000000000000000000DB000000E500000000
:10004000EF000000F9000000030100000D010000B6
:1000500017010000210100002B0100003501000004
:100060003F01000049010000530100005D01000054
:1000700067010000710100007B01000085010000A4
:100080008F01000099010000A3010000AD010000F4
:10009000B7010000C1010000CB010000D501000044
:1000A000DF010000E9010000F3010000FD01000094
:1000B00007020000110200001B02000025020000E0
:1000C0001FB5C046C04600F09FFA04B00FB41FBD74
:1000D00008205A49096809580847382057490968CB
:1000E000095808473C2055490968095808474020E5
:1000F0005249096809580847442050490968095875
:10010000084748204D490968095808474C204B4981
:10011000096809580847502048490968095808479C
:100120005420464909680958084758204349096836
:10013000095808475C204149096809580847602068
:100140003E4909680958084764203C49096809582C
:100150000847682039490968095808476C20374919
:100160000968095808477020344909680958084740
:100170007420324909680958084778202F490968CE
:10018000095808477C202D490968095808478020EC
:100190002A490968095808478420284909680958E4
:1001A0000847882025490968095808478C202349B1
:1001B00009680958084790202049096809580847E4
:1001C00094201E4909680958084798201B49096866
:1001D000095808479C201949096809580847A02070
:1001E0001649096809580847A4201449096809589C
:1001F0000847A8201149096809580847AC200F4949
:10020000096809580847B0200C4909680958084787
:10021000B4200A49096809580847B82007490968FD
:1002200009580847BC2005490968095808470000D3
:1002300003480449024A034B7047000000000020B5
:1002400008070000080700000122B14B5A6000BFF8
:10025000B04A1268002AFBD0016000BFAD4A1268A4
:10026000002AFBD00022AA4B5A6000BFA94A12689C
:10027000002AFBD07047F0B505460C46164600270D
:1002800006E028462168FFF7DFFF2D1D241D7F1C97
:10029000B742F6D3F0BD70B505460C462E460BE0CE
:1002A000304600F049F9FF2C01D8002401E0FF3C62
:1002B000013C012080023618002CF1D170BDF0B550
:1002C00005460E461746002406E0A200B158A200DB
:1002D0005019FFF7B9FF641CBC42F6D30020F0BDF3
:1002E0000120C0438C4908604010486070470146B7
:1002F000012292044868904201D90920704787483A
:100300004069401C01D10F20F8E70020F6E7FEB558
:1003100004462068002806D001282BD0022840D0AF
:10032000032855D144E0201DFFF7E1FF0546002DCD
:1003300001D02846FEBDFFF7D3FF0120C00200F028
:10034000FBF8042221467648FFF7B9FF002801D0C8
:100350000320EFE708222146714800F025F9002824
:1003600006D100216F480068FFF76EFF00F0C7F864
:100370000320DFE7A768E6686068019031463846E9
:10038000FFF789FF324638460199FFF774FFB20044
:100390003846019900F008F9002800D1CAE7032087
:1003A000C8E700F09BF960480068604908600FE00A
:1003B00060680190E668A0680090B200009901981A
:1003C00000F0F2F80746002F00D1B3E70E20B1E7A6
:1003D00000BF0020AEE770B505460C46182D04D1CD
:1003E0002068FFF794FF206002E00120206000BF3A
:1003F00000BF70BDF0B589B04848406903904848D7
:10040000806881000398081802900398000B0190FF
:100410000121090302984018401E000B009001249E
:10042000002520462946019A00F0AEF80022401E21
:100430009141079106900126002730463946009ADF
:1004400000F0A2F80022401E914105910490049B07
:10045000DB43059AD2430698184307991143079145
:1004600006902D49069808600798486009B0F0BDCD
:1004700070B52A4844692A4885684668AA0031460A
:10048000204600F091F8002801D0002070BD012026
:10049000FCE723484068002801D0012000E000204C
:1004A0000546204800680068401C01D100BFFEE7F7
:1004B0001B480068002801D000BFFEE7FFF7D8FF07
:1004C000002807D0FFF70CFF0320800200F034F86B
:1004D00000F015F8FFF78EFF002D0ED00F4846698B
:1004E0000F488468476821463046FFF7D4FE22460D
:1004F00039463046FFF7BFFE00BF00F000F8BFF3FB
:100500004F8F0B480B49C860BFF34F8F00BFFEE70A
:1005100000E5014000E4014000060040001000102A
:1005200000080000FC06000000070000000000209A
:100530000400FA0500ED00E010B5104B1A68014602
:1005400002230F4C636000BF0E4B1B68002BFBD0D7
:10055000531C02D00A4B186101E0094B996000BF9F
:10056000084B1B68002BFBD00023054C636000BFC9
:10057000044B1B68002BFBD010BD000000100010C6
:1005800000E5014000E4014010B5202A04DB0146EB
:10059000203A9140002010BD914020239C1A034630
:1005A000E3401943904010BD034610B50B439B0731
:1005B0000FD1042A0DD308C810C9121FA342F8D0C6
:1005C00018BA21BA884201D9012010BD0020C043C9
:1005D00010BD002A03D0D30703D0521C07E000202F
:1005E00010BD03780C78401C491C1B1B07D10378F5
:1005F0000C78401C491C1B1B01D1921EF1D11846DE
:1006000010BD70477047704710B500F007F810BD77
:10061000014B1B68DB6818470000002019481A4985
:100620007047FFF7FBFFFFF74BFD00BD20BFFDE765
:10063000164B1B681649994207D1164B164A136090
:10064000186813498842F1D00FE0144C246810490F
:100650008C4204D0124880F30888124B18470E4A87
:10066000136018680A498842E0D080F308880E4970
:10067000884204DD0D48026802210A4302605B687B
:1006800018470000080700000807000014100010B9
:10069000FFFFFFFF0010000000000020000C000022
:1006A00000040020930400000020002024050040E6
:1006B0000D48704502D1EFF3098101E0EFF30881A5
:1006C000886902380078182802D1C046074A1047C6
:1006D000074A12682C3212681047000000B5054B1B
:1006E000054A9B58984700BDFDFFFFFFD703000058
:1006F000000000200010000004000000000C0000BA
:0407000000100000E5
:10100000D826002089700100C1210000EF6F010087
:1010100000000000000000000000000000000000D0
:10102000000000000000000000000000F970010056
:101030000000000000000000C1210000C1210000EC
:10104000657101006B710100C1210000C121000028
:10105000C1210000C1210000C1210000C121000008
:1010600071710100C1210000C121000077710100F0
:10107000C12100007D7101008371010089710100AF
:10108000C1210000C1210000C1210000C1210000D8
:10109000C1210000C1210000C1210000C1210000C8
:1010A0008F71010095710100C1210000C121000074
:1010B000C1210000C1210000C1210000C1210000A8
:1010C00000F002F815F0C1FF0CA030C80838241851
:1010D0002D18A246671EAB4654465D46AC4201D170
:1010E00015F0B3FF7E460F3E0FCCB64601263342C5
:1010F00000D0FB1AA246AB4633431847E461010017
:1011000014620100103A02D378C878C1FAD85207A5
:1011100001D330C830C101D504680C6070470000AD
:101120000023002400250026103A01D378C1FBD803
:10113000520700D330C100D50B6070471FB5C046C1
:10114000C04615F041FF04B00FB41FBDF0B44046D7
:10115000494652465B460FB402A0013001B506482D
:10116000004700BF01BC86460FBC804689469246B8
:101170009B46F0BC70470000C11000008269024924
:101180008161024810447047911100000100000085
:1011900001B41EB400B50DF0ABFA01B40198864657
:1011A00001BC01B01EBD0000401E00BF00BF00BF5B
:1011B00000BF00BF00BF00BF00BF00BF00BF00BF37
:1011C00000BFF1D17047000070B505460C461646C9
:1011D00002E00FCC0FC5103E102EFAD2082E02D31B
:1011E00003CC03C5083E042E07D301CC01C5361F2E
:1011F00003E021782970641C6D1C761EF9D270BD45
:101200008307FF22DB0E9A408907090E99400028C8
:101210000BDA0007000F0838830828489B001B18CA
:10122000D86990430843D8617047830824489B00DD
:101230001B181868904308431860704710B504469F
:1012400000210120FFF7DCFF00211820FFF7D8FF65
:1012500000210B20FFF7D4FF02211920FFF7D0FF58
:1012600002210D20FFF7CCFF02210E20FFF7C8FF5F
:1012700002210F20FFF7C4FF0221C81FFFF7C0FFA4
:1012800003211620FFF7BCFF03211520FFF7B8FF4D
:10129000204600F019F8002010BD58210180704749
:1012A00010B500F03CF810BD0648704710B500F0CE
:1012B00037F810BD704770477047000000ED00E040
:1012C00000E400E003F900C330B5044695B02F48B0
:1012D00000F0A8FF2E4D07202870A81CFFF7DDFFA7
:1012E0005920A880294800F09DFF054600F052F8DB
:1012F0002946274801F0BCFE641E072C0AD830217D
:1013000068460170847003F0CFF9002802D009A864
:1013100002F048F9284600F0DCFA15B030BD7047FD
:1013200010B50C46014660390B2903D8214600F060
:10133000F9FE06E001466C39032904D8214600F085
:101340002FFF206010BD014670391F2903D82146A8
:1013500000F063F9F5E7014690390F2903D82146DB
:1013600000F006F9EDE70146A0390F2903D8214620
:1013700000F092F8E5E70146B0390F2903D821467D
:1013800000F0E5F9DDE70120DBE70000831C000049
:101390001800002010B503F058FC0CF0C3FF00F05B
:1013A00007F80DF011F901F04DFC01F0D9FB10BD6B
:1013B00001202A49C003086029490020087009203B
:1013C0002849800288607047F8B5254D0446287882
:1013D000A04207D0002C05D0002803D022A14D2028
:1013E00015F0FFFD2878A04212D02C7009250023AB
:1013F0002249AD021B48002C25D0214E214A224F04
:10140000012C06D0022C12D017A16E2015F0E9FD98
:10141000F8BD0B6002230B604E6185601B491162B1
:101420005762091D91631A49D1634560F8BD0B608D
:1014300003230B604E61012149038160154B9363C7
:10144000D7634160F8BD0B600B608560F8BD10B5D7
:1014500005A1772015F0C5FD10BD000080E100E07A
:101460001E00002000F501407372635C68616C5FD0
:1014700063636D5F6161722E6300000000F50040E0
:101480002001002040F5014000F000400011004024
:1014900004F000402811004010B5A038030015F0FA
:1014A000C7FE0B070E172028323C434D545D6500E4
:1014B0004B6808788A68194605F003FC10BD8888D7
:1014C0008A6883B20888194680B205F009FC10BD0D
:1014D00008884C68CB688A6880B2214605F004FC15
:1014E00010BD08884B688A6880B2194605F018FC60
:1014F00010BD8888CB6884B208888A6880B221468B
:1015000005F023FC10BD8888CB6884B208888A68FF
:1015100080B2214605F029FC10BD08884A6880B2D7
:10152000114605F04AFC10BD088982B2888883B252
:101530000888194680B205F04BFC10BD08884A683F
:1015400080B2114605F064FC10BD08894B6882B278
:101550000888194680B205F0CAFC10BD08884B689F
:101560008A6880B2194605F0DAFD10BD012010BD71
:1015700010B59038030015F05BFE09060F161D2408
:101580002C363F464E0088888A6883B20888194600
:1015900080B206F01EFA10BD08884A6880B2114673
:1015A00006F094FA10BD08884A6880B2114606F029
:1015B000E2FA10BD08884A6880B2114606F02FFB97
:1015C00010BD08884B688A6880B2194606F077FB20
:1015D00010BD088982B2888883B20888194680B213
:1015E00006F0C3FB10BD08894B6882B20888194613
:1015F00080B206F010FC10BD08884A6880B211461F
:1016000006F057FC10BD888882B20888114680B267
:1016100006F010FD10BD012010BD10B5703803009C
:1016200015F006FE1A0E12161616181F262B303449
:10163000383C43484F58606871787D828689909322
:10164000086809F04BFF10BD086809F07DFF10BD68
:10165000062010BD08884A6880B211460AF058F981
:1016600010BD0A790888114680B20AF0E6F910BD6B
:10167000087840B20AF007FA10BD088880B20AF074
:101680001BFA10BD08680AF029FA10BD086801F0BD
:1016900020FC10BD086801F01EFC10BD088982B254
:1016A00009C919460AF035FA10BD05C911460AF0F4
:1016B0007FFA10BD08884A6880B211460BF089FA9B
:1016C00010BD0C790888CB688A6880B221460BF07F
:1016D0006CFB10BD0B7908888A6880B219460BF044
:1016E00026FD10BD08884B688A6880B219460BF049
:1016F00091FD10BD08884C68CB688A6880B221468D
:101700000BF0F3FD10BD08884A6880B211460BF05B
:1017100036FE10BD088880B20AF06EFA10BD088847
:1017200080B20AF095FA10BD08680AF0BBFA10BD45
:1017300009F0F0FC10BD4B688A68086819460AF089
:101740001BFB10BD09F0CFFC10BD012010BD10B572
:10175000B02805D0B12808D0B2280BD0012010BD88
:10176000088880B20CF028FA10BD088880B20CF00E
:1017700042FA10BD08884B688A6880B219460CF09E
:101780004BFA10BDF0B5FA48FA494088FA4F95B0C7
:10179000884207D07879002802D0002015B0F0BD2B
:1017A0001120FBE73B2008A9087369460BA801F04C
:1017B000DAFB002803D0F1A19D2015F012FCF34EB6
:1017C00000246D4630E028191490807DC10706D0B2
:1017D000400704D460004019C0880CF049F97879BA
:1017E00000281FD01498807D80071BD56000401909
:1017F000C088002206210CF058F9002812D03C21A4
:1018000008A8017360004019C1886846C18569460F
:101810000BA801F0A8FB06000AD0D8A1B12015F052
:10182000E0FB05E0641CE4B268460079A042CAD837
:101830003046B3E770B50E4600211C4619801546A8
:10184000030015F0F5FC0723050B1711231D2300DA
:101850002246294630460BF0C5FF70BD2246294678
:10186000304609F0D0FA70BD22462946304604F0D1
:10187000AAFA70BD22462946304605F036FF70BDF3
:1018800022462946304600F00FFC70BDFF20BBA168
:10189000053015F0A6FB032070BD10B5030015F050
:1018A000C7FC090609060C0C0F0F0606120009F00A
:1018B00075FC10BD0BF078FF10BD01F045FA10BDAE
:1018C00008F0C8FD10BDFF20ACA1F73015F089FB72
:1018D00010BD3EB5AE4AA64C516892680091019287
:1018E000032149026A461181AA4A20701046132337
:1018F000092124380CF0DCFF0025A7480CF0F6FF86
:101900006D1CEDB2092DF8D30823012202A9A348CA
:101910000CF041FA002804D0FF2098A1233015F0E4
:1019200060FB072008229E49000207F0CAF8002841
:1019300004D0FF2091A1263015F053FB00211E2278
:10194000084606F087FC09F0A5FD022224219548EF
:1019500001F0C3FA934801222C214C3001F0BDFA6A
:1019600090490B20B03901F0F9F9002804D0FF208C
:1019700082A1373015F035FB0BF0E5FE04F079FB62
:101980006B460022082188A009F0C9FC002804D079
:10199000FF207AA13D3015F024FB012004F08CFEDD
:1019A000002804D0FF2075A13F3015F01AFB6D21EF
:1019B000C900714815F00AFA6F49754A0020135C96
:1019C0000D18401CC0B2EB700428F8D300206060F2
:1019D0006070401E60803EBD70B5764E0546706AF0
:1019E00094B00C46401C04D1B06AC0430004000C03
:1019F0000BD0306AC007C00F2870706A15F0E8F984
:101A0000B06A2071000A607114E02B2069460870EA
:101A100009A9684601F0A7FA002804D0FF2057A1C1
:101A2000633015F0DEFA0120287006220AA920464C
:101A300015F06DF92878002816D06079C021084388
:101A4000607117206946087000A8062221460230FE
:101A500015F05DF909A9684601F085FA002817D04C
:101A6000FF2046A1783011E032206946087000A8B6
:101A700006222146023015F04AF909A9684601F00C
:101A800072FA002804D0FF203CA1843015F0A9FA96
:101A900014B070BDF0B5474C0646206895B00D46B1
:101AA0003746401C0837002808D16068401C05D123
:101AB000A068401C02D1E068401C11D0206831466B
:101AC00015F086F96068311D15F082F9A068394675
:101AD00015F07EF9E06831460C3115F079F925E012
:101AE0002B206946087009A9684601F03CFA0028D5
:101AF00004D0FF2021A1A33015F073FA08220AA90F
:101B0000304615F004F92B206946087009A968468B
:101B100001F029FA002804D0FF2018A1AA3015F0FE
:101B200060FA08220AA9384615F0F1F820692E4615
:101B3000401C0836002808D16069401C05D1A06906
:101B4000401C02D1E069401C36D02069294615F0BE
:101B50003FF96069291D15F03BF9A069314615F080
:101B600037F9E06929460C3115F032F916E6000024
:101B700020000020FFFF0000A00F00207372635CB4
:101B8000686F73745F636F72652E630003300000CB
:101B90004C720100700100209B180000A009002079
:101BA000A0020020B81300206E5246353138323280
:101BB00000000000800000102B246846047009A972
:101BC00001F0D1F9002804D0FF20F749C83015F002
:101BD00008FA082209AF0AA9284615F098F86846BD
:101BE000047009A901F0BFF9002804D0FF20EE49D4
:101BF000CF3015F0F6F90822391D304615F087F878
:101C0000CCE510B5E94CA078092803D3E649E848AB
:101C100015F0E7F9207860214843001908300021C9
:101C200001704178E722C908C900C91C1140417000
:101C3000E04A0121517010BD70B5DE4C607800287B
:101C40000ED0DA4800250178491CC9B20170092973
:101C500000D105708178491C81700CF0CAFF657055
:101C600070BD70B5D34C05466068002804D0D048DC
:101C7000CD49293015F0B5F9656070BDCD49488072
:101C8000704770B5CB4DC94EFFF7BBFF696804467E
:101C9000002907D06022FFF797FAFFF7CDFF002059
:101CA0006860F1E73079002857D0C34801F025F982
:101CB0006060002804D1BE48BB494C3015F091F952
:101CC000606801F078F9002810D0204608F035FF50
:101CD0006078010707D5C008C000401C60703079EB
:101CE000401E30712BE0B44861682EE0B248616854
:101CF00001F00CF9FFF746FD00282ED1AE484C3814
:101D000001F0FBF86060002804D19D20A649800006
:101D100015F067F9606801F052F9002818D0606882
:101D20000088608020460BF090FD6078010709D59F
:101D3000C008C000801C60707079401E7071FFF791
:101D40007BFFA1E79C4861684C3801F0DFF89BE716
:101D5000994861684C3801F0D9F870BD0146964841
:101D600010B54C3801F0D2F890494879401CC0B207
:101D70004871012803D18F48007800F077FA10BD30
:101D800070B504468D4816460D46814204D18848F8
:101D900085499E3015F025F9012E05D084488249E9
:101DA000AD3015F01EF970BD662020700020207245
:101DB000A5810120A07370BD70B516460D460400C4
:101DC00001D1FFF71EFF6621017001210172296810
:101DD0000161A98881820673002C01D1FFF72CFFD5
:101DE00070BD07214907012241189203914201D396
:101DF000102070470121017000207047F8B505469A
:101E0000072040070F460A18012189038A4209D298
:101E1000002D02D02818884204D2E81C80088000D7
:101E2000A84201D01020F8BD60488178002911D067
:101E3000398800914178602251430C180834207889
:101E40003B460007000F00222146FFF7F3FC060087
:101E500004D015E0002038800520F8BD002D13D0F7
:101E600039880098814201D90C260DE020783B4644
:101E70000007000F2A462146FFF7DCFC060005D0CC
:101E80000C2E01D0002038803046F8BD474D6878D0
:101E9000401CC0B26870092801D100206870A87881
:101EA000401EA87061784807400F022810D0012812
:101EB000EAD14148616801F029F82879401CC0B294
:101EC00028710128E0D13B48007800F0CFF9DBE72A
:101ED000C806D9D46068FFF741FFD5E7384A10B586
:101EE00090420ED301239B04C21A364B9A4208D368
:101EF000354B984205D2072252078A18DB139A42C3
:101F000001D3102010BD00F062FF10BD2C4B10B5A6
:101F100099420ED301239B042A4CCB1AA34208D327
:101F2000294B994205D2E3020124D318A403A3420A
:101F300001D3102010BD022803D0102801D00920A1
:101F400010BD00F06AFF0028FAD0052010BD70B562
:101F50001B4B984212D301239B041A4CC31AA34271
:101F60000CD3194B984209D2E4020D19DB139D42A0
:101F700004D2002A04D014199C4201D3102070BD51
:101F800000F071FF0028FAD0072070BD10B504469C
:101F90000720400701212018890394B0884215D3F7
:101FA000102014B010BD00007C1B0000A00F00200A
:101FB000050200002000002004140020FFFF0000A4
:101FC000008001000000FC1F004000200F2008A935
:101FD000087369460BA800F0C6FF0028E1D16846E7
:101FE000007A207068464089608068468089A080B9
:101FF0000020D6E700B595B0002802D0072015B024
:1020000000BD3821684601700021817009A900F0E7
:10201000AAFF002803D03E493E4814F0E2FF00200A
:10202000EDE710B500290FD00722520701238C18C5
:102030009B039C4203D20C68A2189A4201D3102041
:10204000B0E78A88002A02D004F05FF8AAE70920E6
:10205000A8E7314A10B5914208D3012292042F4BD0
:102060008A1A9A4202D32E4A914201D3102099E74C
:102070000246203A1F2A02D809F0B9F992E7072050
:1020800090E707225207012310B58A189B039A4252
:1020900001D3102086E70246203A1F2A02D809F011
:1020A000D3F97FE707207DE7F7B5054600780027DD
:1020B00000090C463E46062803D01549BD2014F001
:1020C00090FF287A00280DD0012813D01049DE2077
:1020D00014F087FF0298002C068001D027806680CC
:1020E0000020FEBD02270926002C0ED0A889A08062
:1020F000A87B08E003271426002C06D02869E0609E
:10210000A88A2082287B2072E4E702980680E7E70D
:102110007C1B000091030000008001000000FC1FF8
:102120000040002010B56038030015F081F8090662
:102130000B0F141B22262D32370005C91146FFF75D
:102140005DFE10BD0868FFF74CFE10BD05C91146C5
:10215000FFF7C4FE10BD4B6808788A681946FFF780
:10216000D5FE10BD4B688A6808681946FFF7EFFE78
:1021700010BD0868FFF70AFF10BD08884A6880B2E2
:102180001146FFF74EFF10BD05C91146FFF761FF6D
:1021900010BD05C91146FFF774FF10BD012010BD29
:1021A00010B56C2801D0012010BD0878FFF722FF80
:1021B00010BD00000E4A12680C498A420AD1184725
:1021C0000B4A1268094B9A4204D101B50CF087FA08
:1021D00003BC8E460749096809580847064807495D
:1021E000054A064B7047000000000000BEBAFECA58
:1021F0006C00002004000020D8260020D8260020F3
:1022000001203F49400608603E4908603E490A688F
:10221000FF231B029A4383121A430A60384980390C
:102220000860704710B502460420384904E0C30036
:102230005B181B79002B0AD00346401EC0B2002B4E
:10224000F5D133A1432014F0CCFEFF2010BDC30014
:10225000CA50002259184A718A7101220A7110BDB0
:102260002A4A0021C00080180171704710B5044649
:10227000042803D326A1522014F0B3FE2348E10022
:102280000C182079012803D021A1532014F0A9FEB5
:102290006079A179401CC0B2814200D060710120F8
:1022A000174940068031086010BD70B516480068B7
:1022B0000004800F022803D015A1692014F091FEBC
:1022C000124E194C03252078C10088190279012A81
:1022D00007D1427983799A4203D04279827170584A
:1022E00080472078401CC0B22070042801D3002011
:1022F000207028466D1EEDB20028E4D170BD0000AC
:1023000080E100E080E200E018E400E03414002006
:102310007372635C736F635F7369676E616C6C6922
:102320006E672E63000000002800002010B5EFF358
:102330001080C407E40F72B6D6484178491C41703A
:102340004078012801D10CF079FC002C00D162B654
:1023500010BD70B5CF4CE07800280AD10125E5709A
:10236000FFF7E4FF0CF072FC002804D000200CF012
:1023700045FC002070BDC84865714560F9E770B53F
:10238000EFF31080C507ED0F72B6C24C60780028DD
:1023900003D1C2A18F2014F024FE6078401E60702B
:1023A0006078002801D10CF04DFC002D00D162B600
:1023B00070BD10B5B748C178002904D00021417123
:1023C000C170FFF7DCFF002010BD10B504460CF013
:1023D0003DFCB049C978084000D0012020600020B1
:1023E00010BDF8B50246AB4C0026A67108200421AA
:1023F00001251027130014F01BFF0D080A0C0E1006
:102400001214161E262123252800257122E0022001
:1024100001E021711EE020711CE027711AE02020EC
:10242000F9E7012616E0FFF781FF0CF00FFC00280A
:10243000FBD002260EE02171A5710BE02771FBE7AE
:10244000202000E040202071F6E7FF2093A17E309D
:1024500014F0C7FD0CF006FC002809D00CF008FCB5
:10246000B04205D130460CF006FC0028FAD024E03A
:1024700001208007C5608D4A002151608C4A966119
:10248000854B02225A6085608A4803690569DB43EF
:10249000DB06DB175B1C10273D430561834D00E025
:1024A00020BF6F68002FFBD0002B03D107691023DA
:1024B0009F430761784882606960A07900280CD04A
:1024C0000CF0C4FB05460CF021FB7B4A002D02D02A
:1024D000A260E06001E0E260A060002E01D100F0A7
:1024E000B1F8F8BD10B504460CF0B6FB002805D0D5
:1024F00068490120C8704A78521C4A702046FFF78C
:1025000070FF10BDF8B5694FB8680025012802D1E9
:10251000BD600CF073FB7868012800D17D603868DD
:1025200001265C4C012814D13D606079002803D05D
:1025300000200CF063FB65712078002809D00CF0B6
:1025400085FB002805D05948C0388663000606611F
:10255000A670386901282CD13D6100F068F801208F
:1025600080074661A079002815D00CF06FFB009021
:102570000CF0CCFA0099002901D0E16800E0A168D4
:10258000411A022901DA8A1C13DC0099002901D0C2
:10259000E06000E0A060FFF7C9FE0CF057FB0028E8
:1025A00006D04248C038866300060661A67000E087
:1025B0002670F868012819D100F039F800F037F8D2
:1025C00000F035F8A078002804D1FF2033A10530B1
:1025D00014F007FDFD60A5702570FFF7D0FE0BF02D
:1025E0000CFE002802D03148C038C663F8BD10B5D3
:1025F000284CE078002801D10CF024FB0120810751
:10260000886100F014F8A07800280BD0274CE0680F
:10261000002803D10CF02FFB0028F8D10020E06047
:1026200000F005F800201C49C043886010BD08B5C3
:102630005020694608806A461088411E1180002893
:10264000F9D108BDF8B5144819278760174900204B
:102650000860C8600CF0FAFABD0701240D4E00288E
:1026600005D01248C03884632C61B47000E0347027
:10267000FFF75CFE084847600D4930798863FFF733
:10268000D6FFAC61FFF7D3FF0849002008616C61F9
:10269000F8BD00002C000020000300407372635C52
:1026A000736F635F636C6F636B2E630000010040A8
:1026B0000005004000ED00E0FFFFFF7F8107C90E2D
:1026C000002808DA0007000F083880082C4A80002C
:1026D0008018C06904E080082A4A800080180068D9
:1026E000C8400006800F704710B50D20FFF7E6FFC9
:1026F000C4B20420C043FFF7E1FFC0B2844203D05C
:1027000021A11A2014F06DFC10BD0121234A4803B9
:102710001060234B00221A60224A5160224A106046
:10272000224A11601D4980390860704701211B4A07
:10273000480310601D4A5160194A002111601A496E
:102740000860704710B516490868012804D00EA12A
:10275000562014F046FC10BD154880680022C0B217
:102760000A600BF0A1FE10BD10B50D4801680029EC
:10277000FCD0FFF7E7FF01200B494003086010BDC4
:1027800000ED00E000E400E07372635C736F635F70
:1027900068616C5F726E672E6300000080E100E08C
:1027A00000D1004000D3004080E200E000D00040B3
:1027B00000D5004030B40121BC48C9020160CD10F1
:1027C00005604A030260BA4803681B021B0A0360E3
:1027D00004680023240A24020460B6480468240A1A
:1027E00024020460B448012444608460B34C236034
:1027F0006360A360B24B19601D601A60B14B196031
:102800001A600121016030BC704710B40121A74853
:10281000CC0204600A0202600B060360A648416015
:102820008160A6490020086048608860A448046070
:102830000260036010BC70470121A148C902016019
:10284000C91001607047002805D0012805D0022872
:1028500005D19D4870479D4870479D48704710B509
:102860009CA18B2014F0BDFB002010BD70B5002191
:102870009F4CA04DA04A914B002808D001281DD0A4
:10288000022822D093A1B32014F0ABFB70BD01202D
:102890000004A060A86011601960984B42109A6013
:1028A000974A9060814A00121060964801608748FC
:1028B0000160954801609548017070BD0120400499
:1028C000A060A8605160596070BD01208004A060C4
:1028D000A8609160996070BDF8B59446844A854DB2
:1028E00000240127754E002808D0012836D0022880
:1028F00044D078A1E82014F074FBF8BD891E0902C9
:10290000090A012000049060346068607A4A11600E
:10291000012B21D000217D4A7D4B517061463D3114
:10292000DC63DF637B4B5C6002249C6004241C61DD
:10293000744B196074490F60614B89151960704BB5
:1029400058606048016075487349C16086606B4992
:10295000600348601770F8BD0121DCE701205C4E80
:1029600040046F4F012B04D13460506068603960BF
:10297000F8BD9060346068603960F8BD0120524E47
:102980008004684F012BF4D1EEE767484068704738
:1029900070B54A4D28680026554C012806D1A0681C
:1029A000C00303D501200004A0602E6068680128E0
:1029B00009D1A068800306D501204004A0606E60A4
:1029C00001200DF06CF9A868012809D1A068400326
:1029D00006D501208004A060AE6002200DF05FF9F2
:1029E00070BD10B549490878002818D00120434A25
:1029F000C0039060424A400090602C4A0012106070
:102A0000404A00201060314A10603F4A1060087050
:102A10004A78002A02D048700DF041F910BD032019
:102A2000FAE7012041490006086070470120244967
:102A300000060860704701203C4940050860704767
:102A400001201F4940050860704731490020C863D4
:102A500088151B4908607047410A354AC005C00DFA
:102A60005043801C5143400A0818704710B4314C41
:102A7000430B63431B0C5C020C602D4C6343C31A75
:102A80002D485C0258432A4B400D4343E31A01246E
:102A9000DB0324041B191B1613700A681018086046
:102AA00010BC704710B50DF0EBF910BD80E100E0EF
:102AB00008E400E018E400E000B0004040B100404D
:102AC00080E200E000E100E048B1004040810040C9
:102AD00044B100407372635C72656D5F68616C5FE6
:102AE0006576656E745F74696D65722E63000000B3
:102AF00000B3004040B3004040B5004000F5014045
:102B00000083004040850040008200403C000020DF
:102B1000C08F0040008500400080004080F50140EB
:102B200044B5004048B5004000B5004000E200E078
:102B3000093D0000378600006F0C010010B50DF054
:102B40008BF910BD00200449C86301200121814098
:102B5000024A116000BF7047C01F004080E200E0E1
:102B60002E48002101704170704770B5064614462A
:102B70000D460120FEF728FC28490120284B08704B
:102B80009E60DC601D6170BDF8B504460120FEF753
:102B90001BFC22490120087021494C602149002674
:102BA0004E600921204D8902A960204F002C0AD0D7
:102BB000012C03D01EA1402014F013FA3E6009201E
:102BC00080026860F8BD386001208002F9E710B526
:102BD0001248017800290ED00921134A8902916018
:102BE00010494A680021002A03D0154A1268427031
:102BF00000E0417001700020FEF7E6FB10BD0748C1
:102C00000178002907D007484068002802D00C4806
:102C10000068C0B270474078704700004F00002045
:102C200000F5004000F1004000F5014000F20040D6
:102C30007372635C68616C5F63636D2E6300000098
:102C400000F400403B480021017041701021817068
:102C5000704770B5064614460D460220FEF7B4FBD9
:102C600001203449344A0870E41E146196605560AE
:102C700070BD10B50220FEF7A7FB2E490120087099
:102C80002E4800210160416081602D494014486058
:102C900010BD10B527480178002917D00121284A16
:102CA0004903916025490B680022002B05D04B6831
:102CB000002B02D08968002902D04270102103E065
:102CC000012141701F490968817002700020FEF7E0
:102CD0007BFB10BD17480178002912D01748016806
:102CE00000290AD00168002905D04168002902D0D6
:102CF0008068002803D00020704702207047012020
:102D00007047407870470B48017800290FD00B4876
:102D10000168002905D04168002902D08068002898
:102D200001D01020704707480068C0B27047807813
:102D3000704700005100002000F5004000F1004005
:102D400000F5014000F4004070B50C46054605F062
:102D50001AFE2146284612F0E5FD70BD70B50D46FD
:102D6000040012D0002D10D02101284614F02CF8B8
:102D700010225449284613F0CAFF5248012108384E
:102D8000018044804560002070BD012070BD70B599
:102D90004C4E00240546083E11E0716820014018A1
:102DA000817BAA7B914209D1C17BEA7B914205D10B
:102DB0000C22294613F07EFF002806D0641C3088C0
:102DC0008442EADB0020C04370BD204670BD70B570
:102DD0000D4606000AD0002D08D03A4C083C208849
:102DE0006188401C884203D9042070BD102070BD4A
:102DF0003046FFF7CCFF002801DB0F2070BD208894
:102E00006168000140181022314613F080FF2088CD
:102E1000401C20802870002070BD70B514460D0045
:102E20001FD0002C1DD00021A170022802D0102834
:102E300017D108E0687829780002084311D00121F1
:102E4000A17010800BE02846FFF7A1FF002808DBE7
:102E5000401CA070687B297B000208432080002072
:102E600070BD012070BD70B5054614460E000AD035
:102E700000203070A878012807D004D911490839FA
:102E80000A8890420BD9012070BD002C04D028780C
:102E900020702888000A50700220087010E0002C72
:102EA0000CD049680001411810391022204613F057
:102EB0002EFF287820732888000A60731020307055
:102EC000002070BD5C0000200020704700200880BA
:102ED0007047062070470620704710B5031D036039
:102EE0000020521E04E05C181C60401C2346C0B247
:102EF0009042F8DB0020186010BD01460A680020EF
:102F0000002A02D0104612680A60704702680A6000
:102F10000160704700B51E2823D00BDC0C281CD0A4
:102F20001FDC030014F084F9090F1D111D1D171774
:102F300013151D00302814DD3A38030014F078F919
:102F4000030F11091100002000BD1F4800BD04201F
:102F500000BD0D2000BD0F2000BD082000BD1120C8
:102F600000BD032000BD10B50C4601F09DFB0028FC
:102F70001AD0204600F016FB002812D020780E2828
:102F80000BD00F2809D0022807D0032805D00FA1A5
:102F9000782014F026F8002010BDA078FFF7BAFFC3
:102FA00010BD0AA17E20F4E708A18420F1E710B546
:102FB00000F0BAF810BD10B500F0F4FA10BD10B56D
:102FC00000F02CF910BD0000013000007372635C4A
:102FD000686F73745F6863692E63000070477047A1
:102FE0007047704770477047704770477047704729
:102FF00070477047704770477047704770470000D0
:1030000010FFFFFFDBE5B151008001005800FFFF1A
:1030100003B40148019001BD0900002010B5FFA1D3
:10302000086882B0496801910090FE4900208876C6
:1030300004228A831022CA83FC4BFB4A1A80FC4B71
:103040009A80FC4AFC4B907618709073907488714B
:1030500090770872F9494877F9486946044614F0B0
:10306000E0F82146F7480FF0F7FF02B010BDD5E7B2
:1030700010B5F54C6060A1700EF007FA0DF0DEFAA5
:10308000FFF7CCFFA07811F0FDF90EF059FE606853
:103090000FF0E4FE0024E54821460471EB480EF0F1
:1030A000F1FDEB4821460477EA480EF0F4FD10BD2F
:1030B00070B582B00E461D46144601A90DF0FDFA0A
:1030C00000282ED101988030807A0EF04FFA002827
:1030D00007D068460EF05BFA002808D0002C0CD10F
:1030E00007E00520DCA1C00113F07BFF002002B047
:1030F00070BDD9A1DD4813F074FF00980DF0F6FC07
:10310000314600980DF002FDE2B2294600980DF01C
:1031100003FF0EF05FFA002803D1CFA1D44813F0CB
:1031200060FF012002B070BD30B40179002904D0E5
:10313000012909D030BC002070470488831D4288D3
:10314000204630BC0221B3E70488831D4288204614
:1031500030BC0121ACE7FFB5B44C83B00E46074646
:10316000208869460880154602A90DF0A6FA0028B5
:1031700007D068460DF0AFFA002802D0002007B053
:10318000F0BD68460088208020460DF0A4FA002893
:1031900002D00020C043208068460088388002A901
:1031A0000DF08BFA002803D0ABA1B24813F019FF41
:1031B00002988030807A0EF0F4FB002803D1A6A19B
:1031C000AD4813F00EFF01A80EF0FCFB0028D6D08E
:1031D00001980DF0D3FC3070022808D0012806D0E9
:1031E0009DA1A64813F0FDFE002007B0F0BD069992
:1031F00001980DF0A8FE2880002804D15B2096A13C
:10320000C00013F0EEFE0EF000FC002803D192A1E6
:103210009B4813F0E6FE012007B0F0BD10B584B066
:103220000446831D02AA694601A8FFF794FF0028FF
:1032300013D068468088208068460089608000201E
:10324000607168460078012809D0022807D0FF2065
:1032500081A12F3013F0C5FE012004B010BD2071F4
:10326000FAE7F0B58BB0050004D1FF207AA1CC308D
:1032700013F0B7FE6F4C0027A07E00280AD06F70B5
:1032800010202870E07EA870207FE870A7760120CB
:103290000BB0F0BD68480078002809D0664C2C229D
:1032A000A11C284613F033FD0E20287027700BE078
:1032B000A07B00280BD00120E870E07BA870207C68
:1032C00068700F202870A77301200BB0F0BD6D4807
:1032D00009900DF000FA0146A81C524E01900029F9
:1032E0007ED15348079080880890079804A9808869
:1032F00003906846077503980DF0DFF9002803D0A6
:1033000055A1614813F06DFE04983F21095C002926
:1033100042D08030017C002971D1A17C00297BD171
:10332000A17F00296ED1807A0EF03BFB002803D1EB
:1033300049A1564813F055FE0EF095FB002826D003
:10334000049805A98030807A0EF00BFA002803D18A
:1033500041A14F4813F045FE6846027D002A05D082
:1033600035480399C18602870120A07437700398FD
:103370007080049801464030007830710120A077B9
:1033800080314A6A03985188814200D117700498AD
:103390002030C07F002832D1A07C002816D10498AC
:1033A00005A98030807A0EF0DCF9002804D18F2046
:1033B00029A1000113F015FE6846017D002905D002
:1033C0001D48039AC28601870120A07404984030EA
:1033D000C17C002913D0017D890710D5317A00E026
:1033E00060E000290BD1B7720399B181417DB173BF
:1033F000C18A3182018B718201213172C774A07C34
:10340000002852D1307A002863D1A07F002860D1F3
:1034100009980DF060F93DE047E00000FFFFFFFF75
:103420001F00000094140020FFFF0000B4140020CF
:10343000741500207414002054140020541500202A
:10344000721500207115002040000020BC140020DF
:10345000D4140020F11400207372635C6C6C5F6301
:1034600074726C2E6D302E63000000008B02000021
:103470009A020000C2020000C9020000E50200003A
:10348000DE02000078150020B2080000C408000029
:10349000CB080000002805D1079881880898814250
:1034A00000D022E7A07C002813D0FE4948780528E8
:1034B0000FD2401C48706F700D20287001202075BD
:1034C0000198A18A0180E18A4180218B8180A774C3
:1034D000FAE6F4484770307A002809D06F7001206E
:1034E00028700A22F049A81C13F011FC3772EBE691
:1034F000B07900280AD06F70052028701421A81C0C
:1035000013F062FC0220A870B771DDE628460EF0C9
:10351000C3FA0028DCD128460FF02FFC0028D7D1B1
:10352000A07C002802D0DF494878C2E7A07F0028AD
:1035300000D1CAE66F700A20287001983188018096
:1035400071884180B1888180A777708806A90DF0C5
:10355000B4F8002803D0D549D54813F042FDB0781F
:103560000DF0DBFF002803D1D049D24813F039FD1C
:1035700006983F210F548030006B0178002907D056
:1035800040887188884203D1C849CB4813F029FD8F
:1035900006980DF0D3F800289AD0C449C74813F014
:1035A00020FD91E65DE610B4C54901220B78002BA1
:1035B0000AD0C4480E23847E3C21002C02D1C3765D
:1035C0000177827610BC70470388BF4803800020D3
:1035D00008714A713C20C8700A7010BC7047F0B581
:1035E000B74C0127207885B000280AD0B5480E22B4
:1035F000837E3B21002B02D1C2760177877605B00E
:10360000F0BD0020A071B04869460088888002A9FA
:103610000DF053F8002804D001A80DF05CF8002844
:1036200058D168468188254601801835684602A928
:1036300000880DF042F8002803D09C49A34813F0FD
:10364000D0FC6846008803A9C0B20EF0A0F800289C
:1036500003D196499E4813F0C4FC02983F210E5CAA
:103660008030807A0EF09DF9002803D18F49994867
:1036700013F0B7FC0EF0F7F97840314601431FD044
:103680006A461188A279FD23520012191181A2798C
:103690004000515D4908490031435155A279194014
:1036A000014351556A46107B002802D00420014393
:1036B00001E0FB200140A0794155A079401CA07198
:1036C00068460DF008F8002804D168460188808813
:1036D0008142ABD10020207167713B20E0702770E0
:1036E00005B0F0BD70B5764C01252078002809D0D2
:1036F00074480E22837E0621002B02D1C276017708
:10370000857670BD002020710E20A0700620E0702C
:10371000714813F057FDA0792843A0716571257099
:1037200070BD38B5674C0546A17B0120002908D043
:10373000A37E0F222621002B02D1E2762177A076EC
:1037400038BD1F21E17326212174A07328886946A2
:103750000CF0B3FF002814D100990022087800284B
:103760000FD13F20405C00280BD18031087C00281D
:1037700007D0087C042804D0486A0378002B06D1BF
:1037800001E0022004E0096B0978002902D03A2008
:10379000E07338BD07210170009829888030406AA5
:1037A0004180E27338BDF1B5454882B00078002809
:1037B0000BD044480E22837E2521002B03D1C276F4
:1037C00001770121817603B0F0BD02986946008837
:1037D0000CF073FF0026414C00280FD0384802211E
:1037E000017126602671C68035480E218170252121
:1037F000C17001214171017003B0F0BD009F009DB7
:103800000A3740352E773946204613F00AFD287FC7
:103810000028F7D1029801882948C180E4E710B454
:1038200027480122017800290AD020300E23847E07
:103830001946002C02D1C3760177827610BC7047FE
:10384000184B1F491C89CC805C890C819B894B815A
:103850000021017142710E21C170027010BC7047CD
:1038600070B5174C054620780121002809D015486D
:103870000E23847E3822002C02D1C3760277817613
:1038800070BD1F20207161713820E0702170287890
:10389000002827D0012825D0022823D0032821D0B2
:1038A00012201DE0400000209E140020583400002B
:1038B000470200004D020000570200005D020000B8
:1038C0005414002074140020B4140020C604000016
:1038D000CB040000D10400005A1400205C14002026
:1038E000207170BD00260EF06DFB28780FF0B1FB43
:1038F000267170BD70B5FE4C01252078002809D0D6
:10390000FC480E22837E0521002B02D1C27601776E
:10391000857670BD0DF0BAFDE0800DF020FF2072BD
:103920000020207165710520E070257070BDF0B534
:10393000EF4C07462078012583B000280AD0ED48D7
:103940000E22837E2421002B02D1C2760177857658
:1039500003B0F0BD65712420E070257038460DF08D
:1039600010FD002801D0002000E012202071002866
:10397000EED1E14E39467577E04813F029FC002777
:103980007777781E6946088068460CF0A4FE002808
:1039900018D168460688684601A900880CF08DFE9B
:1039A000002803D0D649D74813F01BFB0198A0305C
:1039B000057368460CF08FFE002803D16846008826
:1039C0008642E8D1277103B0F0BDF8B5C94C054671
:1039D000A17B0120002908D0A37E0F222321002BE8
:1039E00002D1E2762177A076F8BD1F21E173232171
:1039F0002174A0736A88C44B911F3020994253D21E
:103A0000A9888E1F9E424FD28A424DD8EA88FF2352
:103A1000F4339A4248D82A89BC4E13460A3BB34233
:103A200042D2C9088A423FD96989AA8991423BD8C2
:103A30000026288869460CF040FE0222002813D197
:103A40000099087800280FD13F20405C00280BD156
:103A50008031087C002807D0087C042804D0486AFC
:103A60000378002B06D101E0E273F8BD0B6B1B78E5
:103A7000002B01D03A2017E005238371486A0681A4
:103A80004B6AA88858814B6AE88898814B6A2889D4
:103A9000D881486A01894389994204D881790829E3
:103AA00001D8994202D31220E073F8BD29884180E1
:103AB00000988030406A0270E673F8BD38B58C4CCF
:103AC00001252078002809D08A480E22837E2221F1
:103AD000002B02D1C2760177857638BD1F20207178
:103AE00065712220E070257010F0C0FE052802D01C
:103AF0000C20207138BD00202071684610F04EFD6A
:103B00000028F7D100988030807A0DF006FD00285B
:103B100003D17B497E4813F064FA00980CF00EFE46
:103B2000002804D063207649000113F05AFA79483E
:103B3000857179488078FEF799FB38BDF0B5044669
:103B400076A1086887B049686A4D06910590A87B00
:103B50000127002809D0AA7E0F212120002A02D1A6
:103B6000E9762877AF7607B0F0BD1F20E8732120F3
:103B70002874AF7321886B4E081F3022B0423AD2AE
:103B80006088031FB34236D2884234D8E1895E4E42
:103B9000881FB0422FD2208A831FB3422BD281428A
:103BA00029D8618AFF23F433994224D8A18A361F89
:103BB0000B460A3BB3421ED2C00881421BD9E18AA0
:103BC000208B814217D8A01D12220028207905D011
:103BD000002806D0207901280DD107E000280AD05E
:103BE000F8E76079002801D0012804D1207B002863
:103BF00004D0012802D0EA7307B0F0BD10F036FE01
:103C000005280AD010F032FE042806D002A80CF0D5
:103C100030FD002805D00920C3E00C20E87307B070
:103C2000F0BD0122032102980DF06EFA02980146C0
:103C30000F3001904E8804210AF010FC31460198A3
:103C40000DF04AFB38A0029E006804901336032151
:103C500004A80AF08CFB002004A90A5C3254401C22
:103C6000C0B20328F9D32C48002601780298C17607
:103C7000218A8180618AC180A18A01810146203127
:103C80008E73CE736179002902D0012903D101E03E
:103C9000067700E00777A11D1D3013F0A4FA029803
:103CA00005A90A3013F0BDFA0298A03007736946DF
:103CB0000E71012101A80AF05AFB694608794107F3
:103CC000C206490F920F80068918C00F081869466E
:103CD0000871401D029B0928987601D20830987619
:103CE0000122002118460DF00FFA02988A301DE0DB
:103CF0005414002074140020541500207215002064
:103D000058340000670800007B0C0000770C0000AE
:103D10002C0600009414002040000020FFFFFFFF4D
:103D20001F000000FD3F0000112233000DF0B0FB2A
:103D3000002803D1F749F84813F053F9207B0028F5
:103D400006D0012807D0F349F44813F04AF93BE0C4
:103D5000F349002005E0F348807E00280DD0F249A9
:103D600001200EF009F900282ED002988030807AC8
:103D70000DF0D3FB002817D01BE002988030807A2A
:103D80000DF0CBFB002803D1E249E84813F029F9F4
:103D900002980CF0D3FC002847D01720DD498001A1
:103DA00041E0E87307B0F0BD5D20DA49000113F08F
:103DB00018F902980CF0C2FC002803D0D549DC4861
:103DC00013F00FF91F20ECE72079012801D000281B
:103DD00003D10EF0DDF800280CD1032002990EF07B
:103DE000E7F8002806D162882188029810F062FB6B
:103DF000002807D002988030807A0DF08EFB0028D2
:103E000006D009E00298A0300670EE7307B0F0BD4E
:103E1000C049C84813F0E5F802980CF08FFC002860
:103E200003D0BC49C44813F0DCF80C20B9E770B5E6
:103E3000C24C01212278002A09D0C1480E23847E79
:103E40001E22002C02D1C3760277817670BD1F221C
:103E5000227161711E22E270217002781221012A02
:103E600001D0002A04D14078002803D0012801D0D5
:103E7000217170BD00260C25012A08D010F0F6FC37
:103E800005280BD010F04EFA002809D006E0A5480E
:103E9000C18B808B10F04DFB002801D0257170BDC7
:103EA000267170BDF8B5A54D064628780121002879
:103EB00009D0A3480E23847E1D22002C02D1C37694
:103EC00002778176F8BD1F20287169711D20E87086
:103ED000297010F0CBFC0C2704285ED005285CD09C
:103EE000B0791224012801D000281ED13078002892
:103EF00001D0012819D1F079002801D0012814D16E
:103F0000718890480A1F302482420ED2B288121F54
:103F100082420AD2834800248183B188C183B17967
:103F2000012904D000290BD015E02C71F8BD807E4A
:103F3000002832D07C4901200EF01EF8044604E02F
:103F4000774900200EF018F80446002C03D0714980
:103F50007D4813F046F8F079012802D0002805D0FA
:103F600008E001200EF014F8044603E000200EF0F3
:103F70000FF80446002C01D01F2011E030780128F2
:103F800002D0002803D00AE00021022001E0002135
:103F900001200EF00DF8002801D02F71F8BD00208F
:103FA0002871F8BDF8B5664C0546A17B01200029B3
:103FB00008D0A37E0F222C21002B02D1E27621779C
:103FC000A076F8BD1F21E1732C212174A0732888ED
:103FD00069460CF072FB002816D1009A0026117871
:103FE0001046002910D13F21895C00290CD10246DE
:103FF0008032117C002907D0117C042904D0516A39
:104000000B78002B07D102E00220E073F8BD136BA0
:104010001B78002B01D03A2022E04030807E00281F
:104020001DD06B888B80AB88CB80EB880B812B8974
:104030004B81516A68898881506A29460E30102266
:104040000C3112F064FE009803218030406A017048
:10405000009829888030406A4180E673F8BD0C20C2
:10406000E073F8BD70B5354D01242878002809D0DB
:1040700033480E22837E3921002B02D1C27601778C
:10408000847670BD10F0F2FB04280ED005280CD009
:1040900000262E48314606772D480DF0FCFD2E7186
:1040A0006C713920E8702C7070BD0C202871F7E716
:1040B000F8B5224C0546207800280AD020480E2268
:1040C000837E3A21002B03D1C276017701218176CC
:1040D000F8BD10F0CBFB04283CD005283AD01B4A91
:1040E000107F082839D2000103199D3310200146A2
:1040F0006E18203E471A491EF67F0906DE55090E46
:10410000F6D1107F401CC1B2117711480DF0C3FDEC
:10411000002023E058340000AF050000C90500006E
:104120004800002094140020A8140020BC050000C2
:10413000D4050000FA050000FE050000541400201C
:1041400074140020FD3F000012040000D41400206D
:10415000F11400200C20207101E0072020710120C3
:1041600060713A21E1702070F8BD10B4FE4901225F
:104170000B78002B0AD0FD480E23847E3021002CC2
:1041800002D1C3760177827610BC7047F84B007875
:104190001870002008714A713020C8700A7010BC75
:1041A000704770B5F04C01252178002909D0EF48FF
:1041B0000E21837E3222002B02D1C17602778576D2
:1041C00070BD0146EB4813F00EF8002020716571B8
:1041D0003220E070257070BD70B5E34C0125217868
:1041E000002909D0E1480E22837E3121002B02D123
:1041F000C2760177857670BD002141560B23DB43E3
:10420000CA1A0846994219D008DC1C3216D00A2A6C
:1042100014D0142A12D0182A09D10FE0014608310F
:104220000CD004290AD0082908D00C2906D0122065
:10423000207165713120E070257070BD00F051FD76
:104240000020F5E7F8B5C94C0646A07B01250028FB
:1042500008D0A27E0F211020002A02D1E17620771B
:10426000A576F8BD1F20E07310202074A573308858
:1042700069460CF022FA002815D10099002208782E
:10428000002810D13F20405C00280CD10846803027
:10429000037C002B07D0037C042B04D0406A0378F6
:1042A000002B0AD101E0022008E0B34B1B7A002B5F
:1042B00003D14031CB7C002B02D03A20E073F8BD13
:1042C000097D890706D10621017000983188803068
:1042D000406A4180E27300984030C574F8BD10B464
:1042E000A1480122017800290AD02030847E0E23C3
:1042F0000F21002C02D1C3760177827610BC704763
:10430000002101710E2181700F21C170FF21817187
:104310000021C9430181964949680B7883728B88D3
:1043200083814988C1814271027010BC704770B5A9
:104330008D4C01252078002809D08C480E22837EE0
:104340002B21002B02D1C2760177857670BD082122
:10435000A01D0AF083F80020207165712B20E07009
:10436000257070BDF0B5804C012721788DB00029F3
:104370000AD07E480E22837E2A21002B02D1C276EB
:10438000017787760DB0F0BD10216B460A464518BF
:10439000203D561A491EED7F09069D55090EF6D19E
:1043A0001033103010210A464518203D561A491E78
:1043B000ED7F09069D55090EF6D168460AF055F9BC
:1043C000A11D102008AB02461D18203D161A401EE4
:1043D000ED7F00068D55000EF6D120710E20A070E5
:1043E0002A20E070677127700DB0F0BDF8B55F4C02
:1043F0000546A07B0127002808D0A27E0F21282097
:10440000002A02D1E1762077A776F8BDA8780026A9
:104410001A282DD011DC16283CD203007B441B79CE
:10442000DB189F4437373737372537373737373734
:10443000373737373737372525252A282AD00DDC57
:104440001E380C2826D203007B441B79DB189F44BE
:1044500021212121212121212121210F3A38042844
:1044600018D203007B441B79DB189F44130113010E
:104470002888424988420DD81F20E07328202074E4
:10448000A773288869460CF018F9002804D0022088
:10449000E073F8BD122012E00098017800290DD1D8
:1044A0003F21095C002909D18030017C002905D019
:1044B000017C042902D0017F002902D00C20E07386
:1044C000F8BDE673A97841770777F8BD70B5264C3B
:1044D00001252178002909D024480E22837E172146
:1044E000002B02D1C2760177857670BD0146244843
:1044F00012F079FE20488576002020716571172022
:10450000E070257070BDF8B5174C06461D4F207839
:104510003D7900280AD015480E22837E0B21002BFE
:1045200003D1C276017701218176F8BD3078002869
:1045300003D0012801D012204FE0082D5DD210F0E9
:1045400095F9042850D005284ED0B1797279080227
:1045500069000919104380310881B01C01460A78AE
:1045600010464A7812020FE0541400207414002000
:10457000400000204800002094140020FF0E00009E
:10458000A8140020B414002010438A78C9781204BB
:10459000104309060843717800020843A90009196D
:1045A00088663078F84E002820D0012803D0F749DB
:1045B000F74812F016FD2A4608320120B1699040F2
:1045C00001430120A8400143B1613879401CC1B2C8
:1045D0003971F0480DF056FB002020710120607108
:1045E0000B21E1702070F8BD0C20F6E72A46083256
:1045F0000120B16990408143E3E70720EDE770B502
:10460000E54D01242878002809D0E4480E22837E55
:104610000A21002B02D1C2760177847670BD10F09A
:1046200025F904280ED005280CD00026DC48314698
:10463000067108300DF026FB2E716C710A20E870AF
:104640002C7070BD0C202871F7E710B50FF0BBFE81
:10465000002804D0C120CD49800012F0C2FC0CF02B
:10466000CDFE0BF0BFFF002803D0C849CD4812F0A3
:10467000B8FC0EF0EBFB0DF017FB0024C8482146F8
:10468000047108300DF0FEFABF4821460477C64891
:104690000DF001FBFEF7C2FCBF480121047141711E
:1046A0000222C270017010BDF8B5044600780125E1
:1046B0003D2844D203007B441B79DB189F44F5F569
:1046C0001EF5F5F4F3F5F5F52143F5F5F27EA0F5C9
:1046D000F5F5F5F5F547F5F5F5F5F5F1F0F5F5EF47
:1046E000EEEDECEBEAF55FF56367E9F5F5F5E8A4C7
:1046F000D7F5F5F5F5F5E7E6E5E4E300FFF7A5FF07
:10470000F1E1A54C2078002806D0A4480E21837E34
:104710000A22002B73D0E6E110F0A8F804280FD08D
:1047200005280DD000269E483146067108300DF050
:10473000A9FA2671012060710A21E1702070D2E18E
:104740000C202071F6E7A01CFFF7DDFECBE1A11CD9
:10475000914C2078002806D090480E22837E1721A5
:10476000002B7DD0BFE1914812F03DFD9049012022
:1047700088760021217160711721E17093E1A01CFE
:10478000FFF734FEAFE1A01CFFF7ECFDABE1824C7C
:104790002078002806D081480E21837E2B22002B12
:1047A0002DD0A0E10821A01D09F058FE00202071A5
:1047B000012060712B21E170207094E1764801782E
:1047C000002906D02030837E0E220F21002B47D0F7
:1047D00089E1002101710E2181700F21C170FF213B
:1047E00081710021C9430181724949680A78827246
:1047F0008A8882814988C1810121417170E1F5E097
:10480000A01CFFF71FFD6EE1634E3078002806D034
:1048100062480E22837E3121002B21D063E10220E9
:1048200020560B22D243811A90421CD008DC1C3146
:1048300019D00A2917D0142915D0182909D112E046
:10484000014608310FD004290DD008290BD00C29BE
:1048500009D012203071012070713121F17000E017
:1048600082E030703FE100F03CFA0020F2E74A4E6F
:10487000A11C3078002819D048480E22837E3221AE
:10488000002B71D02FE113E10FE130E033E0A3E022
:1048900017E052E0EAE0E4E067E061E05DE058E064
:1048A00053E04EE0C2E0E5E063E01BE1424812F075
:1048B0009AFC00203071012070713221F17030704B
:1048C00011E135480178002906D02030837E0E2280
:1048D0003021002B48D006E1364AA1781170002122
:1048E0000171012141713022C2700170FBE0A01CF6
:1048F000FFF7DEFBF7E0284C2078002806D0274899
:104900000E21837E3922002B70D0ECE00FF0AEFF39
:1049100004280FD005280DD000261B483146067705
:104920001D300DF0B8F92671012060713921E17058
:104930002070D8E00C202071F6E7A01CFFF732FBB6
:10494000D1E0A01CFFF7AEFACDE0A01CFFF76FFA94
:10495000C9E0A01CFFF7F2F8C5E0FFF7AFF8C2E02E
:10496000A01CFFF732F8BEE07FE0A01CFEF7DFFFDF
:10497000B9E0094C2078002820D008480E22837E18
:104980000521002B71D0AEE0D41400205834000073
:104990009B030000BC140020541400207414002059
:1049A000B41400200E030000F1140020A81400200D
:1049B0009414002040000020480000200CF066FD08
:1049C000E0800CF0CCFE207200202071012060718C
:1049D0000521E170207086E04F4E307800280AD023
:1049E0004E480E21837E3822002B7CD1C17602777F
:1049F0000121817677E01F2030710120707138210C
:104A0000F1703070A078002808D0012806D0022864
:104A100004D0032802D01220307164E000270DF08A
:104A2000D1FAA0780EF015FB37715CE03A480178B6
:104A3000002906D020300E22837E1146002B41D063
:104A400051E0374A34491389CB8053890B819289CD
:104A50004A8100210171012141710E22C270017051
:104A600041E0A01CFEF79FFE3DE02BE0A01CFEF7FE
:104A700058FE38E0284C2078002806D027480E221F
:104A8000837E0621002B1DD02DE0002020710E20FA
:104A9000A0700620E070234812F094FBA179012059
:104AA0000143A171607120701DE0FEF798FD1AE0CE
:104AB0001948017800290AD02030837E0E223C213B
:104AC000002B10D1C2760177012181760BE01649C7
:104AD00062880A8000210171012141713C22C2706B
:104AE000017000E000252846F8BD10B5062810D258
:104AF00003007B441B79DB189F440B0A0A0B0B0253
:104B00000FF055FD002803D00849094812F069FA52
:104B100010BD06490748F9E754140020741400201A
:104B2000400000205A140020B41400205834000023
:104B3000410900005B090000F8B5F94A0221116043
:104B40003F21F84D0902A96001218903A960F649B6
:104B50000026CE630127CF63F449C96A09070DD443
:104B6000F34AD36AF3494B62136B8B62536BCB628C
:104B7000936B0B63D26BCB051A434A63EE4C002850
:104B800025D0012827D0FF20ECA18A3012F029FA85
:104B9000EE48A063FF20043060632763EC490320E4
:104BA00008602061EB4996204860EB4918200856C0
:104BB0000B22D243811A90423DD011DC1C3141D0EE
:104BC0000A293FD014293AD0182911D135E0E348F9
:104BD0006061E34802E0E3486061E348A061D7E731
:104BE000083026D0042822D008281ED00C281AD03D
:104BF000FF20D2A1BA3012F0F4F9DD4CDB48E062BC
:104C0000DC48A062DC486063DC4820630BF03DF8C0
:104C10002061DB49022008600320C0026860D94996
:104C200010204860F8BD04200AE0E660E5E7FC20BB
:104C300006E0F82004E0F42002E0F02000E0EC20A0
:104C4000E060DAE7D820E060D7E770B5C24C002515
:104C500065702570012065616072A572E072CA48B6
:104C6000657705736562C948256311F056F9002818
:104C700004D0FF20B1A1553012F0B3F92576002001
:104C8000FFF75AFF70BD10B50C460146C04812F040
:104C9000AAFAB148047210BDAF48407F7047AE4ACF
:104CA00051701070704770B50D460446082904D93C
:104CB000FF20A2A1F53012F094F90022002D0CD9AA
:104CC000B4489100635809180B6053001B191B8CE2
:104CD0000B62521CD2B2AA42F3D3206BAE490860D9
:104CE00070BD10B504460B22D2430C309249944259
:104CF00022D008DC1C3025D00A2823D014281FD04D
:104D0000182809D11AE02046083013D004280FD003
:104D100008280BD00C2807D0112088A1400112F0E0
:104D200060F98D48047610BD04200CE000200AE0F4
:104D3000FC2008E0F82006E0F42004E0F02002E087
:104D4000EC2000E0D820C860EBE78F48007A70477D
:104D50007949C2784A6202461378184653781B0292
:104D600018439378D2781B041843120610430002AC
:104D7000C8617047252808D0262808D0272808D0E1
:104D800041000A2807D8091D06E0022105E01A2182
:104D900003E0502101E0891DC9B2674A91606D4965
:104DA000486170476C4948617047F8B50D4604008A
:104DB00005D0012C03D061A1784812F012F96648A1
:104DC000634A847203211160564F9115B9602B46D6
:104DD0000125734A002B09D0654E012B0CD0022B04
:104DE00015D056A16F4812F0FCF8F8BD002C01D088
:104DF0005560F8BD1560F8BD002C06D06A4A726196
:104E0000026B0A4302637960F8BD7261F8E70446F9
:104E10004069002804D1992048A1800012F0E1F8EF
:104E20006169606A40186149886061483062614820
:104E30007062216B00150143216378605E488560D4
:104E400051480573F8BDF8B541490D680C206A4614
:104E500010704C4F7868C006C40F1026BE6000204A
:104E60000860564908614E4B01221A613A4B5A724A
:104E70009872DA720BE000BF00BF00BF00BF00BF36
:104E800000BF00BF00BF6B461A78521E1A706A46F8
:104E90001278002A02D00A69002AECD0086168461C
:104EA0000078002803D125A1454812F09AF8284837
:104EB0000560002C00D07E60F8BD01460A781046DF
:104EC0004A78120210438A78C978120410430906FE
:104ED000084300021849000AC863704710490220BD
:104EE000086070470E490220086025490860704735
:104EF000344902200860704733490870704710B584
:104F0000224811F012F8002803D00CA12F4812F00B
:104F100068F810BD10B51D4811F01FF810BD000055
:104F200080E100E000F50140C01F0040800000105B
:104F3000C000001000170040001500407372635C51
:104F400068616C5F7263732E630000005B06000093
:104F500000120040401500407C15002006010200B0
:104F600025000302050103001F00030244800040E6
:104F700040F5014004110040408000401011004005
:104F800080E200E0001300409C150020B0150020D6
:104F90007E1500200016004040160040410200002F
:104FA00000100040720200000410004040850040E4
:104FB00048810040101000400005004000110040F2
:104FC0008F02000000E100E04E000020B702000068
:104FD000FE494860704770B5FD4C0546606AA842BE
:104FE00003D3FC49FC4811F0FCFF606AFB4B291A13
:104FF0000022E1605A604018F9494860FA48F949CE
:10500000C161191D8161216B401501432163F7497D
:10501000486070BDEE48C221C160F04A0021516075
:10502000416AEF4AC2315160EF49EE4ACA61F04A23
:105030008A61026B49150A430263EC48416070477C
:105040000121EA4849028160E148026B8A4300215C
:105050000263C160E24841607047E6480121416057
:10506000C160DE4900204860DD494860D849486297
:1050700070473F20DD49000288607047DE494020CC
:105080000862DE490A6802430A607047DB4801682B
:10509000402291430160D849002008627047D748F8
:1050A0000168102291430160D54901208861704751
:1050B000D4490020C861D148016810221143016021
:1050C0007047CE480168102291430160CC4901200D
:1050D0008861BF49002008747047CA490020C86130
:1050E000C6480168102211430160B94901200874C3
:1050F0007047C449CA69012A01D000207047BE4ADE
:1051000092685206520E524202700020C86101207D
:10511000704770B50C00054603D1AE49BA4811F08E
:1051200060FFE00705D0012C03D0AA49B74811F071
:1051300058FFA748002D4572C472B04807D0012D12
:105140000AD01D20A349400111F04BFF70BD01683A
:1051500004221143016070BD0168082211430160FF
:1051600070BD70B59A4900224B7A002B00D0012304
:105170008B72A24C03232360A3159C4CA360CB7AB3
:105180009C0701D5440712D4DC0606D5A04C657AED
:10519000002D02D0A47A002C09D01C0702D50C7F68
:1051A000002C04D15B0703D5497F002900D10122DF
:1051B00002210840104301D0FFF745FE70BD94481E
:1051C0000121C1727047F8B5914E8149337B0024AB
:1051D000864A086B002B27D0151517469560A84303
:1051E0000863FFF730FE8748C4600461446044618F
:1051F0008461BD60874884607548807A00280BD040
:1052000001280DD07349844811F0EBFE83480168F2
:105210008907FCD53473F8BD794901200860F5E7AA
:10522000774901204860F1E7704A906000200863E8
:105230006A484068012809D00023724F3869012864
:1052400006D00024887A002804D006E00123F4E781
:105250004024F7E7FA68012A04D0002222430028FC
:1052600002D004E02022F9E77C68012C06D000245B
:105270000D4614436A49012802D007E01024F7E7DD
:105280000A68012A02D1FA68012A04D000222243C6
:10529000012802D007E00822F9E70968002902D1B5
:1052A000F968012904D000211143012802D005E04A
:1052B0000421F9E7002B01D0022200E000220A437A
:1052C000012802D17868012832D0002455481443BF
:1052D00001680906090E02D07969012900D0002170
:1052E000317200680006000E02D0B869012800D0B3
:1052F000002070724048006A002803D0FDF7EAFCE5
:10530000012800D00020B0723E480021C160016138
:10531000416041618161314841603148F1724368C7
:105320002B6200686862A97A284F012902D00AE03E
:105330000124CBE76978002905D07A6812780A4001
:10534000297891430BD000212977E10709D018462D
:105350000FF074FA0121686A0FF071FA0AE0012176
:10536000F2E7A10601D5022102E0A10702D5002142
:105370000FF065FA796806220931A81C11F09AFC31
:10538000002807D1287A79680978C909884201D1AB
:10539000012200E000226A77687A0021002800D00C
:1053A0000120A87215480323036083150F4883600A
:1053B000E87A830701D563073FD4C30605D5737A1E
:1053C000002B02D0B37A002B37D02DE0001500401F
:1053D0007C1500203C4F0000C702000040810040C7
:1053E000408500401010004040F5014000F50140AC
:1053F0004481004000800040401500400012004001
:1054000000100040001100408A0300008E030000DD
:105410009C150020000500408203000000E200E02F
:105420000014004040160040030702D52B7F002BDC
:1054300003D1400702D5002A00D1012120460222D3
:105440001040084301D0FFF7FEFC5048C227007807
:10545000002819D001282CD002283FD003285ED084
:1054600099204B49C00011F0BCFD287C0028A87A87
:1054700073D01021012867D0464802688A43026031
:1054800045490120886177E0A00701D5FDF7A8FD17
:10549000200703D50120EF60FDF7A1FD600703D5CC
:1054A0000020EF60FDF79BFDA006DED5FDF796FD21
:1054B000DBE7A00701D5FDF797FD200703D5012005
:1054C000EF60FDF790FD600703D50020EF60FDF76A
:1054D0008AFDA006C9D5FDF785FDC6E7A00703D55F
:1054E000BF2004400DF0CBF8200705D5BF200440B5
:1054F0000120EF600CF08AFD600705D5BF20044055
:105500000020EF600CF082FDA00603D5BF20044010
:105510000DF011F86006A8D50CF074FDA5E7A00702
:1055200001D50DF025FF200703D50120EF600DF018
:105530001DFE600703D50020EF600DF017FEA006EA
:1055400093D50DF08DFD90E7144A0020D0611148ED
:1055500002680A43026002E0FFE701280CD1E86814
:10556000002809D0696A09180D484160296B401567
:10557000014329630B494860F07A002800D14AE6CC
:10558000094908688007FCD5F8BD00004E000020DE
:105590003C4F00000012004000100040001100408D
:1055A0004085004000F5014000E200E0002803D003
:1055B0008178012939D101E0102070470188F84A2B
:1055C000881A914233D01BDCF64A881A91422ED0B9
:1055D0000BDC00292BD00320C002081A27D0012899
:1055E00025D001210903401A07E001281FD0022815
:1055F0001DD0FF281BD0FF380138002815D116E038
:10560000FF220132811A904211D008DC01280ED00D
:1056100002280CD0FE280AD0FF2806D107E0012975
:1056200005D0022903D0032901D0002070470F20A4
:10563000704700B50A2821D008DC030011F0F8FDFE
:105640000A1C2024241A24282224261A102819D0BF
:1056500008DC0B2816D00C2814D00D281AD00F28DF
:1056600008D111E011280FD0822807D084280DD04E
:1056700085280DD0032000BD002000BD052000BD01
:10568000C94800BD072000BD0F2000BD042000BD9B
:10569000062000BD0C2000BD70B500290BD0CB1F2B
:1056A000FA3B81241E46CDB2112B1BD2012805D016
:1056B000022806D009E0002010701DE0FF20043011
:1056C00001E0FF200330814218D0330011F0B0FD1B
:1056D0001116131316131616131616161313131387
:1056E000161316000846FF3881381F2803D9FF39E2
:1056F000FE39022902D81570002070BD14700720F1
:1057000070BD00B5030011F093FD060406040C08FB
:105710000A0C002000BD112000BD072000BD08209C
:1057200000BD032000BD00780207120F04D0012A3B
:1057300005D0022A0AD10EE0000907D108E00009CD
:10574000012805D0022803D0032801D00720704784
:1057500008700020704706207047002807D00128F5
:1057600007D0022807D0032807D007207047002061
:1057700004E0112002E0212000E031200870002028
:10578000704738B50C4605004FD06946FFF7CBFF90
:10579000002822D12088032189028843694609789C
:1057A0008907090D084320806946681CFFF7BBFF85
:1057B000002812D121880320000381436846007825
:1057C0008007800C01432180A8784007820F2020A9
:1057D000012A03D0022A03D0072038BD814300E00C
:1057E0000143218088B20105890F08D00121890376
:1057F0008843A9780907C90F89030843208080B22C
:105800008104890F0AD0A9784004C906C90F400C49
:10581000C903084320808004800F02D120884004FF
:1058200003D52088402108432080002038BD70B572
:1058300004460020088015466068FFF7A2FF002894
:1058400015D12189A089814210D86168574E897885
:10585000C90707D0711E884208D8314611F0C0FA36
:10586000298009E0FF21FF31884201D90C2070BD59
:10587000FF30FF300330288060688078C007A0893F
:1058800003D0314611F0ACFA03E0FF30FF300330B3
:1058900081B22980002070BD10B5137804785B08B0
:1058A000E4075B00E40F23431370FD2423400478D6
:1058B000A407E40F640023431370FB2423400478FF
:1058C0006407E40FA40023431370F72423400478F3
:1058D0002407E40FE40023431370EF2423400478EB
:1058E000E406E40F240123431370DF2423400478EB
:1058F000A406E40F6401234313700078BF2440061C
:10590000C00F2340800103431370002906D008789C
:10591000C10701D1800701D5012000E00020C001AE
:105920005906490E0843107010BD30B50A8803238C
:105930009B0204889A4323059D0F02D1A3049C0F68
:1059400001D09B0F00E001239B021A4303230A802E
:105950001B039A4303889804840F02D11805830F10
:1059600001D0800F00E00120000302430A8030BD17
:10597000F3B593B00D000FD01398002818D0122162
:10598000284611F021FA03AAFF21012003F00DFAA5
:105990000024264637467DE0102015B0F0BD0000FB
:1059A000022900000128000002300000010200006E
:1059B0000720F2E76846807D01280BD16846818A7E
:1059C0000520C002081A0AD001280AD002280CD0EB
:1059D00003280CD0042C0ED0052C0FD10DE001248F
:1059E00000E002246846468A08E0032406E0684690
:1059F0000424478A02E0052400E006246846418A20
:105A00001398814246D12C74002E41D00DAA0EA9C4
:105A1000052002920191009010230022FF213046C0
:105A200003F063FA002823D16846808E2A46C0B26C
:105A30000EA9FDF7F2F900281AD1AE81002F27D068
:105A40000DA9052008AE02910090132300220196B3
:105A5000FF21384603F049FA002809D16846808EB4
:105A6000F11CC01EC0B22A1DFDF7D7F9002801D0D5
:105A7000032092E708A88178427808021043E88161
:105A8000062C05D16846807DA8726846808A2881E8
:105A9000002082E703A803F091F900288AD0FFF7DD
:105AA000C8FD7AE7002805D0FE4A012903D0022963
:105AB00003D003207047518800E09188814201D1D2
:105AC000002070470720704770B50C4605461C2122
:105AD000204611F079F900202080002D08D0012DFA
:105AE00004D0F1A1F54811F07CFA70BD062000E069
:105AF0000520A07070BD70B592B014460646012016
:105B00006A4610711074537408460830039402906A
:105B100048889082FCF775F80546448017206A464D
:105B20009083203600950AAB7178023307AA01A84A
:105B30000FF000FD06466878000701D5FCF77CF8F9
:105B4000002E04D03046FFF7DCFD12B070BD08A86F
:105B500000906846838B04220121204607F0C9FC8F
:105B6000F3E710B50FF0ECFE10BDFEB500260546BC
:105B7000029600780C460827030011F059FB0CFE32
:105B8000070C340B717198BCFDD2E2FE68680A38CC
:105B9000FCF7E4F805E1A888002380B20122032184
:105BA000009008F049F90190002C04D0C348BEA130
:105BB000513011F016FA0198002804D1BF48BAA15B
:105BC000523011F00EFA0198009908300FF0E6F803
:105BD000FCF717F8044600986080607838436070DE
:105BE000FCF72AF8DDE0002C04D1B448AEA1623005
:105BF00011F0F7F9608800230122032108F01CF955
:105C00000090002804D1AD48A7A1653011F0E9F952
:105C10000099002008802A7994461EE0C3005B1991
:105C20009B6800936B461B881A0708D5DA0606D5D1
:105C30006046C20050192038C08B088006E05B0423
:105C400009D50871C2005019C0884880607838436F
:105C500060700226A5E0401CC0B28445DED8A0E0FA
:105C6000E888694608800090002C04D193488EA1F2
:105C7000753011F0B6F92878062814D10098C00BB9
:105C800011D0608800230122032108F0D5F8060016
:105C900004D15D2084A1C00011F0A3F9002030716F
:105CA000A88870803BE060783843607079E0002C11
:105CB00004D182487CA1913011F093F960880023CF
:105CC0000122032108F0B8F80090002804D17B4895
:105CD00075A1943011F085F9009808300FF082FE1C
:105CE0000121484002D1E888C00B5AD00098618851
:105CF0000226C180D7E7002C04D170486AA1AD30DC
:105D000011F06FF9608800230122032108F094F854
:105D1000002804D1694864A1B03011F062F902266C
:105D2000C1E7002C04D165485FA1B93011F059F9E1
:105D30000226618801222046FCF722F80120029009
:105D4000B1E7A889002380B20122032108F074F88A
:105D50000746002C04D0CD2053A1800011F041F95A
:105D6000002F04D1554850A1CC3011F03AF96868A1
:105D700000902889694601E006E00DE08880012254
:105D80000020FCF719F80CE0002C8CD14B4846A100
:105D9000D63011F026F986E7D12043A1800011F01A
:105DA00020F9002C0DD0607800070AD50298002851
:105DB00007D1842020702046582229460830FBF75E
:105DC00003FA3046FEBDF7B50C460546007A22467A
:105DD00088B00A320292921C04920027811E163269
:105DE0003E4601920B0011F023FA08F705F6393907
:105DF0008FD2F5F6688800230122032108F01CF8F1
:105E00000190002804D12D4827A1F43011F0E9F8C1
:105E100001980088002802D05227072601E1512767
:105E20001E26002C6FD06888A0800120A0710198E8
:105E300002990079C0004019C089FFF799FD002838
:105E40007ED101980079C0004019C0892081019855
:105E50000079C0004019408AA08302E1698A00915C
:105E6000062830D1E889C00B2DD0084622305127B2
:105E700086B2002CD6D0A8890499FFF779FD0028B6
:105E80005ED16888A0800220A071A88920810120AD
:105E9000A072288AE083009820846969009A01989A
:105EA0000EE00000B41500207372635C67617474C7
:105EB000735F636F72652E6300000000690200006B
:105EC00010F025FFCDE008462030502786B2002C88
:105ED000A8D0A8890299FFF74BFD002855D1688802
:105EE000A080A889E080287A06280AD002202072A3
:105EF000288AA0830098E083204669692030009AB0
:105F0000CEE70120F3E791E0688800230122032116
:105F100007F092FF0690688A00900698002803D147
:105F2000FD49FE4811F05DF8069808300FF05AFD63
:105F30000121484002D1E889C00B25D0009800E03B
:105F400023E02230512786B2002C79D06888A080C7
:105F5000A8890499FFF70CFD002816D10220A07132
:105F6000A88920810420A072288AE08300982084D8
:105F70006969009A019810F0CAFE0699002008711C
:105F80000698A98941806CE003200BB006E568887B
:105F900004F0D2FC0190688800230122032107F05D
:105FA0004BFF00900198002804D1DC48DA492C30DE
:105FB00011F017F80098002804D1D848D6492D30A0
:105FC00011F00FF80098D649C088884205D05127B3
:105FD000222604E01EE03FE035E050272026002C7A
:105FE0002ED06888A080502F07D00220A0712146B3
:105FF000287B0831FFF768FD33E0287BA11DFFF700
:1060000063FD6A88002300990198FFF774FD00285A
:10601000BBD126E0C349A889C988814207D154274A
:106020000626002C0CD06888A0801AE008E05327D0
:106030000826002C04D06888A080A889E08010E0A1
:106040000A98068013E055270726002CF8D0A88967
:10605000A0800020A07104E0B048AF497A3010F071
:10606000C0FF0A98002C068001D02780668000209F
:106070008BE7AC4900200870704730B585B00C46FE
:1060800001F0FCF805460020208020716080401E51
:10609000E0802046294608300EF074FE6A46294604
:1060A000012002F082FE10240CE06846808801077F
:1060B00008D5204369468880C888FF232946019A6D
:1060C00002F09DFF684602F079FE0028EDD005B091
:1060D00030BD0A46014610B5104608300EF066FE87
:1060E00010BD70B5002305461A46032107F0A4FE33
:1060F000040004D189488849B43010F072FF20466A
:10610000294608300EF04AFE70BDF0B591B00C463D
:10611000074604F011FC050005D02878222804D297
:10612000082011B03AE48048FBE700231A46032117
:10613000384607F081FE0646002C02D0A0880028D1
:106140000CD00120694608710220087400204874B0
:10615000002C05D0A0880883206802E00920E0E731
:10616000088305903046083003970290FBF749FDFD
:1061700004464780172069468883203500940AAB7F
:106180006978023307AA01A80FF0D4F905466078B0
:10619000000701D5FBF750FD002D03D02846FFF77F
:1061A000B0FABEE708A800906846838B042201215C
:1061B000384607F09EF90021C943F180B1E7FFB5E9
:1061C00085B00E9E7788384604F0B6FB054600235E
:1061D0001A460321384607F02FFE0446002D03D14E
:1061E0004D49524810F0FDFE002C04D14F484A4959
:1061F000401C10F0F6FE08986946C1C108340394AB
:1062000005A80DC8203569780EF002FE09B0F0BD72
:10621000F0B50446002099B00D4601460D9010A837
:1062200081811646018181803E4A684691800185C0
:10623000818710A8018068468185818410780128B3
:1062400008D0022806D0032804D0042802D0082051
:1062500019B0F0BD3648844219D301218904354A6A
:10626000631A934213D3344FBC4210D285420ED3EB
:106270006B1A93420BD3BD4209D26368002B13D033
:10628000834204D3581A904201D3BB4201D3102059
:10629000DEE760892189884203D8012252029142B7
:1062A00001D90C20D4E70D9016AA10A92846FFF7B3
:1062B000BEFA0028CCD10AA92069FFF762FA0028AB
:1062C000C6D1206900280CD0607880070028684675
:1062D000008D03DA8004800F61D002E08004800F1B
:1062E0005DD109A96069FFF74CFA0028B0D1606957
:1062F000002808D06846818C0805800F01284ED1FF
:106300008804800F4BD00BA9A069FFF73AFA002848
:106310009ED16846008D11E0A85E0000C503000014
:10632000FFFF0000B415002001300000D904000078
:10633000008001000000FC1F0040002080062ED4D9
:106340006846808C80062AD46846808D810626D4D3
:10635000A169002906D00105890F01291FD18004F8
:10636000800F1CD0E068002804D00078002816D0E8
:106370001C2814D204AA611C2046FFF78DFA0121C3
:1063800089026846818701278773F949818104AAB8
:10639000033217A92868FCF766FD002801D0072002
:1063A00056E710A8007F15A9C01CC2B200200C92AD
:1063B0000090FF32034602910190FF32033203A89E
:1063C0000F9902F055FC002827D110A9888A0E9059
