:020000040001F9
:10800000983B0020058201001F82010021820100AF
:108010000000000000000000000000000000000060
:1080200000000000000000000000000023820100AA
:1080300000000000000000002582010027820100EE
:108040002982010029820100239401002982010074
:108050002982010000000000BDD901002982010031
:108060002982010029820100F19201002982010088
:108070002982010029820100298201002982010050
:10808000298201002DA2010029820100298201001C
:108090002982010029820100B5D80100298201004E
:1080A0002982010029820100000000000000000078
:1080B00000000000000000000000000000000000C0
:1080C00000F002F800F032F80CA030C8083824188C
:1080D0002D18A246671EAB4654465D46AC4201D100
:1080E00000F024F87E460F3E0FCCB6460126334200
:1080F00000D0FB1AA246AB4633431847FC61000090
:108100001C6200000023002400250026103A01D341
:1081100078C1FBD8520700D330C100D50B6070473F
:108120001FB5C046C0461FBD10B510BD06F006F80D
:108130001146FFF7F5FF01F06DFB06F01EF803B4E2
:10814000FFF7F2FF03BC06F023F80000401E00BF5B
:1081500000BF00BF00BF00BF00BF00BF00BF00BF27
:1081600000BF00BF00BFF1D170470000401E00BF3C
:1081700000BF00BF00BF00BF00BF00BF00BF00BF07
:1081800000BF00BF00BFF1D170470000401E00BF1C
:1081900000BF00BF00BF00BF00BF00BF00BF00BFE7
:1081A00000BF00BF00BFF1D170470000401E00BFFC
:1081B00000BF00BF00BF00BF00BF00BF00BF00BFC7
:1081C00000BF00BF00BFF1D17047000070B5054689
:1081D0000C46164602E00FCC0FC5103E102EFAD208
:1081E000082E02D303CC03C5083E042E07D301CCCE
:1081F00001C5361F03E021782970641C6D1C761EB2
:10820000F9D270BD03210C4802680A4302600B4892
:1082100002680A4302600A4880470A480047FEE7AE
:10822000FEE7FEE7FEE7FEE7FEE700000648074937
:10823000074A084B704700002405004054050040E1
:10824000EF820100C1800100982F0020983B0020A0
:1082500098330020983300202E482F49086070473B
:108260002E48008CC0B2012810D12C48808C000709
:10827000000F0BD12948806AF0210840402805D121
:108280002648C06A084201D1012070470020FCE75F
:108290002248008CC0B2012827D12048808C0007DA
:1082A000000F22D11D48806AF021084205D11B48E9
:1082B000C06A084201D1012070471848806AF02145
:1082C0000840102805D11548C06A084201D1012094
:1082D000F2E71248806AF0210840302805D10F48A3
:1082E000C06A084201D10120E6E70020E4E710B5AA
:1082F000FFF7CEFF002805D009480A494860C81397
:1083000009498861FFF7ACFF002802D00120074926
:10831000886010BD0024F40000280020C00F00F089
:10832000DFFF07C000050040006C00400006004071
:1083300010B5002819DAF94A03071B0F083B9B0800
:108340009B00D2588307DC0EFF23A3409A438B0780
:108350001B0E8407E40EA3401A43F04B0407240FBE
:10836000083CA408A4001A5118E0ED4A03231B029C
:10837000D21883089B00D2588307DC0EFF23A3404A
:108380009A438B071B0E8407E40EA3401A43E44B69
:10839000032424021B198408A4001A5110BD00BF35
:1083A000BFF34F8FDF48DD491C39C860BFF34F8FE3
:1083B00000BF00BFFEE710B50020DB490860401E8B
:1083C000DA4988600120DA494860C8600020D9494C
:1083D0004860D94908600021D74841608160C16088
:1083E0000020D549C03108600320D2490861886067
:1083F00001200004CD4948600120CF49C031086008
:10840000C820CC49403108600120C94908600321D7
:108410000A20FFF78DFF0A2001F023FA10BD0A2081
:1084200001218140BE4A8032116000BF704710B503
:108430000446207802F08DF9607802F08AF9A0787D
:1084400002F087F910BD38B568462EDFFFF7E7FF69
:108450000020BA490870BA490870BA4908706846DD
:1084600000782FDF1321B848008876DF0446B7482C
:108470000078401CB549087008460178012001F0D9
:10848000ECFCE1B2022001F0E8FC082C01D0012C48
:108490000BD100BF2346002B06D000BFACA2FF21AA
:1084A00021311846FFF77BFF00BF38BD03460C465D
:1084B00022461946A948FFF772FF70B506460D46D9
:1084C0002878012802D0022818D110E0304601F0A7
:1084D00071FB044600BF2346002B06D000BF9CA2C0
:1084E000FF214C311846FFF75AFF00BF07E000207C
:1084F00000E0401C697D8142FBD800E000BF00BF66
:1085000070BD10B596B001A804F06FFD044600BF21
:108510002346002B05D000BF8DA291491846FFF7D6
:108520003EFF00BF0198002804D001208D4908704B
:1085300016B010BD082110A80173002101750AA80A
:10854000129002A8149012A9874802F070FF044606
:1085500000BF2346002B06D000BF7DA2804910310A
:108560001846FFF71CFF00BF10A8007B002803D1AE
:1085700010A8007D002803D07C480078012813D083
:108580007B48007840084000794908700846007828
:108590000221884376490870A02008815020488134
:1085A00000204860888117E071480078400840004A
:1085B0006F4908700846007802218843801C6C4986
:1085C0000870A02008815020488112A848601E2011
:1085D0008881012065490870654886DF044600BF30
:1085E0002346002B06D000BF59A25D492C31184606
:1085F000FFF7D5FE00BF00BF9AE7F8B507460E4665
:108600001546307815287AD008DC11280DD01228AC
:1086100033D013284DD014286ED15BE021286FD0C1
:1086200022286ED02328F7D1B4E052480078401CAD
:108630005049087008460178032001F00EFC70686C
:10864000008841490880042239464B4805F020FC47
:1086500000204A49087070680188494804F0FFFF0B
:10866000044648480078401C46490870084600788F
:10867000012801DAFFF745FF9AE001203F49087021
:1086800062213F4805F061FC1820012181403E4AEB
:10869000D16000BF3B480078012801D1FFF731FFCE
:1086A00038480078401E37490870B42037490860C0
:1086B0007EE0314802F0A2FD044600BF2346002BB5
:1086C00006D000BF22A2FF21A4311846FFF767FEA3
:1086D00000BF6DE02E4802F0BCF9044600BF2346FF
:1086E000002B06D000BF1AA2FF21AD311846FFF7BC
:1086F00056FE00BF5CE002E059E001E001E057E017
:1087000056E000BF2B46002B06D000BF10A2FF2171
:10871000BE311846FFF743FE00BF49E01CED00E004
:1087200000E100E00400FA05A428002000A30040B6
:1087300000A0004000A5004040A10040A828002063
:108740000C28002006280020C4280020992800209A
:108750002E2E5C6D61696E2E63000000EFBEADDEF3
:108760007905000005280020B5280020BA2800203F
:10877000602A00209A280020B62800200D2800201A
:10878000F029002004280020000500508428002043
:10879000542A002000BF2B46002B06D000BFFE4A03
:1087A000FF21C3311846FFF7FAFD00BF00E000BF0C
:1087B00000BF0020F8BDF0B505460B4600211C683F
:1087C0000EE0665C481C275CAF4206D1881C20186E
:1087D0001060701E90800020F0BD701C091800BF52
:1087E00098888842EDD80520F6E7F0B591B00646A6
:1087F000341D30881D2871D00CDC12286FD004DCA9
:1088000010286DD011286CD19DE019286AD01B2842
:10881000F9D109E03038030005F0ECFC0A969B978B
:10882000989B9B9B999B9A9B20460B300F90A07A1C
:10883000C00810A908800DAA0FA90920FFF7BBFFE7
:108840000546002D05D00DAA0FA90820FFF7B3FF9C
:108850000546002D60D108A80D9905F0F3FA002017
:1088600008A90873CD48006805F074FB002801D101
:10887000012000E00020029000200190002728E065
:1088800014207843C64A115803A805F0DBFA0020EB
:108890006946087608A903A805F05CFB002801D109
:1088A000012000E0002001900198002810D009214B
:1088B000615614207843BA4A8018416014217943E4
:1088C000891808460C300722A11C05F0E1FA02E0E5
:1088D0007F1C052FD4DB00BF002714E02CE030E024
:1088E00030E036E019E0029800280BD0AD4800785F
:1088F000002807D087DF0546AB4AAC49A01C88DFBB
:10890000054607E07F1C6946088FC10F091849100A
:10891000B942E8D800BF00BF1CE0A078022809D106
:10892000A3480078012806D10220A1490870FFF76A
:10893000E8FD00E000BF0DE02088A11C75DF0546C2
:1089400008E007E006E005E004E003E002E001E003
:1089500000E000BF00BF11B0F0BD10B50446022C0E
:1089600002D0032C0BD100E000BF92480078002811
:1089700004D000208F490870FFF7C3FD00E000BF5E
:1089800000BF10BD10B50446204603F0B7F92146DC
:10899000894804F0A4FE2146884802F00DF82046DC
:1089A000FFF723FF10BD10B50446204603F07BFF00
:1089B0002046FFF7D2FF10BD70B500BF002348224C
:1089C0007F490D2004F02FFF054600BF2B46002BEA
:1089D00006D000BF704AB32189001846FFF7DFFCBC
:1089E00000BF00BF774804F053FF044600BF234692
:1089F000002B05D000BF684A73491846FFF7CFFC2B
:108A000000BF724804F04DFF044600BF2346002B10
:108A100006D000BF604A6C49091D1846FFF7BFFC2D
:108A200000BF70BD1FB503F0E1FF044600BF234641
:108A3000002B06D000BF584AB92189001846FFF71D
:108A4000AEFC00BF00200090684602F035FB0446F3
:108A500000BF2346002B06D000BF4F4ABB21890030
:108A60001846FFF79CFC00BF052102A8013005F065
:108A70006CFA57480190022168460172407A410819
:108A80004900491C68464172407A022188430146E8
:108A900068464172407A1C21884301460C31684681
:108AA0004172407A2021884369464872072101A813
:108AB00081711021C171007A40084000401C01A959
:108AC000087201A8007A02218843801C01A908725B
:108AD000404802F062FB044600BF2346002B06D04C
:108AE00000BF2D4A384931311846FFF758FC00BF06
:108AF0001FBD10B503211A2000F0BAFE0321182073
:108B000000F0B6FE0321192000F0B2FE032115206B
:108B100000F0AEFE0321182000F0AAFE10BD10B533
:108B2000152000F0AFFE002801D1012000E0002058
:108B300029490870182000F0A5FE002801D1012065
:108B400000E0002025490870192000F09BFE002855
:108B500001D1012000E00020214908701A2000F016
:108B600091FE002801D1012000E000201D4908707D
:108B700019480078194909780843194909780843C0
:108B80001849097808431849087018480078401CAB
:108B90001649087010482BE0508701007428002007
:108BA000102800200C28002010E20100602A00207C
:108BB000BA28002005280020F0290020542A00208F
:108BC0009429002085890100D1020000A7890100B5
:108BD000FB850100B5280020C6280020C7280020FA
:108BE000C8280020C9280020CF280020D228002033
:108BF0000078002804D0FB480078401CF949087030
:108C0000F9480078002804D0F8480078401CF7495B
:108C10000870F7480078002804D0F6480078401C17
:108C2000F4490870F4480078002804D0F34800782C
:108C3000401CF2490870F2480078012823D1F1481D
:108C4000007800281FD1F0480078F0490870002013
:108C5000ED490870E3480078ED490870E348007872
:108C60004870E44800788870E4480078C8700120B3
:108C7000E84908700020DB490870DC490870DD49CC
:108C80000870DE490870DF480078DD49087010BDC3
:108C9000E14A1168002901DB0A4600E04A42B42398
:108CA0009A1A90B20146C217920F521890100028DB
:108CB00001DD411C88B2092800DD0920D649096878
:108CC000002905DD0146603109B2D44A118004E073
:108CD0000146403109B2D14A1180CF4A11680029BA
:108CE00001DB0A4600E04A42B4239A1A052A06DA52
:108CF000CB4A12686E2A02DB0021C84A11807047F5
:108D000010B51421C74B1B685A1A01D4134600E052
:108D1000534298B2002801DD421C90B20C2800DDBD
:108D20000C20BD4B1A68002A01DB134600E05342B9
:108D3000B424E31A1E2B0BDCBA4A12688A4203DD04
:108D400002B2B94B1A8006E00022B74B1A8002E04B
:108D50000022B54B1A8010BDF0B587B000200690F8
:108D6000AB4800780590AA4800780490002411E0F0
:108D7000A748015D0598814203DD0694A448005D83
:108D80000590A348015D0498814202DAA048005D85
:108D90000490641C042CEBDB002407E09C48015D7C
:108DA0000498081AA1006A465050641C042CF5DB94
:108DB0000698002806D0012822D002283DD003289A
:108DC0007BD158E0019903984018009945189048C4
:108DD000C0788F494978401840108D49097840186B
:108DE0000590002D00D1012503990198461A5A21BA
:108DF00071430846294605F0FBF807465A3F5CE0F8
:108E00000099029840180199451881488078804956
:108E10000978401840107E49497840180590002D87
:108E200000D1012500990298461A5A21714308463B
:108E3000294605F0DDF807463FE001990398401800
:108E4000029945187248C078714949784018401015
:108E50006F49897840180590002D00D101250199AE
:108E60000398461A5A2171430846294605F0C0F86E
:108E700007465A3721E0009902984018039945188F
:108E80006348807862490978401840106049C97881
:108E900040180590002D00D1012502990098461A2E
:108EA0005A2171430846294605F0A2F80746B4370F
:108EB000B42F01DDFF3F693F00BF00BF5648076088
:108EC000574905980860084600685849096888426B
:108ED00006DB01205649087005205249086005E06C
:108EE0004F4800688C21081A4E490860012007B0DD
:108EF000F0BD70B50546122401204E4908704E4859
:108F00000078401C4C4908700121002000F070FFDF
:108F100049480178002000F0A0FF14206843474929
:108F20004018007B04281DD0454800780221884362
:108F30004349087087DF14216943404A891808466D
:108F40000C30404A3E4988DF0446082C0AD100BF55
:108F50002346002B05D000BF3B4A3C491846FFF78B
:108F60001EFA00BFFF202D3004F018FFFFF723FA90
:108F700001F0A6F936490860204670BD08B53548AD
:108F80000078092803D108203349087012E033A083
:108F9000006800902F48007869464870087801F012
:108FA000D8FB6946487801F0D4FB6946887801F01F
:108FB000D0FB00BF08BDF8B504460020009028484B
:108FC000007803287ED1522C70D054DC412C70D014
:108FD00048DC202C70D0352C73D0362C76D0402C29
:108FE0007AD165E0D5280020C7280020D6280020A7
:108FF000C8280020D7280020C9280020D828002011
:10900000CE280020CF280020D2280020D3280020FE
:10901000DD280020A8280020E0280020EE280020DD
:10902000E4280020E8280020EC280020B0280020B8
:10903000062800200C280020982800201028002056
:10904000602A002010E20100508701001304000094
:10905000942800207C280020882800204700050054
:1090600089280020442C22D0462C28D0482C21D0FE
:10907000492C31D11FE0652C15D008DC542C1FD0B1
:10908000612C0DD0622C0CD0632C25D10AE0662C0B
:109090000AD0672C11D0682C10D0812C1CD104E090
:1090A00000BF00BF00BF00BF00BF00BF00BF00BFC8
:1090B00000BF00BF00BF00BF00BF00BF00BF00BFB8
:1090C00000BF02E00AE001E006E000BFFE480470D5
:1090D0000020FE49087000E000BF08E1FB4800786E
:1090E000002805D1FA4804800120F8490870FEE004
:1090F000F64800780128F0D1F64804800320F349AF
:1091000008700520FFF722F8EF48007848287AD049
:1091100010DC40282BD006DC202877D0352870D0F2
:1091200036286FD1CAE0412836D0442837D04628A7
:10913000F7D110E066284CD006DC49287ED05428B0
:109140007DD06528EDD13AE0672879D0682878D0BD
:109150008128E6D147E0322004F020FE462168460F
:109160000170002141708170FFF761F9BDE0D849BD
:109170000020085E401E14214843D7490858D749AB
:109180000860D3480078D6490870D1490988491E3B
:1091900008B2FFF7AEFEA8E0FFF755F9A5E04521BC
:1091A000684601700721417000218170FFF73FF987
:1091B000782004F0F3FD782004F0F0FD95E06520C0
:1091C00001F0C7FA002001F0C4FA002001F0C1FA52
:1091D0008BE0662001F0BDFA002001F0BAFA002011
:1091E00001F0B7FA81E0812001F0B3FAB8490878BC
:1091F00001F0AFFAB749087801F0ABFA75E002E088
:1092000004E040E070E0FFF7B9FE6EE02021684620
:109210000170AF48017868464170002181700322D7
:109220006946B04800F09BFC054600BF2B46002B6A
:109230000AD000BFAC4AAD49184603E006E01BE087
:109240000AE015E0FFF7ABF800BF4EE0A0490020B0
:10925000085EA749086048E0422168460170002185
:1092600041708170FFF7E3F8A2A001F07DFA3CE0C5
:10927000A4A001F079FA38E095480021415E12205F
:1092800000F013FD31E0002615E0352001F061FA11
:109290000021304600F0DAFD074601F05AFA0121BC
:1092A000304600F0D3FD074601F053FA282004F0C1
:1092B00075FD701CC6B20A2EE7DB16E0002610E032
:1092C000362001F046FA304600F0CBFD074601F0AB
:1092D00040FA002001F03DFA282004F05FFD701CE8
:1092E000C6B20A2EECDB00E000BF00BF00BFF8BD35
:1092F00010B588480068401C864908608648007898
:10930000002801D0FFF70BFC00208449086010BD45
:1093100010B540DF044600BF2346002B06D000BF37
:10932000714A724948311846FFF739F800BF10BD3D
:1093300070B506460D462878012802D0022815D1BE
:1093400010E0304601F085FB044600BF2346002BA9
:1093500006D000BF644A65495A311846FFF71FF826
:1093600000BF04E000BF012000BF00E000BF00BF5D
:1093700070BD38B56A48009069466A4801F0FAFA4B
:10938000044600BF2346002B06D000BF564A57496B
:1093900073311846FFF703F800BF38BD38B562488F
:1093A000009069464F4800F05FFB044600BF23462B
:1093B000002B06D000BF4C4A2B2149011846FEF76E
:1093C000EEFF00BF38BD10B504F019F9044600BF28
:1093D0002346002B06D000BF434A44498A31184631
:1093E000FEF7DDFF00BF10BD08B5002002231222EA
:1093F00001210090192001F0C7F9142003218206F1
:1094000007231B02D2188300D15000BF0420474914
:10941000486003210220FEF78BFF022000F021FAB2
:1094200008BD10B501F06AF94149424A12788854E2
:1094300040480078401C3F4908700978491E3C4A62
:10944000505CFFF7B8FD00203A49087010BD38B5F0
:109450003948007800282CD0002037490870374858
:109460001C4B1B4A009022480168354800F00BFE57
:10947000002801D0012000E000200446002C05D087
:10948000FEF7E1FF05202F49087038BD812001F06B
:1094900060F90F49087801F05CF90E49087801F08D
:1094A00058F900F00DFF28490860282004F076FCE8
:1094B00000BF00F005FF25490968401A2449884289
:1094C0004DD900F0FDFE45E0F0280020892800205D
:1094D000EC280020EE28002010280020742800200E
:1094E0007C280020702A002050870100DF04000043
:1094F000B028002074657374203031206F6B202EEB
:109500002E00000074657374203032206F6B202EA3
:109510002E000000A42800200C28002040A10040BC
:1095200031930100542A0020BB8401000023004035
:10953000DC290020B4280020A82800207C2A002054
:10954000DD28002088280020BC2800209428002046
:1095500080A90300CF4908600920CF49087000BFE7
:1095600093E708B5142004F019FCB420CB49086037
:109570000020CB490870CB490870CB480078002800
:1095800014D0962004F00AFC0020C8490870C8A036
:10959000006800906846FEF74AFF0020C549087041
:1095A00048708870C870C149087000BF08BD38B5E0
:1095B000C1480078030004F01DFE058DBAFD2104AA
:1095C00020000020BC4948708870C87008710320D2
:1095D000087000F075FEB949086008460068B8498F
:1095E0000860002007E0002214214143B54BC91850
:1095F0008A60411CC8B20528F5DBEEE0AA48007875
:10960000002866D0AC484078052839DB0420AA49F8
:1096100008700020A549087000BF01E0411CC8B2D5
:109620000528FBDB0025002400200DE01421414328
:10963000A44A89188968A94204D31421414389188E
:109640008D680446411CC8B20528EFDB601CC4B21B
:1096500091480470002D02D109208F4908709AA00A
:109660000068009069464C70087801F072F869460D
:10967000487801F06EF86946887801F06AF828E0C9
:109680008D484078142148438E494018007B0428B7
:109690001AD0052004F082FB874840781421484303
:1096A000884908588949086083494878FFF721FCB0
:1096B00000F006FE824908607F484078401C7E49E1
:1096C00048700020087004E07B484078401C7A49CC
:1096D000487082E074480078002803D10120764960
:1096E000087023E074480079401C73490871052014
:1096F00004F054FB70480079042817DB6E48C078EA
:10970000401C6D49C8700846C078032805DB00205E
:10971000C87008710320087008E0002066490871CD
:109720004978481EFFF7E5FB044600BF55E05C485A
:109730000078002828D060488078062824DA0020A5
:10974000574908705C488078401C5B49887000204D
:1097500014E059494978491E14225143594A89183D
:109760008968544A125C8A1853494978491E14235F
:109770005943544BC9188A60411CC8B20428E8DB1D
:10978000052004F00BFB1CE04B494978491E1422CC
:1097900051434C4A89188868182104F01FFC01467F
:1097A00045484078401E14225043464A8018816044
:1097B000002000E006E04049887002200870FEF7B3
:1097C00042FE0AE038480078002802D003203A49D7
:1097D0000870142004F0E2FA00BF00BF052004F076
:1097E000DDFA38BD10B53148007800280AD00528C8
:1097F0000BD0072804D0082803D1FFF7D8FE07E0D4
:1098000006E000BFFFF723FE02E0FFF7AAFE00BF5D
:1098100000BF10BDFFF7E8FDFFF76BF9FEF7CBFDCA
:10982000FFF7CAF8FFF7FEF8FFF7CDFDFFF7A1FD40
:10983000FFF7B4FD00F063FD00F007FEFF20F530F8
:1098400004F0ACFA0121122000F02FFAFEF759FEC5
:1098500000BFFFF75DFDFFF7C5FF142004F09EFA7F
:10986000F7E7C206D20E01219140194A11607047F4
:1098700010B58A0005231B07072424021B19840046
:109880001A5110BD014613480069C840C007C00FF7
:1098900070470000942800207C28002084280020A5
:1098A000A82800200C2800200D280020882800204F
:1098B00042000000DD280020072800208C2800201E
:1098C0009028002010280020470005007428002060
:1098D00000E100E00005005010B5BC480068BC493C
:1098E0000968884234D0B948006824214843B949FE
:1098F00040188078002810D1B44A126824235A43B3
:109900000B46D2189188B14A126824235A43B14BAE
:10991000985A002295DF04460FE0AC4A12682423CF
:109920005A43AC4BD21811461831A84A1268242366
:109930005A43A84B985A97DF0446A4480068401C35
:10994000A2490860084600784007400F086000BF41
:1099500010BD70B504460D46FFF7BEFF70BD30B5B3
:1099600087B005460C46A089A988884211D10220FB
:1099700069460871228A2146123101A8013004F09B
:1099800087FA217C01A8417501A92846AA68904759
:1099900000BF07B030BD30B587B00446207800283E
:1099A00060D1A08801285DD1A0798B49897888424F
:1099B00058D16088894909680880002544E00C2056
:1099C0002946414320460A30405A03281ED10C2024
:1099D0002946414320460A30081880787E49897814
:1099E000884213D10C202946414320460A300818EA
:1099F00040897A49096848800C202946414320461D
:109A00000A30081800897549096888800C202946A1
:109A1000414320460A30405A022814D10C202946DE
:109A2000414320460A30081880786B49897888427B
:109A300009D10C202946414320460A3008180089E4
:109A400066490968C8806D1C207AA842B7D80120F1
:109A5000694608716148006801A982685F4800682A
:109A6000904700BF07B030BD7FB504460D465C4B44
:109A70000FCB6E460FC6002C01D0002D02D10E2058
:109A800004B070BD5449891C684662DF0646002E4A
:109A900001D03046F4E701204F4908804F48046068
:109AA0004E492868096888600020C0434B4909680E
:109AB000088000204949096848804A49464803F01F
:109AC000B4FDDDE770B505460C46002D01D0002C35
:109AD00000D170BD2088102804D037280AD038283B
:109AE0000DD102E0A08828800AE021462846FFF731
:109AF00036FF05E021462846FFF72BFF00E000BFB8
:109B000000BF00BFE5E7F7B5064615462F463048CB
:109B100000682F490968491C2D4A116024214843D7
:109B20002C494418104600784007400F1146086041
:109B3000019961830221E183211D21620021A1831A
:109B4000012121762771FF20000238400112617146
:109B500026800120A070FFF7BFFE0020FEBDF8B5F3
:109B600005460F4616461A48006819490968491CF7
:109B7000174A1160242148431649441810460078BA
:109B80004007400F11460860E9886183E683211D84
:109B900021620021A1830121217632463946201D10
:109BA00004F076F9288820800120A070FFF794FE49
:109BB0000020F8BD10B50446002C01D10E2010BDC8
:109BC000618820880122FFF79EFFF8E7F82800202F
:109BD000F4280020882A002000290020FC280020EA
:109BE00018E2010097990100F8B505460C467B483C
:109BF00000680090684644700123042269462846A4
:109C000000F039FD0646F8BD38B5044674A000687A
:109C1000009001231A466946204600F02CFD0546B7
:109C200038BDFEB507460C4615461E466DA00068B9
:109C30000190684644718571C6710123042201A90F
:109C4000384600F018FD0090FEBDFEB507460C46F4
:109C500015461E4664A000680190684644718571EF
:109C6000C6710123042201A9384600F004FD0090CA
:109C7000FEBDF8B505460C465CA00068009068463D
:109C80004470012302226946284600F0F4FC06468F
:109C9000F8BD10B504462046FFF7B6FF00231A466C
:109CA000FF212046FFF7BDFF10BD70B505460C46ED
:109CB000230004F09FFA0987061422303E50627494
:109CC00086002846FFF7A0FFC8212846FFF78CFF33
:109CD00000231A46FF212846FFF7A3FF7CE0284611
:109CE000FFF792FFC8212846FFF77EFFFF230022DF
:109CF00011462846FFF795FF6EE02846FFF784FFE0
:109D0000C8212846FFF770FF0023BF22FF21284605
:109D1000FFF787FF60E02846FFF776FFC821284657
:109D2000FFF762FF0023FF2219462846FFF779FF5D
:109D300052E02846FFF768FF0A212846FFF754FF44
:109D40000A212846FFF795FF00231A4604212846DA
:109D5000FFF77BFF40E02846FFF756FFFF2128462C
:109D6000FFF742FFD8212846FFF783FF00231A465A
:109D700004212846FFF769FF2EE02846FFF744FF3D
:109D80000A212846FFF730FF0A212846FFF771FF16
:109D900000231A4605212846FFF757FF1CE02846F6
:109DA000FFF732FFFF212846FFF71EFFD821284684
:109DB000FFF75FFF00231A4605212846FFF745FFFE
:109DC0000AE000BF2846FFF71FFF00231A460921BB
:109DD0002846FFF73AFF00BF00BF70BD28E2010030
:109DE0006F000000630000007000000074000000BD
:109DF00070B504460D461D4800780A280FDA1B4846
:109E00000078C0001A490C5018480078C00040186B
:109E1000456016480078401C1449087015E0002081
:109E2000124908705021124804F091F80F48007848
:109E3000C0000F490C500D480078C0004018456024
:109E40000A480078401C0949087070BD0246D000DD
:109E5000074BC0188B00C05C70478200054B9950BF
:109E6000704701468800034A105C704704290020AF
:109E7000A82B0020F82B0020F0B50446251E01DB9E
:109E80002E4600E06E42B427BE1BB0B20546C61790
:109E9000B60F7619B010002801DD451CA8B21028B5
:109EA00000DD1020002C04DD054660352DB21D803C
:109EB00003E0054640352DB21D80251E01DB2E46F0
:109EC00000E06E42B427BE1B032E05DA16460A3E9A
:109ED0008E4201DA00251D80F0BDF0B503461E2438
:109EE0001D1B01D42E4600E06E42B0B2002801DDF9
:109EF000451CA8B20E2800DD0E200D1E01DB2E46EB
:109F000000E06E42B427BE1B1E2E07DCA34202DD1A
:109F100005B2158004E00025158001E000251580BC
:109F2000F0BDF7B588B00446002006902078059073
:109F30002078049000250DE0615D0598814202DDE6
:109F40000695605D0590615D0498814201DA605D6F
:109F500004906D1C042DEFDB002506E0615D049884
:109F6000081AA9006A4650506D1C042DF6DB0698AD
:109F7000002806D0012821D0022839D0032878D122
:109F800053E001990398401800994618E0786178E9
:109F900040184010217840180590002E00D101266D
:109FA00003990198471A5A2179430846314604F02B
:109FB0001FF8079007985A3807905AE000990298BE
:109FC000401801994618A07821784018401061780F
:109FD00040180590002E00D1012600990298471ADA
:109FE0005A2179430846314604F002F8079040E0D0
:109FF00001990398401802994618E0786178401852
:10A000004010A17840180590002E00D1012601993A
:10A010000398471A5A2179430846314603F0E8FF6E
:10A02000079007985A30079023E00099029840184B
:10A0300003994618A078217840184010E17840181C
:10A040000590002E00D1012602990098471A5A2146
:10A0500079430846314603F0CBFF07900798B430A8
:10A0600007900798B42803DD0798FF3869380790F0
:10A0700000BF00BF0999079808600A990598086011
:10A0800001200BB0F0BDF8B505460C4616461F463C
:10A09000002000905E4A5F492846FFF742FF5C4877
:10A0A0000068A04201DB01200090042229465A48A2
:10A0B00003F0EEFE00200FE0584A125C5300D21865
:10A0C000554B1B5CD118CA17920F52189205120EED
:10A0D000514B1A54411CC8B20428EDDB4F484E497D
:10A0E000096801604A4A4B494B48FFF71AFF494843
:10A0F00000684B490860464800688C21081A4949A5
:10A1000008603B4622464248016845480068FFF720
:10A11000B3FE32464248016842480068FFF7DDFE60
:10A120000098F8BDFFB583B006460D4617460020DF
:10A1300002900190364A37493046FFF7F2FE344824
:10A140000068A84201DB0120019008223146324814
:10A1500003F09EFE00240CE03049095D89002E4A80
:10A16000125D8818052103F043FF2B490855601C38
:10A17000C4B2082CF0DB2949274A05CA05C10020D2
:10A1800006E0254A011D515C274A1154411CC8B202
:10A190000428F6DB1E4A1F492348FFF7C2FE1C486D
:10A1A0000068362810DB01200290002005E01A49E3
:10A1B000095C1D4A1154411CC8B20428F7DB144A3B
:10A1C00014491948FFF7ADFE1248006814490860A9
:10A1D0000F4800688C21081A124908602A460C486A
:10A1E000069B01680E480068FFF746FE3A460C4899
:10A1F00001680C480068FFF770FE0298002805D03F
:10A200000198002802D0012007B0F0BD0020FBE734
:10A210000C29002008290020142900201C290020D6
:10A220002429002028290020102900205D484068AA
:10A23000002813D05C480168406801221206002300
:10A2400089185841584A11605060104601684068AA
:10A25000C0B211605060002052494860002051494E
:10A26000403108607047F8B55048406800254E4BB3
:10A270001A685B6884185D417D26F6000027204639
:10A28000294632463B4603F097FD4A04C00B104373
:10A29000C90BF8BDF8B5454840680025424B1A681F
:10A2A0005B6884185D41424E0027204629463246AD
:10A2B0003B4603F081FD4A04C00B1043C90BF8BDB7
:10A2C00010B5FFF7D0FF10BD10B5FFF7E3FF10BDCD
:10A2D00070B50546FFF7F4FF044670BD0AE000BF05
:10A2E00000BF00BF00BF00BF00BF00BF00BF00BF76
:10A2F00000BF00BF0146401E0029F0D1704710B5D5
:10A3000001202C494860886000202849886002208C
:10A31000294948602849403948600321112000F04C
:10A320000AF8112001218140244A116000BF012058
:10A330002049086010BD10B5002819DA204A03072B
:10A340001B0F083B9B089B00D2588307DC0EFF23A2
:10A35000A3409A438B071B0E8407E40EA3401A43C5
:10A36000174B0407240F083CA408A4001A5118E056
:10A37000124A03231B02D21883089B00D25883077A
:10A38000DC0EFF23A3409A438B071B0E8407E40EC9
:10A39000A3401A43094B032424021B198408A40078
:10A3A0001A5110BD00110140302900200015014054
:10A3B00040420F00001001404013014000E100E066
:10A3C0001CED00E070B500BF01200007C94988609E
:10A3D00000BF00BF4000886000BF0420FDF7C6FE3C
:10A3E000C4480069C000C00F06D0C24800698000A0
:10A3F000C00F01D0012426E0BE4800698000C00FD4
:10A4000020D00024122518E000BF01204007B949E0
:10A41000C86000BF0420FDF7A9FE00BF012040076F
:10A42000B449886000BF0420FDF7A0FEB148006970
:10A43000C000C00F01D0012403E028466D1E002893
:10A44000E2D100E00024204670BD10B500BFAA484C
:10A4500005210907072212028918086700BF00BFFB
:10A46000052109078918486700BF00BF0120400780
:10A47000A049886000BF00BF886100BF00BF4010D6
:10A48000886000BF00BF886100BFFFF79BFF10BD61
:10A4900010B500BF012040079649886000BF042026
:10A4A000FDF764FE00BF934800698000C00FFAD03A
:10A4B000012010BD10B500BF012000078D49C86004
:10A4C00000BF0420FDF752FEFFF7E2FF002800D195
:10A4D00010BD00BF012000078649886000BF04202E
:10A4E000FDF744FE0120F3E770B50646012400BFE6
:10A4F00020078049886100BF80251EE000BF012041
:10A5000040077C49C86000BF0420FDF72FFE30469D
:10A51000284205D000BF012000077649886005E089
:10A5200000BF012000077349C86000BFFFF7B0FFFC
:10A53000002801D1002402E06D08002DDED100BF0B
:10A5400000BF012040076B49C86000BF0420FDF731
:10A550000DFE00BF012000076649C86100BF04204E
:10A56000FDF704FEFFF794FF044062480069000F06
:10A5700001214840044000BF48075E49C86000BF51
:10A580000420FDF7F3FD00BF012000075949886151
:10A5900000BF204670BDF8B505460E4600270120D5
:10A5A000009000BF00075349C86100BF802417E036
:10A5B000FFF76EFF002801D1009013E04D480069BD
:10A5C000C000C00F02D038462043074600BF01201C
:10A5D00040074849C86000BF0420FDF7C7FD640874
:10A5E000002CE5D100BF00BF012000074149886170
:10A5F00000BF2F70002E02D000BFC86005E000BF72
:10A60000012000073B49886000BF0420FDF7AEFD34
:10A61000FFF73EFF002800D1009000BF0120400757
:10A620003449C86000BF0420FDF7A0FD0098F8BDC4
:10A6300010B500BF012000072E49886000BF04202C
:10A64000FDF794FDFFF724FF002800D110BD00BFE7
:10A65000012000072749C86000BF0420FDF786FDE0
:10A6600000BF012040072349C86000BF0420FDF758
:10A670007DFD0120EAE7FFB581B007460D4616468D
:10A680000124FFF7D5FF04403846FFF72DFF0440B3
:10A69000F807C00F16D00DE0002E05D10021284686
:10A6A000FFF779FF044004E001212846FFF773FF1C
:10A6B00004406D1C3046711ECEB200280FD0002C15
:10A6C000EAD10CE004E02878FFF70EFF04406D1C8F
:10A6D0003046711ECEB2002801D0002CF3D1049870
:10A6E000002801D1002C02D1FFF7E4FE04402046EF
:10A6F00005B0F0BD000500500C06000000BF424848
:10A7000080680128FBD100203F4988603F4880696C
:10A71000C0B2704770B504460D4601260AE02046D7
:10A72000641E002804DB7D20C000FDF72FFD01E042
:10A73000002603E0344880680128F0D100BF002CD7
:10A7400005DB002030498860304880692870304639
:10A7500070BD2E49C86100BF2B49C9690129FBD1D1
:10A760000021294AD161704730B5034600252846AB
:10A770006D1C1C5C05E02046FFF7EBFF28466D1CB6
:10A780001C5C002CF7D130BDF8B507460C461546C9
:10A790001E46204600F025F80021304600F02AF839
:10A7A0001A48C4604661069800280DD0384600F06B
:10A7B00018F80021284600F01DF81448056187604C
:10A7C000012012494031C8621148104948620420F2
:10A7D000086001200F498860086000200A498860ED
:10A7E000F8BD03210522120707231B02D21883009C
:10A7F000D150704710B58A0005231B070724240297
:10A800001B1984001A5110BD002100400025004092
:10A8100000E0D7010020004010B59448006894493A
:10A820000968884236D0914800681421484391490C
:10A8300040188078002810D18C4A126814235A439B
:10A840000B46D2189188894A126814235A43894BBF
:10A85000985A002295DF04460FE0844A12681423B8
:10A860005A43844BD21811460831804A1268142387
:10A870005A43804B985A97DF0446002C09D17B48F5
:10A880000068401C79490860084600784007400F7E
:10A89000086000BF10BD70B504460D46FFF7BCFF51
:10A8A00070BDF8B505460C46A089A988884220D11C
:10A8B00000260220694608703146761C2046123078
:10A8C000405C304007D13146761C20461230405C57
:10A8D0006946488008E0214612318819017842789B
:10A8E000120211436846418069462846AA6890478B
:10A8F00000BFF8BD38B504462078002839D1A088BB
:10A900005D49884235D1A079012832D160885B4900
:10A910000968088000251EE00C2029464143204696
:10A920000A30405A5649884214D10C2029464143E6
:10A9300020460A30081840895049096848800C2090
:10A940002946414320460A30081800894B490968C6
:10A95000888003E06D1C207AA842DDD800BF01206A
:10A960006946087045480068826844480068904716
:10A9700000BF38BD38B504460D46002C01D0002D6F
:10A9800001D10E2038BD0121684681703A4901800D
:10A990003A48046039492868096888600020C04343
:10A9A00036490968088000203449096848803549DB
:10A9B000684602F03AFEE5E770B505460C46002D04
:10A9C00001D0002C00D170BD2088102804D0372879
:10A9D0000AD038280DD102E0A08828800AE021465C
:10A9E0002846FFF75EFF05E021462846FFF753FFA4
:10A9F00000E000BF00BF00BFE5E7F7B5064615461B
:10AA00002F461B4800681A490968491C184A1160FA
:10AA10001421484317494418104600784007400F56
:10AA200011460860019961810221E181211D2161A6
:10AA30000021A181012121722771FF2000023840ED
:10AA40000112617126800120A070FFF7E5FE002051
:10AA5000FEBD10B50446002C01D10E2010BD61884A
:10AA600020880122FFF7C9FFF8E700003C290020F9
:10AA700038290020202C00200D180000402900203B
:10AA8000372A0000F5A8010010B5044601210C206A
:10AA90006043FA4A80188172891E0C206043801836
:10AAA0000181FF210C2060438018C1720C21614399
:10AAB0008818072103F049FA10BD10B50446182183
:10AAC0006143EF4A891808461130062103F03DFA28
:10AAD00018206043EA49401800210160416081600C
:10AAE000C160FF2118206043E54A801801741820D6
:10AAF00060438018C175204601F0AEFB0020A10024
:10AB0000E04A505010BD70B503460C4608200021A5
:10AB100014E00C254D43D94EAD19AD7A25420CD029
:10AB2000D94DAB4205D00C254D43AD192D899D4221
:10AB300002D11160002003E00520491C0029E8D063
:10AB400000BF70BD7CB50546A9B26A46CF4802F089
:10AB500071F80446002C09D15C21684602F0E9F93D
:10AB60000446002C02D12846FFF7A7FF20467CBDF3
:10AB7000F8B505460E46052700240FE0182161436D
:10AB8000BF4A8918084610300722294603F02CF9DD
:10AB9000002802D13460002702E0641C072CEDD3AA
:10ABA00000BF3846F8BD10B50446002010BDFEB504
:10ABB00004460E46A1786A46B44802F03BF80546C2
:10ABC000002D49D160780C214843AC494018807A67
:10ABD00040210840402801D0022E01D1AC4F04E0B2
:10ABE000012E01D1AB4F00E0AB4FA07818225043AB
:10ABF000A34A8118002318226846B8470546002D4D
:10AC00001AD1022E18D060780C2148439B49401875
:10AC1000807A4021884361780C225143974A8918F1
:10AC2000887260781C2250439C4A811818231C2289
:10AC30006846B847054600BF022E0DD020780C218B
:10AC4000484397494018807A800096490A5821461F
:10AC500068469047054600BFFEBDFEB507460C4658
:10AC60000620029061780C225143844A8918088991
:10AC700002AA6946AADF0646002E45D161780C2259
:10AC80005143894A8918081D69460A8903F0ACF8BE
:10AC9000002813D160780C21484378494018807A05
:10ACA0000221084002282FD060780C2148437E49B9
:10ACB0004018002101604160816025E060780C212E
:10ACC000484379490858002801D0714D00E0714D82
:10ACD0006946098960780C225043734A11506178A3
:10ACE0000C225143704A8918081D69460A89FDF7EC
:10ACF0006DFA60780C2250436B4A811834230C2281
:10AD00003846A847064600BF0020FEBD0246002088
:10AD1000704770B505460C4661780C225143624A73
:10AD2000881834230C22294602F092F80646002E99
:10AD30000CD160780C2148435B490858401C05D170
:10AD4000002160780C225043574A1150304670BDA4
:10AD5000024600207047F8B50446002600276078B8
:10AD60000C2148435049085800281FD060780C2116
:10AD7000484342494018807A80210840802815D1F4
:10AD800060780C2148433D494018807A40210840B2
:10AD900040280BD060780C21484343494018061DD9
:10ADA00060780C2148434049085A87B261780C22E8
:10ADB0005143324A891808893A463146A9DF054687
:10ADC000002D00D0394D2846F8BD014600207047BF
:10ADD00070B5044622780C235A43314BD218111D0A
:10ADE00062780C235A43254BD21810897EDF054622
:10ADF000002D29D120780C21484329494018407A58
:10AE00000121084321780C225143254A89184872B0
:10AE100060780C21484319494018807A042108437E
:10AE200061780C225143154A8918887260780C2188
:10AE3000484311464018807A2021884361780C22CB
:10AE400051430E4A89188872284670BD0146002970
:10AE500002D1164833387047FF2008704870887058
:10AE6000C8700020F7E7FFB58FB01D4600BF0C4843
:10AE7000006800281CD113B0F0BD0000AC2D0020EC
:10AE8000DC2C0020C02C0020FFFF000048290020FF
:10AE900087CD0100BDCC0100A7AB0100842D0020AF
:10AEA000B82D00202CE20100A02D002041800000E0
:10AEB00000BF18985C2801D913B0F0BD012006909E
:10AEC0000BA8FFF7C3FF064600BF3746002F06D08A
:10AED00000BFFB4AFB493846FDF761FA00BF00BFDF
:10AEE000002108A8017301740A9518980990002799
:10AEF00012E0B9B207AAF44801F09CFE0646002E03
:10AF000009D1082207A90F9802F06EFF002802D18C
:10AF100008A98F7302E07F1C072FEAD300BF08A89F
:10AF2000807BFF2877D0109804280AD118985C28D5
:10AF300003D1202008A9087498E0402008A90874CB
:10AF400094E0E249681A182103F048F80446072CF7
:10AF50001CD209A80D90119800280FD108A9887B50
:10AF600001218140DA4A1268114201D0012100E03A
:10AF70000021002902D10020069077E008A9887BF3
:10AF800001F06AF9202008A908746FE0D149681A15
:10AF90001C2103F023F80446002C1AD109A80D90B7
:10AFA000202108A80174447300200390CA49049129
:10AFB0001C206043C7494018009008A8807B1821D6
:10AFC0004843C2494018019068460A9018200990E9
:10AFD0004CE0C249681A0C2103F000F80446002C2A
:10AFE0001AD1302108A8017444730121C1730C20C7
:10AFF0006043BB494018807A02210840022835D0BE
:10B0000008A8407B0C214843B44940180021016046
:10B01000416081602AE04DE000200690402008A9B0
:10B020000874B048854204D1042010900120069095
:10B030001CE008A8807B8000AB490858A84215D1C5
:10B040000120069009A80D9000200CE008A98A7B39
:10B050000C214143A24BC918C97A8A4202D108AADD
:10B06000507302E0401C0028F0D000BF0698012871
:10B0700020D11098042806D108A9087C0321084390
:10B0800008A908740FE01098032806D108A9087CC5
:10B090000121084308A9087405E008A9087C0221D9
:10B0A000084308A9087409A80D900CA90BA8119AC7
:10B0B00001F015F900BFFFE67FB50646002E02D16C
:10B0C0008A4804B070BD00240FE000BF00210C20AE
:10B0D0006043874A11500C206043801841720C2055
:10B0E00060438018817200BF641C002CEDD00024E6
:10B0F00003E02046FFF7C8FC641C002CF9D0774819
:10B100000021016041608160002403E02046FFF7D8
:10B11000D4FC641C072CF9D35C216846818107218B
:10B12000C18174480290684902A801F0BFFC05463D
:10B13000002D30D10120704908703078002821D1CD
:10B1400000241CE0A1B26A465F4801F073FD054689
:10B15000002D0FD1182161435C4A88180023182262
:10B16000694601F075FE0546002D07D000206249B2
:10B17000087006E000206049087002E0641C072C9B
:10B18000E0D308E06A469089D289504381B24E48A4
:10B1900001F0CFFE0546284693E770B505460C46FC
:10B1A00000BF55480078002802D15048801F70BD6C
:10B1B00000BF002D01D14D48F9E7002C01D14B48CB
:10B1C000F5E72068002801D14848F0E748480068C2
:10B1D00000280FD14649206808600522611D4448B7
:10B1E000001D02F055FE2079414988720020287028
:10B1F000002601E03D4E0A3E3046D8E7F8B5044649
:10B2000000BF3D480078002802D13848801FF8BDB3
:10B2100000BF002C01D13548F9E700BF2078012894
:10B2200006DA20780C21484331490858002802D119
:10B230002E48801FEBE700BF00BF6078012807DAC7
:10B2400060780C21484326494018807A012802D1B1
:10B250002648801CDBE700BF244DAD1F60780C2121
:10B2600048431F494018807A02210840022825D10E
:10B27000A078FF2807D160780C214843184940186E
:10B28000C07AFF283AD060780C214843144940180E
:10B29000C07AA07063781C2673430E4E9A196378A7
:10B2A0001C2673430B4E9B191946123163780C26EA
:10B2B00073430B4E9B19188981DF05465FE0000040
:10B2C00060E201005C05000048290020DC2C002021
:10B2D00050290020842D0020C42D0020A02D002006
:10B2E000AC2D00205CE20100C02C00200E8000008C
:10B2F000B82D002067AE01004429002060780C22A0
:10B300005043F74A8118684600F0AEFF0546002D0D
:10B3100034D16846017860780C225043F04A801896
:10B32000C17268460078A07020780C214843ED492E
:10B330004018407AC007C00F1CD060780C214843E9
:10B3400011464018807A2021084361780C2251432D
:10B35000E34A8918887220780C214843E149401853
:10B36000407A0221084321780C225143DD4A891892
:10B37000487203E02046FFF72BFD054600BF284634
:10B3800045E7024600BFD8480078002801D1D748D9
:10B39000704700BF002A02D1D448801DF8E7002979
:10B3A00002D1D248801DF3E700BF1078012806DAE9
:10B3B00010780C235843CB4B1858002801D1CB48A8
:10B3C000E6E700BF00BF5078012807DA50780C2369
:10B3D0005843C34BC018807A012802D1C3480830B3
:10B3E000D6E700BF50780C235843BD4BC018807A75
:10B3F0000423184208D150780C235843B84BC01886
:10B40000807A2023184202D0012008700DE0507885
:10B410000C235843B24BC018807A8023184202D0C4
:10B420000220087001E0002008700020B0E7F8B5A5
:10B43000044600BFAC480078002801D1AB48F8BDF5
:10B4400000BF002C02D1A948801DF8E7002902D1D5
:10B45000A648801DF3E70868002802D1A348801D94
:10B46000EDE78868002802D1A048801DE7E700BF0B
:10B470002078012806DA20780C256843994D285851
:10B48000002801D19948DAE700BF002200230020FC
:10B49000009000BF43E00025009500BF12E00C269D
:10B4A0006E438F4FF619F67A86420AD10C266E4308
:10B4B000F619B67A02273E40022E02D101260096E6
:10B4C00002E06D1C002DEAD000BF009D002D25D1AB
:10B4D0000D7B9D420ED918254543854EAD19ED7D56
:10B4E000ED07ED0F06D118254543AD199F008E6875
:10B4F000F5515B1C0D79954210D9182545437C4EBA
:10B50000AD19ED7D0226354208D118254543784E08
:10B51000AD19103597000E68F551521C401C0728D4
:10B52000B9D30A710B73002089E702466F4888304F
:10B53000704770B5044600BF6B480078002801D101
:10B540006A4870BD00BF002C02D16848801DF8E732
:10B5500000BF2078012806DA20780C214843614991
:10B560000858002801D16148EBE700BF00BFA07870
:10B57000072807DAA078182148435D494018C07DA4
:10B58000FF2802D159480830DBE700BFA078FFF759
:10B59000D9FA05462846D4E770B5044600BF52489C
:10B5A0000078002801D1514870BD00BF002C02D1A5
:10B5B0004E48801DF8E700BF2078012806DA207881
:10B5C0000C21484347490858002801D14748EBE778
:10B5D00000BF002600250BE01820684344494018AE
:10B5E000C07DFF2803D02846FFF7ACFA06466D1C45
:10B5F000072DF1D33046D7E7FEB504460D4600BF10
:10B6000039480078002801D13848FEBD00BF002C21
:10B6100002D13648801DF8E7002D02D13348801D45
:10B62000F3E700BF2078012806DA20780C21484390
:10B630002C490858002801D12C48E6E700BF00BF7C
:10B640006078012807DA60780C21484324494018C3
:10B65000807A012802D125480830D6E700BF00BF14
:10B66000A078072807DAA078182148432049401815
:10B67000C07DFF2802D11D480830C6E700BFA8687A
:10B68000002812D0686800280FD0686806280CD2FD
:10B690002878012809D163780C277B43154FDB19E3
:10B6A000181D6A68A96802F0F3FBA1786A4612487F
:10B6B00001F0C0FA06462878800010490A58214651
:10B6C00068469047064630469FE77CB504460D46DF
:10B6D00000BF05480078002812D104487CBD000056
:10B6E000AC2D0020B82D0020442900200880000047
:10B6F000DC2C0020A02D0020482900202CE2010095
:10B7000000BF002C01D1F748E8E7002D01D1F54832
:10B71000E4E700BF2078012806DA20780C214843AE
:10B72000F1490858002802D1EE48801FD6E700BF33
:10B7300000BFA078072807DAA07818214843EB4912
:10B740004018C07DFF2802D1E648801CC6E700BF34
:10B7500060780C214843E6494018807A022108406D
:10B76000022802D0DF488330B8E7A868002812D149
:10B77000686806280FD2287801280CD160780C213F
:10B780004843DC494018001DA86060780C214843FC
:10B79000D84908586860A1786A46D74801F04AFA43
:10B7A000064628788000D5490A58214668469047C1
:10B7B0000646304692E7014600BFD148007800288F
:10B7C00002D1C848801F704700BF002901D1C54879
:10B7D000F9E700BF0878012806DA08780C22504300
:10B7E000C14A1058002802D1BE48801FEBE700BFB5
:10B7F00000BF8878072807DA887818225043BB4AA8
:10B800008018C07DFF2802D1B648801CDBE700BF4E
:10B81000B4488230D7E7FEB504460D4600BFB848AD
:10B820000078002802D1AF48801FFEBD00BF002C69
:10B8300001D1AC48F9E7002D01D1AA48F5E76868C5
:10B84000002801D1A748F0E700BF2078012806DAD8
:10B8500020780C214843A4490858002802D1A14867
:10B86000801FE2E700BF00BFA078072807DAA078B2
:10B87000182148439D494018C07DFF2802D19948AE
:10B88000801CD2E700BF2868042801D20720CCE73B
:10B890009C4FA1786A46984801F0CCF90646002EE4
:10B8A00022D144230422694602A801F0D1FA0646B7
:10B8B000002E03D10298401C00D0934F4423042251
:10B8C00029466846B8470646002E0DD14823142263
:10B8D0006846696801F057FA0646002E04D1A1783F
:10B8E00089008A4A6868505030469EE7FEB5044693
:10B8F0000D4600BF82480078002802D17948801F99
:10B90000FEBD00BF002C01D17648F9E7002D01D122
:10B910007448F5E700BF2078012806DA20780C216A
:10B92000484371490858002802D16E48801FE7E754
:10B9300000BF00BFA078072807DAA0781821484385
:10B940006A494018C07DFF2802D16648801CD7E7AD
:10B9500000BF6868002805D1A07880006B490858AE
:10B96000686004E0A1788900684A68685050A1784E
:10B970006A46614801F05EF90646002E19D144235B
:10B980000422694602A801F063FA0646002E0ED191
:10B990000298401C0BD0482314226946686801F0C5
:10B9A00057FA0646002E04D10298286001E04D4E59
:10B9B00032363046A4E73EB5044600BF5048007812
:10B9C000002802D14748801F3EBD00BF002C01D196
:10B9D0004448F9E700BF2078012806DA20780C21D6
:10B9E000484341490858002802D13E48801FEBE7F0
:10B9F00000BF00BFA078072807DAA07818214843C5
:10BA00003A494018C07DFF2802D13648801CDBE748
:10BA100000BFA1786A46384801F00CF90546002DB0
:10BA200016D144230422694602A801F011FA054602
:10BA30000298401C0CD0442304223549684601F08A
:10BA4000A2F90546002D03D1A17889002F4A505054
:10BA50002846B9E7024600BF29480078002802D1ED
:10BA60002048801F704700BF002901D11D48F9E719
:10BA7000002A01D11B48F5E700BF1078012806DA3B
:10BA800010780C235843184B1858002802D1154839
:10BA9000801FE7E700BF107808700020E2E770B56C
:10BAA00004460D4600BF16480078002802D10D4814
:10BAB000801F70BD00BF002C01D10A48F9E7002D9E
:10BAC00001D10848F5E700BF2078012806DA207880
:10BAD0000C2148430449085800281BD10148801F05
:10BAE000E7E700000E800000B82D0020DC2C0020CD
:10BAF000AC2D0020A02D0020482900203CE20100B0
:10BB000044290020BDCC010087CD0100C02C0020BD
:10BB10005CE2010000BF00BFA078072807DAA07828
:10BB200018214843FE494018C07DFF2801D1FD4837
:10BB3000BFE700BF6078FF281CD12878022819D001
:10BB4000A17818225143F64A891808461030072276
:10BB5000294602F09DF9A07801218140F24A12683D
:10BB60001143F14A116000BF02212046FFF71FF880
:10BB7000002601E0EB4E093E30469AE770B50446D8
:10BB80000E4600BFE9480078002802D1E548083891
:10BB900070BD00BF002C02D1E248801EF8E7002EE5
:10BBA00002D1E048801EF3E700BF2078012806DAC2
:10BBB00020780C214843DE490858002802D1D94892
:10BBC0000838E5E700BFD74D0B3DA078FF2817D117
:10BBD0006078FF2829D060780C214843D549401867
:10BBE000807A0221084002281FD160780C2250433D
:10BBF000D04A81180722304602F04AF9002514E0A5
:10BC0000A07818214843C6494018C07D0221084247
:10BC10000BD1A07818225043C14A80180146103138
:10BC20000722304602F034F900252846B0E770B507
:10BC30008AB005460C4600BFBC480078002803D1F6
:10BC4000B84808380AB070BD00BF002D02D1B54811
:10BC5000801EF7E7002C02D1B248801EF2E700BF39
:10BC60002878012806DA28780C214843B04908587A
:10BC7000002802D1AB480838E4E700BF00BFA8782D
:10BC8000072807DAA87818214843A5494018C07D3D
:10BC9000FF2801D1A348D5E700BF00BF0020E06026
:10BCA000A549216100216161A878182148439C4978
:10BCB000401860600020A060A97801AA9F4800F0A9
:10BCC000B9FF0646002E17D118231C2201A903A88C
:10BCD00001F0BEF80646002E0ED1E06096492161C3
:10BCE00000216161A878182148438D49401860609F
:10BCF0000020A06003A820603046A3E7F0B591B013
:10BD00000546002600200E9000BF884800780028D5
:10BD100001D111B0F0BD00BF00BF85480068002808
:10BD200000D1F6E700BF0DA8FFF790F8044600BF6A
:10BD30002746002F06D000BF814A82493846FCF7CB
:10BD40002EFB00BF00BF002009900024281D0B908F
:10BD50002A2168460186FF2108A881750021017506
:10BD6000002010902888102813D0A88810AA02213B
:10BD7000FEF7C9FE0446002C0BD10C211098484355
:10BD80006C494018C17A08A881751098C1B208A8FA
:10BD90004175288817287DD006DC10280BD0112883
:10BDA00079D0132878D1EDE0182876D01C2875D0EA
:10BDB0005228F7D1FAE110AF3A4601216248FEF766
:10BDC000A2FE02900298002807D102210C223868B6
:10BDD0005043584A8018817201E004200290029872
:10BDE0000446002C62D10126112108A80172109886
:10BDF000C1B208A84175A9880C22109850434D4A39
:10BE00008018018102210C2210985043494A801861
:10BE100081720C2210995143464A88180722A91DA5
:10BE200002F036F80FA9A81DFEF7A2FE0446002C6A
:10BE30003CD10F98C1B20C22109850433D4A801853
:10BE4000C1720C211098484311464018807A08218D
:10BE500008430C2210995143364A8918887208A960
:10BE60000F9888750F9881B201AA344800F0E2FE5D
:10BE70000446002C19D11C2210995143334A8818CA
:10BE800018231C2201A900F0E3FF2948807A8000D2
:10BE90002F4904E0A9E00AE096E122E18FE10A5887
:10BEA0000DA901A89047044600BF00BF8DE10C21F9
:10BEB000109848431F494018807A022188430C2279
:10BEC000109951431B4A891888720C2110984843D5
:10BED00011464018807A0821084008280ED10C210C
:10BEE0001098484311464018807A802108408028E5
:10BEF0000FD100210DA8FEF75AFE0AE008A8807DA8
:10BF0000FF2806D008A9887DFEF7D7FDFF2008A9E5
:10BF100088750C211098484306494018807A19E02A
:10BF2000DC2C002010800000502900204429002033
:10BF3000B82D0020AC2D0020C42D00204829002061
:10BF400060E2010089090000FFFF0000842D00204D
:10BF50003CE2010004210840042807D101200E9092
:10BF6000F648407A40084000F449487210210C22FB
:10BF700010985043F24A801881720126122008A9B5
:10BF8000087222E1002600200690EE490791002168
:10BF900008911C2110984843EB49401803900C214C
:10BFA00010984843E6494018C07A18214843E749A9
:10BFB0004018049000200590A88803AB0022114689
:10BFC0007FDF0446002C01D009940DE00C2110986D
:10BFD0004843DB494018807A042108430C22109919
:10BFE0005143D74A89188872EFE0D448407A400814
:10BFF0004000D24948720C2110984843D04940185B
:10C00000807A042188430C2210995143CC4A891824
:10C010008872142008A90872012601200E90A879C0
:10C02000002802D0A87909905AE0E8794007C00FAB
:10C0300056D008A8807DFF2852D00C211098484384
:10C04000BF494018807A082108430C2210995143B7
:10C05000BB4A89188872A87A8007C00F0DD01821B2
:10C0600010984843B9494018C07D4108490018223A
:10C0700010985043B54A8018C1750C211098484358
:10C08000AF494018C07AFF282AD00C2110984843A5
:10C09000AB49085C02281FD00C23109A5A430B4668
:10C0A000D11808AA927D18235A43A84BD2181046DB
:10C0B0001030072201F0ECFE08A8807D18214843CB
:10C0C000A2494018C07D0221884308A9897D182211
:10C0D00051439E4A8918C87501210DA8FEF767FDD6
:10C0E00073E0A879000901283FD1A8790007000F63
:10C0F00001283AD10C211098484391494018807A80
:10C1000008210840082830D10C2210995143904A48
:10C110008918081D062101F01AFF162008A90872C7
:10C1200001200E900C211098484385494018807AD0
:10C13000202108430C2210995143814A89188872A2
:10C140000C211098484311464018807A402108433A
:10C150000C22109951437A4A891888727748407A9C
:10C1600002210843754948721CE00C21109848438D
:10C1700073494018807A802108430C22109951435A
:10C180006F4A89188872152008A908726B48807A4E
:10C190008000704A11580DA888470446002C01D031
:10C1A0006D4809900020099001260EE06348807ACE
:10C1B0008000684A11580DA88847099005E01320AF
:10C1C00008A90872012600E000BF00BF002E16D0AB
:10C1D0000AA90DA8099A00F082F808A8007A122886
:10C1E0000DD100BF0C211098484355494018807A62
:10C1F000012802D01098FEF747FC00BF00BF0E9840
:10C20000002827D04D48407A02210840022821D139
:10C2100007AA20215148FEF776FC0446002C12D1D3
:10C22000002108A801700798C1B208A841700C212C
:10C230000798484342494018C17A08A88170FEF720
:10C24000C7FD044605E03D48407A022188433B494A
:10C25000487200BF00BF5CE501218140404A12687E
:10C260008A433F490A607047F8B505460E463A4F83
:10C27000BF1C00242EE01820604334494018C07DC4
:10C28000FF2826D13078022814D0182060434018A7
:10C29000C07D02218843182161432C4A8918C87542
:10C2A000182161438918084610300722314601F0F1
:10C2B000EFFD0BE01820604324494018C07D410881
:10C2C000490018206043214A8018C1752C7000274E
:10C2D00002E0641C072CCED300BF3846F8BDF8B589
:10C2E00004460D461646154807683246294620463C
:10C2F000B847F8BD02460020704770B505460E46A7
:10C3000031462846FEF7A9FC0446002C02D100BFA6
:10C3100000BF0446204670BD02460020704770B53D
:10C3200005460E4631462846FEF7F3FC0446002C2F
:10C3300002D100BF00BF0446204670BDB82D0020CA
:10C34000AC2D0020C42D0020842D0020DC2C0020EA
:10C35000A02D00204CE2010041800000FFFF000002
:10C360005029002001460020704770B50546284638
:10C37000FEF7F1FC0446002C02D100BF00BF0446CA
:10C38000204670BD002314214143F94A535414211F
:10C39000414389184B8001231421414389188B6044
:10C3A0000023142141438918CB601421414389188B
:10C3B0000B611421414389188B80704710B5002010
:10C3C000EC490880EC490870E949091F0870487079
:10C3D0008870002403E02046FFF7D4FF641C0A2C79
:10C3E000F9D310BDFFB583B004460F4615460326AA
:10C3F000E148007800280BD1002D06D106980028CE
:10C4000003D10220DC49087002E00120DA490870FB
:10C41000D9480078030001F0EDFE07FC05304D829D
:10C42000B7D4FC00D5484069401C08D0012212074F
:10C43000126991B2D14A506901F0D0FD02E00120A9
:10C4400000074069401E01210907096989B2484374
:10C4500002900120000700690004820C01200007FF
:10C46000006980B278430146029821DF0646002E1B
:10C4700002D10220C0490870CCE0384620DF0646D1
:10C48000002E16D1002D11D1069800280AD120784F
:10C49000042803D10720B84908700AE00520B649EE
:10C4A000087006E00420B449087002E00320B24995
:10C4B0000870AFE0B1484069401C08D00122120763
:10C4C000126991B2AD4A506901F088FD02E0012085
:10C4D00000074069401E01210907096989B24843E4
:10C4E000012109070290096989B2794308462A4661
:10C4F000029921DF0646002E10D1069800280AD1A5
:10C500002078042803D106209B49087006E0052006
:10C510009949087002E00420974908707AE097482A
:10C520004069401C08D001221207126991B2934A57
:10C53000506901F053FD02E0012000074069401EF0
:10C5400001210907096989B24843A9004018618897
:10C550004018012109070290096989B27943AA00AC
:10C56000891862888818069A029921DF0646002EEB
:10C5700009D12078042803D106207F49087002E001
:10C5800005207D49087045E001200007006980B260
:10C590007843AB00C0180290608882082169029835
:10C5A00021DF0646002E0BD1002D06D1069800286B
:10C5B00003D107207049087002E006206E49087018
:10C5C00028E06E484069401C08D001221207126919
:10C5D00091B26A4A506901F001FD02E001200007B2
:10C5E0004069401E01210907096989B24843019049
:10C5F00001200007006981B2019801F0EFFC029070
:10C6000020DF0646002E02D107205B49087001E0BA
:10C61000FFE700BF00BF304607B0F0BDF0B585B002
:10C620000F275348001F00781421484350494418ED
:10C63000E5682078022804D0042823D005286FD18B
:10C640006FE0206903904B48008886026088801B59
:10C650000490039880190390A0888019451901213E
:10C6600089020498884206D20498820828460399D1
:10C6700021DF074605E0FF2201322846039921DF2A
:10C68000074680E0A06800013D49401800890490F9
:10C69000A0680001401840890390A068000140187C
:10C6A000406802900298A84205D103990498484333
:10C6B0006188884202D0A06802280DD101200007BD
:10C6C000006981B2284601F089FC2A490988461888
:10C6D000304620DF074622E001200007006981B2D2
:10C6E000284601F07BFC064601200007006980B265
:10C6F0007043281A8008019001200007006980B269
:10C70000711C484361884919401A800800903146DD
:10C710002046009B019AFFF765FE074600BF32E006
:10C7200030E001200007006981B2284601F056FC84
:10C730000646A088411901200007006980B27043B5
:10C74000081A80080490A0884019618842180120C6
:10C750000007006980B2711C4843801A800803906A
:10C7600031462046039B049AFFF73CFE07460AE049
:10C77000E02D00205C2900205E2900200010001020
:10C78000A82E002000BF00BF002F02D10120F749D2
:10C790008870384605B0F0BDFFB581B00646174633
:10C7A0000024F24840780A2837D0F0480078EF4952
:10C7B00049784018C4B20A2C02DB20460A38C4B2B9
:10C7C00014206043E949091D0E54142060434018A9
:10C7D0000761142060434118029805C8CA60886048
:10C7E00014206043E14A121D8018049941801420EE
:10C7F000604380180A9981800025101F80780028E6
:10C8000005D1FFF70BFF0546112D00D10025D748B4
:10C810004078401CD549487000E00425284605B002
:10C82000F0BD10B50024D1484078002807DDFFF79F
:10C83000F5FE0446002C02D0112C00D10024204625
:10C8400010BDF8B50446C948007814214843C749CB
:10C85000091D0E5C081F007814214843C349091DB7
:10C86000401880680001C2490D58C0480078142162
:10C870004843BE49091D40184088091F00900978A7
:10C8800014225143B94A121D89180B69111F0978E6
:10C8900014225143B54A121D891808460830224611
:10C8A0003146A847F8BDFEB505460026AF4880785A
:10C8B00001287DD10020AD498870AE480078082855
:10C8C00011D1022D03D10020AA49087002E00020F6
:10C8D000A9490870FFF7A5FF0646002E02D0304692
:10C8E000FFF7AFFFFEBD022D02D0032D79D174E01A
:10C8F0009E480078142148439C49091D44189F48CC
:10C900000088401C9D4908802078022807D10846ED
:10C91000008880026188884201DB012000E000205D
:10C9200007462078052805D192480078072801D1CC
:10C93000012000E0002002902078042805D18D48D5
:10C940000078072801D1012000E000200190207824
:10C9500004280BD18948008880026188884205DB61
:10C9600084480078002801D1012000E000200090D8
:10C970000298002807D10198002804D100980028C7
:10C9800001D1002F1FD000207A4908703046FFF7F0
:10C9900058FF76490878FFF7F5FC002077490880B2
:10C9A00072484078401E714948700846007800E09F
:10C9B0001AE0401C0870084600780A2803DB084685
:10C9C00000780A380870FFF72CFF0646002E02D0C8
:10C9D0003046FFF736FF05E003E00D20FFF731FF9B
:10C9E00000E000BF00BF00BF00BF7BE770B5FFF7EE
:10C9F000E5FC00206249088062484069401C08D07C
:10CA000001221207126991B25E4A506901F0E6FAFA
:10CA100002E0012000074069801E01210907096921
:10CA200089B248435849086000205449088000BF33
:10CA30000DE0002102014E4B99500201D2181181E4
:10CA40000201D21891810201D2185181401C0028A4
:10CA5000EFD00820474908704A484069401C08D078
:10CA600001221207126991B2464A506901F0B6FAE2
:10CA700002E0012000074069401E01210907096901
:10CA800089B24843064601200007006981B230465A
:10CA900001F0A4FA054620DF0446002C04D1012051
:10CAA0003249887034490870204670BDF8B5044694
:10CAB0000D4600BF30480078002801D10820F8BD9D
:10CAC00000BF002C01D10E20F9E7002D01D10E206E
:10CAD000F5E72068002801D10E20F0E7A0880121A9
:10CAE0000907096989B2884202DCA088102801DAA6
:10CAF0000720E4E7E08800282FD022484069401C46
:10CB000008D001221207126991B21E4A506901F041
:10CB100065FA02E0012000074069401E0121090773
:10CB2000096989B24843E188A2885143164A1268CC
:10CB30008918884211D3E088A18848430121090758
:10CB4000096989B288420ADDA188012212071269A7
:10CB500090B201F04DFA002901D00720AFE720790B
:10CB60008007800F12D00720A9E70000DC2D0020ED
:10CB7000A82E00205E290020542900205C290020D6
:10CB8000562900200010001058290020FE48008877
:10CB9000012801D1042092E7FB4800882860FB4867
:10CBA00000686860F84909880901F94A89186868C5
:10CBB0004860F5490988090120685050A088F24969
:10CBC0000988090189180881E088EF490988090165
:10CBD000891848810027A688E1884E4300BF781C49
:10CBE00087B201200007006980B2B04205D201205F
:10CBF0000007006980B2361A00E000260120000715
:10CC0000006980B2E14909684018E04908600120E4
:10CC10000007006980B2B042E1D9DB48008800011A
:10CC2000DB4940188781D8480088401CD6490880D5
:10CC3000002044E73CB5034600BFD64800780028F2
:10CC400001D108203CBD00BF002B01D10E20F9E727
:10CC5000002A01D10E20F5E71868002805D11868D0
:10CC60000001CB4C2058002801D10720EAE75C687E
:10CC7000186801940090019C18680001C44D401987
:10CC80000089484320180190009800012C460019A3
:10CC90004089009C2401641924896043009C24017C
:10CCA000641964680019019CA04201D80720C9E7F3
:10CCB000019C0098546010600020C3E7F8B504465A
:10CCC0000E4615461F4600BFB2480078002801D125
:10CCD0000820F8BD00BF002E01D10E20F9E7002C7E
:10CCE00001D10E20F5E72068002805D12068000159
:10CCF000A7490858002801D10720EAE72068000169
:10CD0000A3494018408921680901A14A8918098965
:10CD100048432168090189184968401861688842B8
:10CD200001D80720D5E7002D06D0206800019849DA
:10CD300040180089A84201DA0720CAE7E8192168EB
:10CD40000901934A89180989884201DD0720C0E753
:10CD5000304600F05CF9002804D0384600F057F95E
:10CD6000002801D11020B4E7606800F050F90028D5
:10CD700001D11020ADE72B46324621460220009714
:10CD8000FFF70AFDA5E7F8B504460E4615461F460F
:10CD900000BF80480078002801D10820F8BD00BFFE
:10CDA000002E01D10E20F9E7002C01D10E20F5E76D
:10CDB0002068002805D1206800017549085800281E
:10CDC00001D10720EAE72068000171494018408935
:10CDD000216809016E4A89180989484321680901B7
:10CDE0008918496840186168884201D80720D5E74A
:10CDF000002D06D020680001654940180089A8422E
:10CE000001DA0720CAE7E81921680901604A891890
:10CE10000989884201DD0720C0E7304600F0F7F8B5
:10CE2000002804D0384600F0F2F8002801D1102084
:10CE3000B4E7606800F0EBF8002801D11020ADE7FE
:10CE40002B463246214605200097FFF7A5FCA5E7B3
:10CE5000FFB581B00C4615461E4600BF4D48007810
:10CE6000002802D1082005B0F0BD00BF002C01D180
:10CE70000E20F8E70198002801D10E20F3E7206882
:10CE8000002805D12068000141490858002801D137
:10CE90000720E8E7206800013D49401840892168E3
:10CEA00009013B4A89180989484321680901891801
:10CEB000496840186168884201D80720D3E7002DEF
:10CEC00006D020680001324940180089A84201DAE2
:10CED0000720C8E7A819216809012D4A891809897E
:10CEE000884201DD0720BEE7019800F090F8002895
:10CEF00004D0304600F08BF8002801D11020B2E7B2
:10CF0000606800F084F8002801D11020ABE7606869
:10CF100081192A46019800F0BBFF009520680001A6
:10CF20001B490F58002203212046019BB8470020CF
:10CF300099E7F8B504460D4600BF1648007800286A
:10CF400001D10820F8BD00BF002C01D10E20F9E767
:10CF50002068002805D1206800010D4908580028E4
:10CF600001D10720EEE720680001094940184089F7
:10CF700021680901064A891809894843216809017D
:10CF800089184968401807E05629002058290020D0
:10CF9000A82E0020542900206168884201D807206B
:10CFA000D0E7606800F033F8002801D11020C9E70D
:10CFB00023681B011A4FDB1962685B68D01A22686C
:10CFC00012013B46D218118901F008F8002901D05E
:10CFD0000720B7E700202B46024621460090042098
:10CFE000FFF7DAFB06463046ACE7014600BF0D48C6
:10CFF0000078002801D10820704700BF002901D126
:10D000000E20F9E70848407808600020F4E7014660
:10D010008807800F01D1012070470020FCE7000045
:10D02000A82E002054290020DC2D002002460021DB
:10D0300012E0C800FA4BC0188078937898420AD161
:10D04000C800F74B185A1388984204D1C800F44B13
:10D05000C01840687047491CF24800688142E8D314
:10D060000020F7E70246EF480068022815D2ED4895
:10D070000068C000EA4BC0181388038053884380BF
:10D08000E8480068C000E64BC0184160E548006809
:10D09000401CE44B1860002070470420FCE710B5EA
:10D0A000002409E038226243DF4BD0183822624363
:10D0B000D218516B8847641CDA4800688442F1D367
:10D0C0000020DA49086010BDF8B504460D4660201E
:10D0D000005D2E21484307193846FFF7A7FF064693
:10D0E000002E2ED0D148006802282AD25C20015B95
:10D0F000CE48006838225043CB4A80184180012135
:10D10000CA48006838225043C74A1154C7480068CB
:10D1100038214843114640184560C448006838210A
:10D120004843114640184663C0480068401CBF4948
:10D13000086008460068BB490968884201D1FFF7CA
:10D14000AEFFF8BDF8B504460D466020005D2E2107
:10D15000484307193846FFF769FF0646002E3CD0C2
:10D16000B2480068022838D25C20015BAF480068F2
:10D1700038225043AC4A80184180002D12D0002143
:10D18000AA48006838225043A74A1154A7490968A1
:10D1900038225143A44A8918081D2E22394600F02E
:10D1A00077FE06E00221A1480068382250439E4ADB
:10D1B00011549E480068382148439B4940184663F3
:10D1C0009A480068401C99490860084600689549DB
:10D1D0000968884201D1FFF762FFF8BD70B50446C7
:10D1E00093480068401C92490860084600688D49D1
:10D1F0000968884228D200215F2001556020005D27
:10D20000401CC1B260200155005D2E214843051924
:10D210006020005DC0008249401801882980408854
:10D220006880002028715C21085B2A46012190DF7C
:10D230000646002E07D000216120015531462046C8
:10D24000FFF742FF70BD02E000216120015500BFE1
:10D25000F8E710B502460B896020805C2E246043FD
:10D260008018808D834201DA012010BD0020FCE788
:10D2700070B50446002A16D10D896020005D2E2667
:10D2800070430019808D854201D1002070BD08894E
:10D29000401C18806020005D2E2568430019808D99
:10D2A00058800120F2E70889401CD588A84201D1A6
:10D2B0000020EBE70889401C1880D088401E588069
:10D2C0000120E3E738B504466020005D2E21484385
:10D2D00005195F20005D002811D05F22125D521EEB
:10D2E000D1B26022125D2E235A4315190C224A43F3
:10D2F000AB1DD0180289521C6B461A8002E0688D63
:10D3000069460880A88D694648805C21085B6946AB
:10D3100092DF38BDF0B585B004460F46002001907D
:10D320006020005D2E21484305195F20005D0C211F
:10D330004843A91D401802905F20005D401C2979D8
:10D34000884207D103AB002220460299FFF790FFE5
:10D35000019029E05F20065D21E02879401EB0425F
:10D3600002D10020009005E0701C0C214843A91D4B
:10D370004018009003AB2046009A0299FFF778FF0F
:10D38000002802D0012001900CE0009802905F205C
:10D39000005D401CC1B25F200155701CC6B22879E7
:10D3A000B042DADC00BF00BF0198002804D10120A0
:10D3B0003870002005B0F0BD002038705C21085B9B
:10D3C00003A993DFF6E7F8B504460D466888002800
:10D3D0001DD16020005D2E21484307192E460836D6
:10D3E00071883980B0887880F2887A853189B985EA
:10D3F0002046FFF767FF00900098002806D0002124
:10D400006120015520460099FFF75EFE06E00021ED
:10D410002046FFF797FE2046FFF7E0FEF8BD00002C
:10D42000B82E002068290020C82E00206429002082
:10D430006C290020F3B587B00546002006906020D7
:10D44000405D2E214843441908984088002857D150
:10D45000089808300590207904900598007803908A
:10D46000039904984018032804DC217903980818CC
:10D47000207101E003202071049E0020029017E03B
:10D480000A22029842430598801C11180C20704310
:10D49000A21D83180A22184600F0FAFC00210C2075
:10D4A0007043A21D80184181761C0298401C029096
:10D4B0002079B042E4D8701E0C214843A11D4018C9
:10D4C000019028460199FFF7C4FE002802D0207978
:10D4D000032802D10120069011E021795F204155F7
:10D4E0002846FFF7EFFE0746002F08D000216120F5
:10D4F000415539462846FFF7E7FD09B0F0BD01E088
:10D5000001200690069800281DD000215F2041557B
:10D5100005A92846FFF7FEFE0746002F07D0002189
:10D520006120415539462846FFF7CEFDE5E76846BC
:10D53000007D002806D001212846FFF703FE28467B
:10D54000FFF74CFE00BF00BFD7E7FEB504460D460F
:10D550006020005D2E21484307192E4608365F20C3
:10D56000005D0C214843B91D4018029068880028CE
:10D5700016D100BF0FE006214143B21C891849882B
:10D58000744A914206D106214143B21C525A029973
:10D590004A8103E0401C31888142ECD800BF00BFC3
:10D5A000002001905F20005D401C3979884202D143
:10D5B0000120019016E05F20005D401CC1B25F2099
:10D5C000015501A92046FFF7A5FE0090009800280C
:10D5D00007D000216120015520460099FFF774FD16
:10D5E000FEBD00BF68460079002806D00121204614
:10D5F000FFF7A8FD2046FFF7F1FD00BFF0E7002090
:10D6000055490860012055490870002054490860B8
:10D6100054490860704700204F4908604F4908701E
:10D620004F4908604F490860704770B504460D4681
:10D63000002C01D0002D01D10E2070BD474800788C
:10D64000002801D10820F8E743480068022801D1EA
:10D650000620F2E729462046FFF704FDEDE7F8B57E
:10D6600004460F46002C01D10E20F8BD3B4800783F
:10D67000002801D10820F8E737480068002801D1C8
:10D680000820F2E76120005D002801D01120ECE7BE
:10D6900000203349086033490860002160200155AB
:10D6A0005C2007536020005D2E214843051960204F
:10D6B000005DC0002C49401801882980408868809E
:10D6C0005C21085B2A46012190DF0646002E01D02E
:10D6D0003046CAE70121612001550020C5E770B539
:10D6E00005460C46002D01D0002C00D170BD1B4812
:10D6F0000078002800D1F9E72088302817D004DC12
:10D70000102807D0112821D108E0322814D033285E
:10D710001CD116E0A1885C20415318E06221284604
:10D7200000F013FC0021C9435C2041530FE0211D90
:10D730002846FFF748FE0AE0211D2846FFF77AFE3B
:10D7400005E0211D2846FFF700FF00E000BF00BFF5
:10D7500000BFCBE7022900006829002060290020D3
:10D760006C29002064290020B82E002070B50646E0
:10D770000C46154629462046FAF798FE70BDF8B5C6
:10D7800059480078002800D1F8BD584800680028A2
:10D7900001D1012000E0002005465548006800281E
:10D7A00001D1012000E00020064600BF002D14D169
:10D7B000684651DF0446052C01D101250CE0002C00
:10D7C00006D000BF4BA269212046FAF7E8FD03E02E
:10D7D000464900980968884700BF002E1AD154486E
:10D7E0000088009069465348006860DF0446052CB5
:10D7F00001D101260DE0002C06D000BF3DA2802102
:10D800002046FAF7CCFD04E04A4800683849096828
:10D81000884700BF002D02D0002E00D000E0C5E7F1
:10D8200000BF00BFB0E7FFB581B00C4616461F46EB
:10D83000002C02D1072005B0F0BD20468107890FDA
:10D8400001D1012100E00021002901D10720F2E7E8
:10D8500038480460364806803748076037490198E1
:10D8600010DF0546002D01D02846E4E701201E49BF
:10D870000870162026DFDEE710B511DF0446002C05
:10D8800001D0012000E0002017490870204610BD9B
:10D890000146002901D10E20704715480160002083
:10D8A000FAE70146002901D10E2070470F480160B8
:10D8B0000020FAE770B520480068002811D01E4803
:10D8C00000688047044600BF2546002D07D000BFF2
:10D8D00008A2FF2133312846FAF761FD00BF00BFDF
:10D8E00001E0FFF74CFF70BD702900208429002063
:10D8F000802900202E2E5C2E2E5C6E72663531380B
:10D9000032325F73646B5C536F757263655C736412
:10D910005F636F6D6D6F6E5C736F6674646576695F
:10D9200063655F68616E646C65722E630000000061
:10D930007C29002078290020742900206DD701005F
:10D94000F0B502460C46002035E00123834019461D
:10D9500023460B422ED0D5680D4205D101235B042E
:10D96000D5680D43D56004E003231B04D5688D43BF
:10D97000D56005252D0707263602AD198600AD595D
:10D9800003263604B5430526360707273F02F61956
:10D990008700F55105252D0707263602AD198600AB
:10D9A000AD591D430526360707273F02F6198700A4
:10D9B000F55100BF401C2028C7D3F0BDF0B585B09D
:10D9C000EC4805690020EC49C86300263DE01420BE
:10D9D0007043EA49096844180120B040E8490968E1
:10D9E000084230D0E068C0436840216808400746DC
:10D9F00039462046FFF7A4FFDE48006968400390DF
:10DA0000039800280ED003980543E068C04368409F
:10DA100021680840009020460099FFF791FF009888
:10DA2000074300BFA068A8433840019060682840C1
:10DA30003840029001990298084303D02269019965
:10DA40000298904700BF701CC6B2CE48007886424C
:10DA5000BDDB05B0F0BD10B50146002028E0142262
:10DA60004A43C64B1B689A58012383401A421ED072
:10DA70000522120707231B02D2188300D258032362
:10DA80001B049A4305231B07072424021B19840047
:10DA90001A510522120707231B02D2188300D258FD
:10DAA00005231B07072424021B1984001A51401C5C
:10DAB0002028D4D310BD70B505460C46002C01D1EA
:10DAC000072070BD20468107890F01D1012100E0A8
:10DAD0000021002901D10720F3E7A8480460AA48E3
